:1000000071C000008EC000008CC000008AC00000DB
:1000100088C0000086C0000084C0000082C00000CC
:1000200080C000007EC000007CC000007AC00000DC
:1000300078C0000076C0000074C0000072C00000EC
:1000400070C000006EC000006CC000006AC00000FC
:1000500068C0000066C0000064C0000062C000000C
:1000600060C000005EC000005CC000005AC000001C
:1000700058C0000056C1000054C0000052C000002B
:1000800050C000004EC000004CC000004AC000003C
:1000900048C0000046C0000044C0000042C000004C
:1000A00040C000003EC000003CC000003AC000005C
:1000B00038C0000036C0000034C00000FEC00000A0
:1000C00030C000002EC000002CC000002AC000007C
:1000D00028C0000026C0000024C0000022C000008C
:1000E00020C0000011241FBECFEFD1E2DEBFCDBF84
:1000F00000E00CBF12E0A0E0B2E0ECE2F7E000E0CC
:100100000BBF02C007900D92A830B107D9F722E0CB
:10011000A8E0B2E001C01D92A731B207E1F7B5D067
:1001200003C36ECFECE7F0E08081806480838FECC6
:1001300080937A0083E080937B000895249A259A27
:10014000269AE1E0F1E08081806180838081806295
:1001500080838081806480830895FC019081933046
:1001600091F028F4913049F0923051F00895953093
:1001700081F060F0963081F0089582E080830895E8
:1001800083E08083089584E08083089585E0808300
:10019000089586E08083089581E080830895FC01BE
:1001A0008081833049F128F4813051F08230B1F000
:1001B00008958530E9F170F1863009F447C008955B
:1001C0002D9A2E98E2E0F1E080818F7E80838081FD
:1001D0008062808380818064808308952C9A2E9829
:1001E000E2E0F1E080818061808380818F7D808387
:1001F00080818064808308952C9A2D98E2E0F1E05C
:1002000080818061808380818062808380818F7B18
:10021000808308952D982E9AE2E0F1E080818F7E10
:100220008083808180628083808180648083089560
:100230002C982E9AE2E0F1E08081806180838081B9
:100240008F7D808380818064808308952C982D9A8F
:10025000E2E0F1E080818061808380818062808340
:1002600080818F7B80830895CF93C82F8A3011F4CB
:100270008DE0FADFE0ECF0E0908195FFFDCFC093D8
:10028000C60080E090E0CF91089560E070E084E3E4
:1002900091E0B2D090930C0280930B0280E991E040
:1002A00090932901809328013DDF87E690E099D063
:1002B00089D091D043DF7894FFCF1F920F920FB671
:1002C0000F9211240BB60F922F933F934F935F938E
:1002D0006F937F938F939F93AF93BF93EF93FF930E
:1002E00086E092E05CDF86E092E037DFFF91EF91FD
:1002F000BF91AF919F918F917F916F915F914F913E
:100300003F912F910F900BBE0F900FBE0F901F903B
:100310001895FC018081FB019081981708F4808377
:1003200008951F920F920FB60F9211240BB60F92E1
:100330002F933F934F935F936F937F938F939F93ED
:10034000AF93BF93EF93FF93EAE7F0E0808180647F
:100350008083809178009091790080930A02809147
:100360000902823348F48F5F8093090268E072E0EB
:100370008AE092E0CEDF13C08091080290E0880FFF
:10038000991F9093290180932801809108028093FE
:10039000C60080910A028093080210920902FF9120
:1003A000EF91BF91AF919F918F917F916F915F91ED
:1003B0004F913F912F910F900BBE0F900FBE0F905A
:1003C0001F901895E1E2F1E0808184608083808154
:1003D000886080830895E3E7F0E080818260808315
:1003E00008959093C5008093C40088E08093C10075
:1003F0008EE08093C20008950F931F93CF93DF93F5
:10040000009731F46115710519F480E090E039C06E
:100410008B01EC016EE070E081E090E037D0FC01F0
:10042000892B99F380E883830115110571F01387F7
:10043000028781E8838380910D0290910E02892BBF
:1004400021F4F0930E02E0930D022097C9F0D187BA
:10045000C08783818260838380910F029091100214
:10046000892B71F4F0931002E0930F028091110236
:1004700090911202892B21F4F0931202E093110261
:10048000CF01DF91CF911F910F9108950F931F938B
:10049000CF93DF93869F8001879F100D969F100D4D
:1004A0001124C8010DD0EC01009721F0A80160E0F3
:1004B00070E033D1CE01DF91CF911F910F9108955C
:1004C000CF93DF938230910510F482E090E0E091C9
:1004D0001502F091160220E030E0C0E0D0E0309745
:1004E00011F14081518148175907C0F04817590749
:1004F00061F482819381209719F09B838A832BC0BA
:10050000909316028093150226C02115310519F02B
:100510004217530718F49A01BE01DF01EF01028070
:10052000F381E02DDCCF2115310509F1281B390BB2
:100530002430310590F412968D919C91139761159A
:10054000710521F0FB019383828304C0909316020E
:1005500080931502FD01329644C0FD01E20FF31FA6
:1005600081939193225031092D933C933AC020916D
:10057000130230911402232B41F420910202309196
:100580000302309314022093130220910002309151
:1005900001022115310541F42DB73EB74091040207
:1005A00050910502241B350BE0911302F0911402C7
:1005B000E217F307A0F42E1B3F0B2817390778F03A
:1005C000AC014E5F5F4F2417350748F04E0F5F1F99
:1005D00050931402409313028193919302C0E0E080
:1005E000F0E0CF01DF91CF9108950F931F93CF9348
:1005F000DF93009709F48CC0FC01329713821282BA
:1006000000911502109116020115110581F4208147
:100610003181820F931F2091130230911402281709
:10062000390779F5F0931402E093130271C0D801F1
:1006300040E050E0AE17BF0750F412962D913C9168
:100640001397AD012115310509F1D901F3CF9D01B2
:10065000DA013383228360817181860F971F8217AD
:10066000930769F4EC0128813981260F371F2E5F2B
:100670003F4F318320838A819B8193838283452BE3
:1006800029F4F0931602E093150242C01396FC93EE
:10069000EE931297ED01499159919E01240F351F58
:1006A000E217F30771F480819181840F951F029600
:1006B00011969C938E938281938113969C938E9333
:1006C0001297E0E0F0E0D80112968D919C9113977B
:1006D000009719F0F8018C01F6CF8D919C9198014B
:1006E0002E5F3F4F820F931F20911302309114020F
:1006F0002817390769F4309729F4109216021092DE
:10070000150202C013821282109314020093130286
:10071000DF91CF911F910F910895DC0101C06D937E
:0C07200041505040E0F70895F894FFCFDE
:08072C0000001702200001008B
:00000001FF
