:1000000071C000008EC000008CC000008AC00000DB
:1000100088C0000086C0000084C0000082C00000CC
:1000200080C000007EC000007CC000007AC00000DC
:1000300078C0000076C0000074C0000072C00000EC
:1000400070C000006EC000006CC000006AC00000FC
:1000500068C0000066C0000064C0000062C000000C
:1000600060C000005EC000005CC000005AC000001C
:1000700058C0000056C0000054C0000052C000002C
:1000800050C000004EC000004CC0000081C0000005
:1000900048C0000046C0000044C0000042C000004C
:1000A00040C000003EC000003CC000003AC000005C
:1000B00038C0000036C0000034C0000032C000006C
:1000C00030C000002EC000002CC000002AC000007C
:1000D00028C0000026C0000024C0000022C000008C
:1000E00020C0000011241FBECFEFD1E2DEBFCDBF84
:1000F00000E00CBF12E0A0E0B2E0EAEDF1E000E0C9
:100100000BBF02C007900D92A030B107D9F722E0D3
:10011000A0E0B2E001C01D92A230B207E1F724D006
:100120005AC06ECFE1E9F0E08081816080838081F8
:1001300082608083E0E9F0E0808180688083808154
:1001400080628083808188608083808181608083F9
:1001500008956D9A6C9A6B9A0895E1E7F0E08081BA
:100160008160808378940895F8DFF3DF8FE790E073
:10017000909399008093980090939B0080939A00AD
:1001800090939D0080939C00CDDF279A9D9AFFCF8E
:100190001F920F920FB60F9211248F939F9380910D
:1001A0000002909101028B30910534F401969093F6
:1001B00001028093000208C0109201021092000216
:1001C00094B380E2892784BB9F918F910F900FBEDB
:0A01D0000F901F901895F894FFCFD0
:00000001FF
