:1000000071C000008EC000008CC000008AC00000DB
:1000100088C0000086C0000084C0000082C00000CC
:1000200080C000007EC000007CC000007AC00000DC
:1000300078C0000076C0000074C0000072C00000EC
:1000400070C000003FC100006CC000006AC000002A
:1000500068C0000066C0000064C0000062C000000C
:1000600060C000005EC000005CC000005AC000001C
:1000700058C0000053C1000054C0000052C000002E
:1000800050C000004EC000004CC000004AC000003C
:1000900048C0000046C0000044C0000042C000004C
:1000A00040C000003EC000003CC000003AC000005C
:1000B00038C0000036C0000034C0000032C000006C
:1000C00030C000002EC000002CC000002AC000007C
:1000D00028C0000026C0000024C0000022C000008C
:1000E00020C0000011241FBECFEFD1E2DEBFCDBF84
:1000F00000E00CBF12E0A0E0B2E0E2EDF6E000E0CC
:100100000BBF02C007900D92A830B107D9F722E0CB
:10011000A8E0B2E001C01D92A631B207E1F7B5D068
:10012000D6C26ECFECE7F0E08081806480838FECF4
:1001300080937A0083E080937B000895249A259A27
:10014000269AE1E0F1E08081806180838081806295
:1001500080838081806480830895FC019081933046
:1001600091F028F4913049F0923051F00895953093
:1001700081F060F0963081F0089582E080830895E8
:1001800083E08083089584E08083089585E0808300
:10019000089586E08083089581E080830895FC01BE
:1001A0008081833049F128F4813051F08230B1F000
:1001B00008958530E9F170F1863009F447C008955B
:1001C0002D9A2E98E2E0F1E080818F7E80838081FD
:1001D0008062808380818064808308952C9A2E9829
:1001E000E2E0F1E080818061808380818F7D808387
:1001F00080818064808308952C9A2D98E2E0F1E05C
:1002000080818061808380818062808380818F7B18
:10021000808308952D982E9AE2E0F1E080818F7E10
:100220008083808180628083808180648083089560
:100230002C982E9AE2E0F1E08081806180838081B9
:100240008F7D808380818064808308952C982D9A8F
:10025000E2E0F1E080818061808380818062808340
:1002600080818F7B80830895CF93C82F8A3011F4CB
:100270008DE0FADFE0ECF0E0908195FFFDCFC093D8
:10028000C60080E090E0CF91089560E070E084E3E4
:1002900091E085D090930B0280930A0282E390E074
:1002A00090938900809388003DDF87E690E06CD0D2
:1002B0005CD064D043DF7894EAE7F0E0808180642A
:1002C0008083FFCF1F920F920FB60F9211240BB6AF
:1002D0000F922F933F934F935F936F937F938F93DF
:1002E0009F93AF93BF93EF93FF9386E092E057DF26
:1002F00086E092E032DFFF91EF91BF91AF919F9145
:100300008F917F916F915F914F913F912F910F90BE
:100310000BBE0F900FBE0F901F9018951F920F925B
:100320000FB60F9211240BB60F928F939F93EF93FA
:10033000FF938091780090917900909309028093C7
:1003400008029093890080938800EAE7F0E08081BA
:1003500080648083FF91EF919F918F910F900BBEEE
:100360000F900FBE0F901F901895E1E8F0E080818C
:10037000846080838081886080830895EFE6F0E068
:1003800080818260808308959093C5008093C4002B
:1003900088E08093C1008EE08093C20008950F939F
:1003A0001F93CF93DF93009731F46115710519F412
:1003B00080E090E039C08B01EC016EE070E081E0FC
:1003C00090E037D0FC01892B99F380E883830115F5
:1003D000110571F01387028781E8838380910C02F5
:1003E00090910D02892B21F4F0930D02E0930C0201
:1003F0002097C9F0D187C0878381826083838091F1
:100400000E0290910F02892B71F4F0930F02E0938A
:100410000E028091100290911102892B21F4F09329
:100420001102E0931002CF01DF91CF911F910F9144
:1004300008950F931F93CF93DF93869F8001879F2B
:10044000100D969F100D1124C8010DD0EC010097DE
:1004500021F0A80160E070E033D1CE01DF91CF91AF
:100460001F910F910895CF93DF938230910510F47F
:1004700082E090E0E0911402F091150220E030E07B
:10048000C0E0D0E0309711F1408151814817590701
:10049000C0F04817590761F482819381209719F0C1
:1004A0009B838A832BC0909315028093140226C0ED
:1004B0002115310519F04217530718F49A01BE01AE
:1004C000DF01EF010280F381E02DDCCF2115310542
:1004D00009F1281B390B2430310590F412968D91C7
:1004E0009C9113976115710521F0FB019383828321
:1004F00004C09093150280931402FD01329644C00B
:10050000FD01E20FF31F81939193225031092D9346
:100510003C933AC02091120230911302232B41F4F4
:1005200020910202309103023093130220931202B1
:1005300020910002309101022115310541F42DB7BF
:100540003EB74091040250910502241B350BE09107
:100550001202F0911302E217F307A0F42E1B3F0BD7
:100560002817390778F0AC014E5F5F4F2417350725
:1005700048F04E0F5F1F5093130240931202819375
:10058000919302C0E0E0F0E0CF01DF91CF910895B8
:100590000F931F93CF93DF93009709F48CC0FC0156
:1005A00032971382128200911402109115020115E4
:1005B000110581F420813181820F931F2091120255
:1005C000309113022817390779F5F0931302E0935D
:1005D000120271C0D80140E050E0AE17BF0750F4DE
:1005E00012962D913C911397AD012115310509F11A
:1005F000D901F3CF9D01DA013383228360817181B8
:10060000860F971F8217930769F4EC0128813981BF
:10061000260F371F2E5F3F4F318320838A819B81B6
:1006200093838283452B29F4F0931502E0931402FF
:1006300042C01396FC93EE931297ED0149915991A4
:100640009E01240F351FE217F30771F48081918119
:10065000840F951F029611969C938E9382819381AD
:1006600013969C938E931297E0E0F0E0D8011296D7
:100670008D919C911397009719F0F8018C01F6CF9A
:100680008D919C9198012E5F3F4F820F931F209177
:100690001202309113022817390769F4309729F4B0
:1006A000109215021092140202C01382128210934B
:1006B000130200931202DF91CF911F910F910895C1
:1006C000DC0101C06D9341505040E0F70895F8946B
:0206D000FFCF5A
:0806D2000000160220000100E7
:00000001FF
