:1000000071C000008EC000008CC000008AC00000DB
:1000100088C0000086C0000084C0000082C00000CC
:1000200080C000007EC000007CC000007AC00000DC
:1000300078C0000076C0000074C0000072C00000EC
:1000400070C000006EC000006CC000006AC00000FC
:1000500068C0000066C0000064C0000062C000000C
:1000600060C000005EC000005CC00000AAC00000CC
:1000700058C0000056C0000054C0000052C000002C
:1000800050C000004EC000004CC0000070C1000015
:1000900048C0000046C0000044C0000042C000004C
:1000A00040C000003EC000003CC000003AC000005C
:1000B00038C0000036C0000034C0000032C000006C
:1000C00030C000002EC000002CC000002AC000007C
:1000D00028C0000026C0000024C0000022C000008C
:1000E00020C0000011241FBECFEFD1E2DEBFCDBF84
:1000F00000E00CBF12E0A0E0B2E0ECE3F4E000E0CE
:100100000BBF02C007900D92A230B107D9F722E0D1
:10011000A2E0B2E001C01D92A230B207E1F736D0F2
:100120008BC16ECFECE7F0E08081806480838FEC40
:1001300080937A0010927B008EEF80937E008FEF89
:1001400080937D000895E1E9F0E080818160808303
:10015000808182608083E0E9F0E08081816080833B
:100160000895249A259A269AE1E0F1E08081806141
:100170008083808180628083808180648083089511
:10018000E1E7F0E08081816080830895CBDF87E63E
:1001900090E014D1F5DFE5DF8FE790E090939900D0
:1001A0008093980090939B0080939A0090939D0079
:1001B00080939C00C8DF279A9D9A1092C60078947D
:1001C000FFCF1F920F920FB60F9211240BB60F9212
:1001D000EF92FF920F931F932F933F934F935F9351
:1001E0006F937F938F939F93AF93BF93EF93FF93FF
:1001F000CF93DF931F92CDB7DEB701E410E00F2E4F
:10020000F6ECEF2EF12CF02D4AE0BE016F5F7F4F30
:10021000C801DFD08981F70180830F5F1F4F06344B
:10022000110591F7FFEF23ED80E3F150204080406E
:10023000E1F700C000000F90DF91CF91FF91EF91A7
:10024000BF91AF919F918F917F916F915F914F91EE
:100250003F912F911F910F91FF90EF900F900BBE48
:100260000F900FBE0F901F90189580910002833061
:10027000A1F128F4813059F08230E1F00895853001
:1002800009F451C0E8F1863009F460C008952D9A50
:100290002E98E2E0F1E080818F7E80838081806211
:1002A0008083808180648083809100028F5F80934F
:1002B000000208952C9A2E98E2E0F1E0808180619E
:1002C000808380818F7D8083808180648083809122
:1002D00000028F5F8093000208952C9A2D98E2E02F
:1002E000F1E0808180618083808180628083808171
:1002F0008F7B8083809100028F5F8093000208953E
:100300002D982E9AE2E0F1E080818F7E80838081BB
:1003100080628083808180648083809100028F5F0F
:100320008093000208952C982E9AE2E0F1E08081FB
:100330008061808380818F7D8083808180648083E1
:10034000809100028F5F8093000208952C982D9A6F
:10035000E2E0F1E08081806180838081806280833F
:1003600080818F7B808381E08093000208951F92BB
:100370000F920FB60F9211240BB60F922F933F934B
:100380004F935F936F937F938F939F93AF93BF939D
:10039000EF93FF936ADFFF91EF91BF91AF919F9130
:1003A0008F917F916F915F914F913F912F910F901E
:1003B0000BBE0F900FBE0F901F9018959093C50025
:1003C0008093C40088E48093C1008EE08093C200D3
:1003D0000895BB274A3031F4992322F4BDE2909569
:1003E00081959F4F01C0BB27FB015527AA27880F86
:1003F000991FAA1FA41710F0A41B83955051B9F799
:10040000A05DAA3308F0A95DA193009779F7B11117
:10041000B1931192CB0100C0DC01FC01672F7191F7
:100420007723E1F7329704C07C916D9370836291DA
:0C043000AE17BF07C8F30895F894FFCF83
:02043C000100BD
:00000001FF
