:10000000B5C00000D3C00000D1C00000CFC00000C8
:10001000CDC00000CBC00000C9C00000C7C00000B8
:10002000C5C00000C3C00000C1C00000BFC00000C8
:10003000BDC00000BBC00000B9C00000B7C00000D8
:10004000B5C00000B3C00000B1C00000AFC00000E8
:10005000ADC00000ABC00000A9C00000A0C60000F9
:10006000A5C00000A3C00000A1C000009FC0000008
:100070009DC000009BC0000099C0000097C0000018
:1000800095C0000093C0000091C000008FC0000028
:100090008DC000008BC0000089C0000087C0000038
:1000A00085C0000083C0000081C000007FC0000048
:1000B0007DC000007BC0000079C00000BAC600000F
:1000C00075C0000073C0000071C000006FC0000068
:1000D0006DC000006BC0000069C0000067C0000078
:1000E00065C00000036EDB363D9A9999993DABAA35
:1000F000AA2A3E000000803F084AD73B3BCE016E53
:1001000084BCBFFDC12F3D6C74319ABD56833DDA6E
:100110003D00C77F11BED9E4BB4C3E916BAAAABE7D
:10012000000000803F072C7AA5BA6CC590DA3B939B
:1001300065FC8BBC53F810FD3C5692834DBD879DEA
:100140003AB63DCBC9BF5BBE73DA0FC93F05A84CB9
:10015000CDB2D44EB93836A9020C50B99186880870
:100160003CA6AAAA2ABE000000803F0011241FBEA0
:10017000CFEFD1E2DEBFCDBF00E00CBF13E0A0E0C7
:10018000B2E0E8ECF1E200E00BBF02C007900D9294
:10019000AC37B107D9F723E0ACE7B3E001C01D925B
:1001A000AF3CB207E1F76CD20C94E21029CFE1E04A
:1001B000F1E080818860808380818061808380819C
:1001C000806280830895E0917C03F0917D03EA5F73
:1001D000FD4F808190E09093A9008093A800E0916A
:1001E0007103F0917203EA5FFD4F808190E090937C
:1001F000AB008093AA00E0916F03F0917003EA5F77
:10020000FD4F808190E09093AD008093AC006091B1
:100210008B0370918C0340917C0350917D03460FBA
:10022000571F50937D0340937C03209171033091BD
:100230007203260F371F309372032093710380914E
:100240006F0390917003860F971F909370038093B4
:100250006F03493661E056072CF010927D0310922F
:100260007C0308C0552334F448E651E050937D03E5
:1002700040937C03293641E034072CF0109272033E
:100280001092710308C0332334F428E631E0309330
:10029000720320937103893661E096072CF0109267
:1002A000700310926F0308C0992334F488E691E03C
:1002B0009093700380936F038091870390918803DC
:1002C000909329018093280108954F925F926F9235
:1002D0007F928F929F92AF92BF92CF92DF92EF92D6
:1002E000FF920F931F93CF93DF93CDB7DEB76C9739
:1002F0000FB6F894DEBF0FBECDBF698B7A8B8B8BA8
:100300009C8BCA01B901E982FA820B831C83C090DD
:100310009903D0909A03E0909B03F0909C03A7016F
:100320009601F2D6609391037093920380939303A6
:100330009093940329813A814B815C810E940D0B3B
:100340002091A1033091A2034091A3035091A403F3
:10035000DCD66D8B7E8B8F8B988F8090B1039090C5
:10036000B203A090B303B090B403A50194016981D6
:100370007A818B819C810E940D0B6D837E838F839C
:1003800098874090A9035090AA036090AB037090A7
:10039000AC038091AD039091AE03A091AF03B091F7
:1003A000B0038D879E87AF87B88BA30192016D81C3
:1003B0007E818F819885A8D62D853E854F85588969
:1003C000A3D62091950330919603409197035091C5
:1003D00098039BD629813A814B815C810E940D0B49
:1003E000A5EAB3E02D913D914D915C918ED6698740
:1003F0007A878B879C872D813E814F815885C301E9
:10040000B20182D62B013C012D813E814F8158855E
:100410006D857E858F85988977D66D877E878F8756
:10042000988B20918D0330918E0340918F035091D2
:10043000900369817A818B819C810E940D0BA501BB
:10044000940163D6698F7A8F8B8F9C8F20919D0347
:1004500030919E0340919F035091A00369857A8556
:100460008B859C8552D64B015C019B01AC01698553
:100470007A858B859C852AD769837A838B839C8335
:10048000A50194016D857E858F8598891FD76D8321
:100490007E838F8398872D893E894F89588D6989FE
:1004A0007A898B899C8930D6698B7A8B8B8B9C8BD4
:1004B0009B01AC0169817A818B819C810E940D0B2B
:1004C0002D893E894F89588D20D64B015C01609360
:1004D000A1037093A2038093A3039093A40329899B
:1004E0003A894B895C896D817E818F8198850E94D4
:1004F0000D0BA701960109D66093990370939A0397
:1005000080939B0390939C0329813A814B815C816A
:1005100069857A858B859C850E940D0B9B01AC01BA
:1005200069857A858B859C85EFD5E5EAF3E0608364
:1005300071838283938329813A814B815C81C301DA
:10054000B2010E940D0B9B01AC01C301B201DCD5CD
:100550006093A9037093AA038093AB039093AC03B9
:100560002D813E814F81588569857A858B859C8553
:100570000E940D0B9B01AC016D857E858F8598894E
:10058000C3D56093AD037093AE038093AF03909394
:10059000B0032D813E814F815885C301B2010E9475
:1005A0000D0B9B01AC01698D7A8D8B8D9C8DACD52B
:1005B0006093B1037093B2038093B3039093B40339
:1005C000C501B4016C960FB6F894DEBF0FBECDBF67
:1005D000DF91CF911F910F91FF90EF90DF90CF901F
:1005E000BF90AF909F908F907F906F905F904F9053
:1005F00008958FE692E1A3E8BAE380939503909380
:100600009603A0939703B093980386EA9BE9A4E42A
:10061000BBE380938D0390938E03A0938F03B093DD
:1006200090038FE892ECA5EFBCE380939D03909339
:100630009E03A0939F03B093A0031092A103109276
:10064000A2031092A3031092A40310929903109294
:100650009A0310929B0310929C03E5EAF3E0108248
:1006600011821282138214821582168217821086DA
:1006700011861286138614861586168617860895A7
:10068000CF93DF93CDB7DEB7A8970FB6F894DEBF50
:100690000FBECDBF10927D0310927C0388E790E0DF
:1006A000909372038093710380EF90E090937003B6
:1006B00080936F038FEF9FEF90938C0380938B0356
:1006C00080ED97E09093880380938703F8946FDD23
:1006D000D7D380E190E085D460E070E081E298E0DB
:1006E0000E94530C9093B6038093B50325D32BD36C
:1006F00000D313D31BD380EA9FE09093290180930A
:10070000280127D32B013C0167E089E131D260E069
:100710008AE12ED268E08BE12BD260E18CE128D215
:1007200061E08BE625D265DF6B857C85072E000CAA
:10073000880B990B66D66B017C0169857A85072E3B
:10074000000C880B990B5DD6A701960168D525E3AF
:100750003AEF4EE85CE361D76093A1037093A20384
:100760008093A3039093A4037894198A1A8A1B8A0E
:100770001C8A198E1A8E1B8E1C8E0F2EFFED2F2EAB
:10078000FFE73F2EF02D80EC9CEEA8E0B2E48D87D1
:100790009E87AF87B88BCE010D9680D4DE0115966B
:1007A0007D018E010D5F1F4F9E012F5F3F4FAE01F8
:1007B000455F5F4FBE01675F7F4FCE0107962ED228
:1007C0008F819885865D9E4F98878F8389859A85CE
:1007D0008252954F9A8789878B859C85865598404C
:1007E0009C878B8789819A8189589F4F9A838983B7
:1007F0008B819C818C519F4F9C838B838D819E81AB
:100800008C519F4F9E838D83A4D2641975098609EC
:100810009709F5D520E034E244E759E457D56D8FC8
:100820007E8F8F8F98A395D22B013C016B817C81A9
:10083000072E000C880B990BE4D520E030E043E84C
:1008400052E444D56DA37EA38FA398A78091730330
:1008500090917403892B89F569817A81072E000CA8
:10086000880B990BCED520E030E043E852E42ED53A
:100870002D8D3E8D4F8D58A1D0D69B01AC01698D39
:100880007A8D8B8D9C8D41D4698F7A8F8B8F9C8FC5
:100890002DA13EA14FA158A56D8D7E8D8F8D98A164
:1008A000BCD69B01AC0169897A898B899C892DD43E
:1008B000698B7A8B8B8B9C8B04C010927403109283
:1008C000730320E030E043E852E46D8D7E8D8F8D20
:1008D00098A1FCD42BED3FE049E450E49ED620E003
:1008E00030E044E353E4F2D46B017C016D817E81FE
:1008F000072E000C880B990B84D59B01AC01C70116
:10090000B6018BD6EDD66B017C019B01AC016989E8
:100910007A898B899C8981D69B01AC01698D7A8DFE
:100920008B8D9C8DF2D3698F7A8F8B8F9C8F9B01DF
:10093000AC01C701B60171D69B01AC0169897A8906
:100940008B899C89E1D3698B7A8B8B8B9C8B0F81F4
:100950001885C80164E670E05CD7072E000C880B90
:10096000990B4FD54B015C0189859A8564E670E04F
:1009700050D7072E000C880B990B43D56D8B7E8BBF
:100980008F8B988F8B859C8564E670E042D7072E0D
:10099000000C880B990B35D56B017C01A5019401E6
:1009A000C501B4013AD669A37AA38BA39CA32D8970
:1009B0003E894F89588DCA01B9012FD69B01AC01E0
:1009C00069A17AA18BA19CA1A0D369A37AA38BA3CF
:1009D0009CA3A5019401C501B4011FD64B015C0184
:1009E0002D893E894F89588DCA01B90116D69B01C0
:1009F000AC01C501B40189D34B015C01A70196018B
:100A0000C701B6010AD69B01AC01C501B4017DD373
:100A100071D64B015C01B801110F880B990BF1D411
:100A20006B017C0120E030E048EC52E4C501B401E8
:100A3000F4D59B01AC01C701B60148D4CAD34B0120
:100A40005C01ED8CFE8C0F8D18A12DA13EA14FA154
:100A500058A569897A898B899C8937DC9FD46B0179
:100A60007C0187E793E0FED269897A898B899C892A
:100A700095D487E793E0F6D22BE13FE245E652ECCE
:100A8000C501B401CAD52FE632E143E85BE3C5D521
:100A90004B015C012BED39EF4EE75FE369897A8901
:100AA0008B899C89BAD59B01AC01C501B4012DD3BA
:100AB0004B015C0173D487E793E0D4D28AE090E0E5
:100AC0004FD7C601992324F4882799278C199D09AB
:100AD000BC0144EF51E0849F9001859F300D949FAD
:100AE000300D1124C101821B930B813D57E0950706
:100AF00020F09093880380938703072E000C880BC7
:100B0000990B7FD42DEC3CEC4CE45FE3DBD318165F
:100B10004CF420E030E044EB52E4C501B40172D55E
:100B200018162CF410928C0310928B032CCE2DEC03
:100B30003CEC4CE45FE3C501B40164D5181664F4E1
:100B4000F89481E090E090938C0380938B0380E293
:100B500090E006D7789417CEF894AFEFBFEFB0933C
:100B60008C03A0938B0380E290E0FAD678940BCEAE
:100B7000CF93DF93D82FC62F80ED88D18D2FDCD176
:100B80008C2FDAD1C9D1DF91CF910895AF92BF9266
:100B9000CF92DF92FF920F931F93CF93DF93662341
:100BA00089F1C52FD42FF62E182F80ED6FD1812F0C
:100BB000C3D185E38A95F1F7000081ED67D10D2F50
:100BC0001C2FCC24CA94CF0CD12CEFEFCE1ADE0A06
:100BD000C0E0D0E0AF2CB12CF1E0AF1AB108AC16F8
:100BE000BD0621F4E4D1F801808303C0C6D1F80129
:100BF000808321960F5F1F4FCC15DD0581F7CF2D28
:100C00008BD101C0C0E08C2FDF91CF911F910F914C
:100C1000FF90DF90CF90BF90AF9008956F927F923A
:100C20008F929F92AF92BF92CF92DF92EF92FF92FC
:100C30000F931F93CF93DF93CDB7DEB72E970FB6E9
:100C4000F894DEBF0FBECDBF4C015B016A013901D4
:100C5000AE014F5F5F4F6EE08BE398DF898190E0DC
:100C6000982F88272A81822BF401918380838B819E
:100C700090E0982F88272C81822BF5019183808327
:100C80008D8190E0982F88272E81822BF601918309
:100C90008083898590E0982F88272A85822BF3010D
:100CA000918380838B8590E0982F88272C85822BD9
:100CB000F801918380838D8590E0982F88272E8579
:100CC000822BF701918380832E960FB6F894DEBFB6
:100CD0000FBECDBFDF91CF911F910F91FF90EF908D
:100CE000DF90CF90BF90AF909F908F907F906F904C
:100CF0000895E1EAF0E0808181608083E0EAF0E03D
:100D0000808181608083808180688083808180622F
:100D100080838081886080830895E1E2F1E08081B2
:100D2000816080838081886080830895E3E7F0E0BC
:100D3000808182608083089585B5816085BD85B599
:100D4000826085BD0895EEE6F0E080818160808359
:100D500008953FB7F8948091830390918403A09104
:100D60008503B091860326B5A89B05C02F3F19F0D7
:100D70000196A11DB11D3FBFBA2FA92F982F88271B
:100D8000820F911DA11DB11DBC01CD01660F771F02
:100D9000881F991F660F771F881F991F08951F923C
:100DA0000F920FB60F9211242F933F938F939F931F
:100DB000AF93BF9380917F0390918003A0918103B3
:100DC000B091820330917E0323E0230F2D3720F46E
:100DD0000196A11DB11D05C026E8230F0296A11D95
:100DE000B11D20937E0380937F0390938003A09393
:100DF0008103B09382038091830390918403A09137
:100E00008503B09186030196A11DB11D80938303D4
:100E100090938403A0938503B0938603BF91AF9111
:100E20009F918F913F912F910F900FBE0F901F9028
:100E300018951F920F920FB60F9211240BB60F92B6
:100E40002F933F934F935F936F937F938F939F93D2
:100E5000AF93BF93EF93FF93B6D9FF91EF91BF91FB
:100E6000AF919F918F917F916F915F914F913F9142
:100E70002F910F900BBE0F900FBE0F901F901895E3
:100E80001092B9008CE08093B800089594EA909392
:100E9000BC004FEF50E060E070E0ECEBF0E09081E0
:100EA000992334F04150510961097109C0F704C018
:100EB000452B462B472B41F19091B900987F9830F4
:100EC00011F0903119F58093BB0084E88093BC0049
:100ED0008FEF90E0A0E0B0E0ECEBF0E02081222387
:100EE0002CF00197A109B109C8F704C0892B8A2BFE
:100EF0008B2B71F09091B900987F983159F081E077
:100F0000903449F480E0089581E0089581E00895E7
:100F100081E0089580E0089584E98093BC0080E03A
:100F200090E0ECEBF0E0208124FF05C001968115F4
:100F300021E09207C1F708958093BB0084E8809375
:100F4000BC008FEF90E0A0E0B0E0ECEBF0E020819F
:100F500022232CF00197A109B109C8F704C0892BFD
:100F60008A2B8B2B41F09091B900987F81E09832C9
:100F700019F480E0089581E0089584EC8093BC002A
:100F80008FEF90E0A0E0B0E0ECEBF0E020812223D6
:100F90002CF00197A109B109C8F704C0892B8A2B4D
:100FA0008B2B19F08091BB00089580E0089584E8B0
:100FB0008093BC008FEF90E0A0E0B0E0ECEBF0E0BD
:100FC000208122232CF00197A109B109C8F704C0A0
:100FD000892B8A2B8B2B19F08091BB00089580E020
:100FE00008959093C5008093C40088E08093C10069
:100FF0008EE08093C20008950F931F93CF93DF93E9
:10100000CDB7DEB72A970FB6F894DEBF0FBECDBFBF
:101010004AE08E010F5F1F4FB801FC018081918172
:101020001FD41F930F9389D40F900F902A960FB659
:10103000F894DEBF0FBECDBFDF91CF911F910F910E
:101040000895CF93C82F8A3011F48DE0FADFE0ECD9
:10105000F0E0808185FFFDCFC093C60080E090E086
:10106000CF910895CF93DF931F921F92CDB7DEB734
:101070007A8369839F938F9360D4CE010196BCDFFE
:1010800085E793E09F938F9358D40F900F900F9024
:101090000F900F900F90DF91CF9108950F931F93B2
:1010A000CF93DF93CDB7DEB764970FB6F894DEBF6A
:1010B0000FBECDBF8E010F5F1F4F84E1F80111926B
:1010C0008A95E9F782E48F9384EB8F9386E78F9379
:1010D00080E68F9388E793E09F938F931F930F93FE
:1010E00044D41F930F9329D40FB6F894DEBF0FBEDC
:1010F000CDBF64960FB6F894DEBF0FBECDBFDF91B3
:10110000CF911F910F9108955058BB27AA270ED059
:101110003FC230D230F035D220F031F49F3F11F48D
:101120001EF4EFC10EF4E095E7FBE5C1E92F41D2D3
:1011300080F3BA17620773078407950718F071F4F4
:101140009EF559C20EF4E0950B2EBA2FA02D0B017F
:10115000B90190010C01CA01A0011124FF27591BFC
:1011600099F0593F50F4503E68F11A16F040A22F02
:10117000232F342F4427585FF3CF46953795279573
:10118000A795F0405395C9F77EF41F16BA0B620B72
:10119000730B840BBAF09150A1F0FF0FBB1F661FB9
:1011A000771F881FC2F70EC0BA0F621F731F841FFC
:1011B00048F4879577956795B795F7959E3F08F022
:1011C000B3CF9395880F08F09927EE0F97958795E1
:1011D00008959F939F77EEE389379E0720F4E4EE0E
:1011E000F0E0B7D109C048D19058A2EA2AED3FE01B
:1011F00049EC5FE39BDFCCD10F9007FC905808953A
:10120000B9D158F080E891E009F49EEFBAD128F006
:1012100040E851E059F45EEF09C073C1ECC1E92F19
:10122000E078C7D168F3092E052AC1F326173707DE
:101230004807590738F00E2E07F8E02569F0E02539
:10124000E0640AC0EF6307F8009407FADB01B90114
:101250009D01DC01CA01AD01EF9347D099D10AD0BD
:101260005F91552331F02BED3FE049E450FD49EC0F
:101270004CCF0895DF93DD27B92FBF7740E85FE3B8
:101280001616170648075B0710F4D92FBFD19F9396
:101290008F937F936F936CD2E8EFF0E035D178D1E4
:1012A0002F913F914F915F91C4D1DD2349F0905828
:1012B000A2EA2AED3FE049EC5FE3D0785D2736DF14
:1012C000DF9166C1F4D008F481E008950CD060C1CC
:1012D00058D140F04FD130F021F45F3F19F00BC1ED
:1012E00051118AC10EC165D198F39923C9F35523D1
:1012F000B1F3951B550BBB27AA2762177307840709
:1013000038F09F5F5F4F220F331F441FAA1FA9F3BE
:1013100033D00E2E3AF0E0E830D091505040E695B0
:10132000001CCAF729D0FE2F27D0660F771F881F11
:10133000BB1F261737074807AB07B0E809F0BB0B00
:10134000802DBF01FF2793585F4F2AF09E3F510524
:1013500068F0D1C051C15F3FECF3983EDCF3869555
:1013600077956795B795F7959F5FC9F7880F911D9A
:101370009695879597F90895E1E0660F771F881F86
:10138000BB1F621773078407BA0720F0621B730B39
:10139000840BBA0BEE1F88F7E095089504D068948B
:1013A000B1112AC108950DD188F09F5790F0B92F3F
:1013B0009927B751A0F0D1F0660F771F881F991FAA
:1013C0001AF0BA95C9F712C0B13081F014D1B1E06A
:1013D000089511C1672F782F8827B85F39F0B93F7A
:1013E000CCF3869577956795B395D9F73EF49095AC
:1013F0008095709561957F4F8F4F9F4F0895E8942A
:1014000009C097FB3EF490958095709561957F4F4C
:101410008F4F9F4F9923A9F0F92F96E9BB279395FA
:10142000F695879577956795B795F111F8CFFAF40A
:10143000BB0F11F460FF1BC06F5F7F4F8F4F9F4F3B
:1014400016C0882311F096E911C0772321F09EE899
:10145000872F762F05C0662371F096E8862F70E0FF
:1014600060E02AF09A95660F771F881FDAF7880FD9
:101470009695879597F90895DF93CF931F930F93D0
:101480008B01EC01E5E2F1E03FD082D09801AE01A2
:101490008B01EC0160E070E080E89FE335DE2AD14B
:1014A0009801AE010F911F91CF91DF91C2C0990FAA
:1014B0000008550FAA0BE0E8FEEF16161706E8071E
:1014C000F907C0F012161306E407F50798F0621B3F
:1014D000730B840B950B39F40A2661F0232B242B14
:1014E000252B21F408950A2609F4A140A6958FEF33
:1014F000811D811D089597F99F6780E870E060E085
:1015000008959FEF80EC0895DF93CF931F930F937F
:10151000FF92EF92DF927B018C01689405C0DA2E76
:10152000EF0187D0FE01E894A59125913591459171
:101530005591AEF3EF01FADDFE019701A801DA94AF
:1015400079F7DF90EF90FF900F911F91CF91DF918E
:1015500008959F938F937F936F93FF93EF939B01D6
:10156000AC015BD0EF91FF91CFDF2F913F914F9175
:101570005F9153C000240A94161617061806090630
:10158000089500240A9412161306140605060895F9
:10159000092E0394000C11F4882352F0BB0F40F481
:1015A000BF2B11F460FF04C06F5F7F4F8F4F9F4FC1
:1015B000089557FD9058440F551F59F05F3F71F043
:1015C0004795880F97FB991F61F09F3F79F08795AA
:1015D0000895121613061406551FF2CF4695F1DF33
:1015E00008C0161617061806991FF1CF86957105C3
:1015F000610508940895E894BB2766277727CB01F7
:1016000097F9089554DF08F48FEF08959B01AC011A
:1016100060E070E080E89FE359CE0BD0B9CFAADF3D
:1016200028F0AFDF18F0952309F065CF6ACF1124B9
:10163000E3CFBFDFA0F3959FD1F3950F50E0551F87
:10164000629FF001729FBB27F00DB11D639FAA2717
:10165000F00DB11DAA1F649F6627B00DA11D661F66
:10166000829F2227B00DA11D621F739FB00DA11D87
:10167000621F839FA00D611D221F749F3327A00D41
:10168000611D231F849F600D211D822F762F6A2FDD
:1016900011249F5750408AF0E1F088234AF0EE0F62
:1016A000FF1FBB1F661F771F881F91505040A9F76F
:1016B0009E3F510570F01FCF9FCF5F3FECF3983EE8
:1016C000DCF3869577956795B795F795E7959F5FD6
:1016D000C1F7FE2B880F911D9695879597F9089570
:1016E0009F935FD00F9007FCEE5F82C011F40EF461
:1016F00008CF41C066DFD0F39923D9F3CEF39F57CB
:10170000550B87FF46D00024A0E640EA90018058A0
:101710005695979528F4805C660F771F881F20F0F8
:1017200026173707480730F4621B730B840B2029F8
:1017300031294A2BA69517940794202531254A274D
:1017400058F7660F771F881F20F0261737074807BE
:1017500030F4620B730B840B200D311D411DA095DD
:1017600081F7B901842F9158880F96958795089530
:101770009B01AC0152CF9F3F31F0915020F48795EF
:1017800077956795B795880F911D9695879597F9E9
:10179000089591505040660F771F881FD2F7089523
:1017A000B0CE0FDFE8F3E894E0E0BB279F57F0F0FE
:1017B0002AED3FE049EC06C0EE0FBB0F661F771F16
:1017C000881F28F0B23A62077307840728F0B25ADC
:1017D000620B730B840BE3959A9572F7803830F4A3
:1017E0009A95BB0F661F771F881FD2F79048C5CF09
:1017F000EF93E0FF06C0A2EA2AED3FE049EC5FEB81
:1018000095DCC6DE0F90039401FC9058EDE4F1E006
:10181000A0CE97FB072E16F4009406D077FD08D0D3
:101820000BD007FC05D03EF4909581959F4F08950D
:10183000709561957F4F0895AA1BBB1B51E107C0AE
:10184000AA1FBB1FA617B70710F0A61BB70B881F50
:10185000991F5A95A9F780959095BC01CD010895DF
:10186000BB274A3031F4992322F4BDE2909581954B
:101870009F4F01C0BB27FB015527AA27880F991F3F
:10188000AA1FA41710F0A41B83955051B9F7A05DAF
:10189000AA3308F0A95DA193009779F7B111B1932C
:1018A0001192CB01E5C30F931F93CF93DF93009762
:1018B00031F46115710519F480E090E039C08B01B5
:1018C000EC016EE070E081E090E07AD2FC01892BBF
:1018D00099F380E883830115110571F0138702875E
:1018E00081E883838091C5039091C603892B21F4FD
:1018F000F093C603E093C5032097C9F0D187C08752
:101900008381826083838091C7039091C803892B70
:1019100071F4F093C803E093C7038091C9039091D9
:10192000CA03892B21F4F093CA03E093C903CF01C2
:10193000DF91CF911F910F910895CF93DF93CDB792
:10194000DEB7AE014A5F5F4FFA0161917191AF015D
:101950008091C7039091C80336D0DF91CF9108954D
:101960006091C7037091C80393C30F931F93CF93E4
:10197000DF93CDB7DEB72E970FB6F894DEBF0FBE5C
:10198000CDBF0E891F8986E08C831A8309838FEF70
:101990009FE79E838D83AE01465E5F4F688D798D94
:1019A000CE01019610D0EF81F885E00FF11F108273
:1019B0002E960FB6F894DEBF0FBECDBFDF91CF914C
:1019C0001F910F9108952F923F924F925F926F92C5
:1019D0007F928F929F92AF92BF92CF92DF92EF92BF
:1019E000FF920F931F93CF93DF93CDB7DEB72B9763
:1019F0000FB6F894DEBF0FBECDBF6C017B018A012C
:101A0000FC0117821682838181FFBFC1CE0101963E
:101A10003C01F6019381F70193FD859193FF81913C
:101A20007F01882309F4ADC1853239F493FD859196
:101A300093FF81917F01853221F4B60190E028D394
:101A4000E8CF912C212C312CFFE1F315D8F08B320B
:101A500079F038F4803279F08332A1F4232D2061BB
:101A60001DC08D3261F0803369F4232D216016C0D2
:101A7000832D8260382EE32DE4603E2E2AC0F32DA4
:101A8000F8601DC037FC2DC020ED280F2A3040F033
:101A90008E32B9F436FC75C1232D2064322E19C064
:101AA00036FE06C08AE0989E200D1124922E11C0A9
:101AB000EAE02E9E200D1124222EF32DF0623F2EFF
:101AC00008C08C3621F4832D8068382E02C08836F9
:101AD00041F4F70193FD859193FF81917F0181117D
:101AE000B3CF982F9F7D9554933028F40C5F1F4FF0
:101AF0009FE399830DC0833631F0833771F08335CE
:101B000009F055C020C0F801808189830E5F1F4F06
:101B100088248394912C530112C02801F2E04F0EC7
:101B2000511CF801A080B18036FE03C0692D70E021
:101B300002C06FEF7FEFC50190D24C018201F32DFF
:101B4000FF773F2E15C0280122E0420E511CF801FC
:101B5000A080B18036FE03C0692D70E002C06FEF37
:101B60007FEFC50168D24C01F32DF0683F2E820152
:101B700033FC19C0822D90E088169906A0F4B601B6
:101B800080E290E085D22A94F5CFF50137FC85916B
:101B900037FE81915F01B60190E07AD221102A943C
:101BA00021E0821A91088114910479F7E1C084360A
:101BB00011F0893639F5F80137FE07C0608171816F
:101BC000828193810C5F1F4F08C060817181072E55
:101BD000000C880B990B0E5F1F4FF32DFF763F2EE5
:101BE00097FF09C090958095709561957F4F8F4FB5
:101BF0009F4FF0683F2E2AE030E0A30185D2882E67
:101C0000861844C0853731F4232D2F7EB22E2AE06A
:101C100030E025C0932D997FB92E8F36C1F018F48E
:101C2000883579F0AEC0803719F0883721F0A9C027
:101C3000E92FE061BE2EB4FE0DC0FB2DF460BF2E77
:101C400009C034FE0AC0292F2660B22E06C028E043
:101C500030E005C020E130E002C020E132E0F801D0
:101C6000B7FE07C060817181828193810C5F1F4F35
:101C700006C06081718180E090E00E5F1F4FA3017C
:101C800043D2882E8618FB2DFF773F2E36FE0DC0DF
:101C9000232D2E7FA22E891458F434FE0BC032FC63
:101CA00009C0832D8E7EA82E05C0B82CA32C03C09E
:101CB000B82C01C0B92CA4FE0FC0FE01E80DF11D27
:101CC0008081803321F49A2D997EA92E09C0A2FE2D
:101CD00006C0B394B39404C08A2D867809F0B394F7
:101CE000A3FC10C0A0FE06C0B21480F4280C922CF5
:101CF0009B180DC0B21458F4B60180E290E0C8D130
:101D0000B394F8CFB21418F42B1802C0982C212CDD
:101D1000A4FE0FC0B60180E390E0BAD1A2FE16C0C7
:101D2000A1FC03C088E790E002C088E590E0B6011E
:101D30000CC08A2D867851F0A1FE02C08BE201C052
:101D400080E2A7FC8DE2B60190E0A2D1891430F4C4
:101D5000B60180E390E09CD19A94F8CF8A94F30185
:101D6000E80DF11D8081B60190E092D18110F6CF8F
:101D7000222009F44ECEB60180E290E089D12A9467
:101D8000F7CFF6018681978102C08FEF9FEF2B96E8
:101D90000FB6F894DEBF0FBECDBFDF91CF911F917C
:101DA0000F91FF90EF90DF90CF90BF90AF909F90FA
:101DB0008F907F906F905F904F903F902F900895FD
:101DC0000F931F93CF93DF93869F8001879F100D02
:101DD000969F100D1124C8010DD0EC01009721F041
:101DE000A80160E070E032D1CE01DF91CF911F9168
:101DF0000F9108950F931F93CF93DF938230910536
:101E000010F482E090E0E091CD03F091CE0320E069
:101E100030E0A0E0B0E0309719F1408151810281BB
:101E2000138148175907C8F08417950769F410976C
:101E300031F012960C93129713961C9327C00093BF
:101E4000CD031093CE0322C02115310519F042179E
:101E5000530718F49A01BD01EF01DF01F801DBCF50
:101E600021153105F9F0281B390B2430310580F498
:101E70008A819B816115710521F0FB019383828327
:101E800004C09093CE038093CD03FE01329644C0EC
:101E9000FE01E20FF31F81939193225031093983A0
:101EA00028833AC02091CB033091CC03232B41F4FB
:101EB00020910202309103023093CC032093CB0394
:101EC00020910002309101022115310541F42DB716
:101ED0003EB74091040250910502241B350BE0915E
:101EE000CB03F091CC03E217F307A0F42E1B3F0BBA
:101EF0002817390778F0AC014E5F5F4F241735077C
:101F000048F04E0F5F1F5093CC034093CB03819357
:101F1000919302C0E0E0F0E0CF01DF91CF911F91FB
:101F20000F910895CF93DF93009709F481C0FC01CE
:101F3000329713821282A091CD03B091CE031097F5
:101F400081F420813181820F931F2091CB03309146
:101F5000CC032817390751F5F093CC03E093CB035A
:101F600067C0ED0120E030E0CE17DF0740F44A8182
:101F70005B819E0141155105F1F0EA01F5CFD38354
:101F8000C28340815181840F951FC817D90759F426
:101F900088819981840F951F0296918380838A811D
:101FA0009B81938382832115310529F4F093CE031D
:101FB000E093CD033DC0E901FB83EA834991599148
:101FC000C40FD51FEC17FD0761F480819181840F48
:101FD000951F0296E90199838883828193819B836F
:101FE0008A83E0E0F0E012968D919C911397009720
:101FF00019F0FD01DC01F7CF8D919C9111979D01A6
:102000002E5F3F4F820F931F2091CB033091CC0363
:102010002817390769F4309729F41092CE031092EB
:10202000CD0302C013821282B093CC03A093CB03E2
:10203000DF91CF910895FC0105906150704001102F
:10204000D8F7809590958E0F9F1F0895DC0101C0F1
:102050006D9341505040E0F70895FC01615070408D
:1020600001900110D8F7809590958E0F9F1F0895CD
:10207000DC01FC01672F71917723E1F7329704C0EF
:102080007C916D9370836291AE17BF07C8F308957A
:102090000F931F93CF93DF93FB01238121FD03C097
:1020A0008FEF9FEF2CC022FF16C0468157812481FD
:1020B00035814217530744F4A081B1819D012F5F00
:1020C0003F4F318320838C93268137812F5F3F4F91
:1020D0003783268314C08B01EC01FB010084F1855A
:1020E000E02D1995892BE1F6D80116968D919C91DA
:1020F0001797019617969C938E931697CE01DF91B2
:10210000CF911F910F910895FA01AA27283051F11C
:10211000203181F1E8946F936E7F6E5F7F4F8F4F18
:102120009F4FAF4FB1E03ED0B4E03CD0670F781F77
:10213000891F9A1FA11D680F791F8A1F911DA11D5C
:102140006A0F711D811D911DA11D20D009F4689495
:102150003F912AE0269F11243019305D3193DEF63D
:10216000CF010895462F4770405D4193B3E00FD0F3
:10217000C9F7F6CF462F4F70405D4A3318F0495DDE
:1021800031FD4052419302D0A9F7EACFB4E0A695C1
:102190009795879577956795BA95C9F700976105E3
:1021A000710508959B01AC010A2E06945795479539
:1021B00037952795BA95C9F7620F731F841F951F2E
:0821C000A01D0895F894FFCF63
:1021C8000000CF0320008083878A8D9194979B9E7F
:1021D800A1A4A8ABAEB1B5B8BBBEC1C5C8CBCED162
:1021E800D4D7DADDE0E1E1E2E3E4E5E6E6E7E8E8D2
:1021F800E9EAEAEBEBECECECEDEDEDEEEEEEEEEE13
:10220800EEEEEEEEEEEEEEEEEEEEEDEDEDECECECEF
:10221800EBEBEAEAE9E8E8E7E6E6E5E4E3E2E1E150
:10222800E0E1E1E2E3E4E5E6E6E7E8E8E9EAEAEB4B
:10223800EBECECECEDEDEDEEEEEEEEEEEEEEEEEEC2
:10224800EEEEEEEEEEEEEDEDEDECECECEBEBEAEABD
:10225800E9E8E8E7E6E6E5E4E3E2E1E1E0DDDAD74C
:10226800D4D1CECBC8C5C1BEBBB8B5B1AEABA8A49E
:10227800A19E9B9794918D8A8783807D7976736FD1
:102288006C6965625F5C5855524F4B4845423F3B0D
:102298003835322F2C292623201F1F1E1D1C1B1AE0
:1022A8001A191818171616151514141413131312CF
:1022B80012121212121212121212121212121313F4
:1022C8001314141415151616171818191A1A1B1C96
:1022D8001D1E1F1F201F1F1E1D1C1B1A1A19181830
:1022E80017161615151414141313131212121212AA
:1022F80012121212121212121212131313141414AD
:1023080015151616171818191A1A1B1C1D1E1F1F2B
:10231800202326292C2F3235383B3F4245484B4F46
:102328005255585C5F6265696C6F7376797D80F091
:0C23380000780001002020002566000055
:00000001FF
