S00C00006472765F2E737265636D
S113000009C1000027C1000025C1000023C1000070
S113001021C100001FC100001DC100001BC1000060
S113002019C1000017C1000015C1000013C1000070
S113003011C100000FC100000DC100000BC1000080
S113004009C1000007C1000005C1000003C1000090
S113005001C10000FFC00000FDC000000C94340A80
S1130060F9C00000F7C00000F5C00000F3C00000B4
S1130070F1C00000EFC00000EDC00000EBC00000C4
S1130080E9C00000E7C00000E5C00000E3C00000D4
S1130090E1C00000DFC00000DDC00000DBC00000E4
S11300A0D9C00000D7C00000D5C00000D3C00000F4
S11300B0D1C00000CFC00000CDC000000C947E0A67
S11300C0C9C00000C7C00000C5C00000C3C0000014
S11300D0C1C00000BFC00000BDC00000BBC0000024
S11300E0B9C00000084AD73B3BCE016E84BCBFFDBB
S11300F0C12F3D6C74319ABD56833DDA3D00C77FF4
S113010011BED9E4BB4C3E916BAAAABE000000808C
S11301103F006E616E00696E660000407A10F35A0B
S113012000A0724E18090010A5D4E80000E8764833
S1130130170000E40B54020000CA9A3B000000E1DF
S1130140F505000080969800000040420F00000072
S1130150A08601000000102700000000E803000052
S113016000006400000000000A000000000001001C
S1130170000000002C76D888DC674F0823DFC1DF3D
S1130180AE59E1B1B796E5E3E453C63AE651997640
S113019096E8E6C28426EB898C9B62ED407C6FFC7A
S11301A0EFBC9C9F40F2BAA56FA5F490055A2AF7BC
S11301B05C936B6CF9676DC11BFCE0E40D47FEF5C5
S11301C020E6B500D0ED902E03009435770500802D
S11301D0841E080000204E0A000000C80C3333338C
S11301E0330F986E12831141EF8D2114893BE6552C
S11301F016CFFEE6DB18D1844B381BF77C1D901D0F
S1130200A4BBE424203284725E228100C9F124EC70
S1130210A1E53D2711241FBECFEFD1E2DEBFCDBF44
S113022000E00CBF13E0A0E0B2E0E6EAFBE200E08D
S11302300BBF02C007900D92A839B107D9F724E08B
S1130240A8E9B3E001C01D92A532B207E1F78AD252
S11302500C94D115D5CEE1E0F1E0808188608083F3
S11302608081806180838081806280830895E091B1
S11302709803F0919903EA5FFD4F808190E0909399
S1130280A9008093A800E0917103F0917203EA5FE2
S1130290FD4F808190E09093AB008093AA00E091A1
S11302A06F03F0917003EA5FFD4F808190E09093BB
S11302B0AD008093AC006091A7037091A8034091B6
S11302C0980350919903460F571F509399034093F5
S11302D098032091710330917203260F371F3093D6
S11302E072032093710380916F0390917003860FC2
S11302F0971F9093700380936F03493661E056070C
S11303002CF0109299031092980308C0552334F4EA
S113031048E651E05093990340939803293641E00D
S113032034072CF0109272031092710308C0332327
S113033034F428E631E03093720320937103893654
S113034061E096072CF01092700310926F0308C0BE
S1130350992334F488E691E09093700380936F03BB
S11303608091A3039091A403909329018093280181
S11303700895089A099A0A9A0B9A0C9A109A119A53
S1130380129A139A149A08954F925F926F927F92E1
S11303908F929F92AF92BF92CF92DF92EF92FF9291
S11303A00F931F93CF93DF93CDB7DEB76C970FB640
S11303B0F894DEBF0FBECDBF698B7A8B8B8B9C8B81
S11303C0CA01B901E982FA820B831C83C090B50388
S11303D0D090B603E090B703F090B803A70196015C
S11303E00E940F0C6093AD037093AE038093AF0330
S11303F09093B00329813A814B815C810E94550E10
S11304002091BD033091BE034091BF035091C003BE
S11304100E94100C6D8B7E8B8F8B988F8090CD03F8
S11304209090CE03A090CF03B090D003A501940187
S113043069817A818B819C810E94550E6D837E83B4
S11304408F8398874090C5035090C6036090C7037C
S11304507090C8038091C9039091CA03A091CB0303
S1130460B091CC038D879E87AF87B88BA30192018F
S11304706D817E818F8198850E940F0C2D853E852C
S11304804F8558890E940F0C2091B1033091B2031B
S11304904091B3035091B4030E94100C29813A8116
S11304A04B815C810E94550EA1ECB3E02D913D91EE
S11304B04D915C910E94100C69877A878B879C8789
S11304C02D813E814F815885C301B2010E940F0CDA
S11304D02B013C012D813E814F8158856D857E85A0
S11304E08F8598890E940F0C6D877E878F87988BE4
S11304F02091A9033091AA034091AB035091AC031E
S113050069817A818B819C810E94550EA501940199
S11305100E94100C698F7A8F8B8F9C8F2091B90366
S11305203091BA034091BB035091BC0369857A852D
S11305308B859C850E94100C4B015C019B01AC01D6
S113054069857A858B859C850E94DA0C69837A8318
S11305508B839C83A50194016D857E858F85988905
S11305600E94DA0C6D837E838F8398872D893E8960
S11305704F89588D69897A898B899C890E940F0CCF
S1130580698B7A8B8B8B9C8B9B01AC0169817A8103
S11305908B819C810E94550E2D893E894F89588DEF
S11305A00E94100C4B015C016093BD037093BE0369
S11305B08093BF039093C00329893A894B895C894E
S11305C06D817E818F8198850E94550EA7019601C9
S11305D00E94100C6093B5037093B6038093B70325
S11305E09093B80329813A814B815C8169857A852E
S11305F08B859C850E94550E9B01AC0169857A858B
S11306008B859C850E940F0CE1ECF3E06083718381
S11306108283938329813A814B815C81C301B20136
S11306200E94550E9B01AC01C301B2010E940F0C44
S11306306093C5037093C6038093C7039093C80364
S11306402D813E814F81588569857A858B859C856E
S11306500E94550E9B01AC016D857E858F8598891E
S11306600E940F0C6093C9037093CA038093CB0359
S11306709093CC032D813E814F815885C301B201F3
S11306800E94550E9B01AC01698D7A8D8B8D9C8DDA
S11306900E940F0C6093CD037093CE038093CF031D
S11306A09093D003C501B4016C960FB6F894DEBFE5
S11306B00FBECDBFDF91CF911F910F91FF90EF90AF
S11306C0DF90CF90BF90AF909F908F907F906F906E
S11306D05F904F9008958FE692E1A3E8BAE3809388
S11306E0B1039093B203A093B303B093B40386EA27
S11306F09BE9A4E4BBE38093A9039093AA03A0938A
S1130700AB03B093AC038FE892ECA5EFBCE380930A
S1130710B9039093BA03A093BB03B093BC031092A4
S1130720BD031092BE031092BF031092C003109237
S1130730B5031092B6031092B7031092B803E1EC1C
S1130740F3E01082118212821382148215821682BF
S113075017821086118612861386148615861686CD
S113076017860895CF93DF93CDB7DEB768970FB69A
S1130770F894DEBF0FBECDBF109299031092980378
S113078088E790E0909372038093710380EF90E088
S11307909093700380936F038FEF9FEF9093A80360
S11307A08093A70380ED97E09093A4038093A30321
S11307B0F89451DDDEDDCAD68CE090E078D760E0B5
S11307C070E088E89BE00E9455139093D2038093D5
S11307D0D1030BD611D6E6D5F9D501D680EA9FE030
S11307E090932901809328010DD64B015C0167E0A9
S11307F089E1FED160E08AE1FBD168E08BE1F8D1C8
S113080060E18CE1F5D161E08BE6F2D164DF2FEF9A
S113081083ED90E3215080409040E1F700C0000058
S11308201092BD031092BE031092BF031092C00336
S113083081E090E0D3D48091BD039091BE03A09158
S1130840BF03B091C0038D8B9E8BAF8BB88FE091AB
S11308500304F09104041082118212821382E09145
S1130860F103F091F20380839183A283B383E09137
S1130870F503F091F6031082118212821382109212
S113088012041092110420E030E044EB52E460E0E2
S113089070E0CB01B1D384E690E0A0E0B0E08093B7
S11308A0130490931404A0931504B0931604E12C3C
S11308B0F12C00E81EE32DEC3CEC4CE45DE360E03D
S11308C070E080E89FE3A4D4C3D5C0901304D09013
S11308D01404E0901504F0901604DC01CB018C198B
S11308E09D09AE09BF098093FB039093FC03A09379
S11308F0FD03B093FE03E091F103F091F2036081F4
S11309007181828193810E94420D85E793E011D722
S11309108EE793E09F938F930E94DB1378940F905C
S11309200F90198A1A8A1B8A1C8A0F2EF7E52F2E1C
S1130930FCE63F2EF02DDE0115967D018E010D5F44
S11309401F4F9E012F5F3F4FAE01455F5F4FBE01BA
S1130950675F7F4FCE010796A1D189819A8184591F
S11309609F4F9A8389838B819C8180529F4F9C8364
S11309708B838D819E818F589D4F9E838D8342D51D
S1130980681979098A099B090E94730D20E034E2F1
S113099044E759E40E94DA0C6B017C0133D54B0126
S11309A05C0169817A81072E000C880B990B0E94E7
S11309B0750D20E030E043E852E4FCD76D877E8774
S11309C08F87988B8091730390917403892BA1F482
S11309D02D853E854F855889C701B6010E94550E65
S11309E09B01AC0169897A898B899C8919D7698BA8
S11309F07A8B8B8B9C8B04C01092740310927303BC
S1130A006B857C85072E000C880B990B0E94750D55
S1130A102B013C0169857A85072E000C880B990B04
S1130A200E94750DA30192016ED721EE3EE245E6C8
S1130A3052E40E94550E2B013C01870176012D855D
S1130A403E854F855889A0DC6B017C01AB01BC015C
S1130A5084E993E0C4D60091F1031091F203C70135
S1130A60B6010E94420D072E000C880B990B0E94C0
S1130A70750DF80160837183828393832D893E8988
S1130A804F89588D60E070E0CB01C9D6FBD79B013C
S1130A90772324F422273327261B370BB901330F7E
S1130AA0880B990B0E94750D20E030E040E251E480
S1130AB07DD7882374F4E12CF12C00E81EE32DEC9F
S1130AC03CEC4CE45DE360E070E080E89FE3A0D39D
S1130AD00DC0E12CF12C00E81FE32DEC3CEC4CE4C0
S1130AE05EE360E070E080E890E492D342D1E0916C
S1130AF00304F0910404408151816281738188E888
S1130B0093E06DD68AE090E00E94EE13E090030437
S1130B10F0900404D7016D917D918D919C91B2D791
S1130B209B01772324F422273327261B370B30928B
S1130B30A4032092A303B901330F880B990BD5D7D3
S1130B402DEC3CEC4CE45FE331D718162CF52BED7F
S1130B5039EF4EE75FE369897A898B899C890E9422
S1130B60550E6D877E878F87988B2FE632E143E899
S1130B705BE3C301B2010E94550E9B01AC016D857C
S1130B807E858F8598894CD620E030E044EB52E492
S1130B900E944A0E18162CF41092A8031092A70370
S1130BA0CACE2DEC3CEC4CE45FE3F701608171812B
S1130BB0828193810E944A0E18166CF4F89481E0A5
S1130BC090E09093A8038093A70380E290E00E94B2
S1130BD0EE137894B0CEF894AFEFBFEFB093A803C0
S1130BE0A093A70380E290E00E94EE137894A3CE32
S1130BF0CF93DF93D82FC62F80EDAED48D2F02D59F
S1130C008C2F00D5EFD4DF91CF910895AF92BF928E
S1130C10CF92DF92FF920F931F93CF93DF936623BC
S1130C2089F1C52FD42FF62E182F80ED95D4812F5E
S1130C30E9D485E38A95F1F7000081ED8DD40D2F79
S1130C401C2FCC24CA94CF0CD12CEFEFCE1ADE0A81
S1130C50C0E0D0E0AF2CB12CF1E0AF1AB108AC1673
S1130C60BD0621F40AD5F801808303C0ECD4F80151
S1130C70808321960F5F1F4FCC15DD0581F7CF2DA3
S1130C80B1D401C0C0E08C2FDF91CF911F910F919F
S1130C90FF90DF90CF90BF90AF9008956F927F92B6
S1130CA08F929F92AF92BF92CF92DF92EF92FF9278
S1130CB00F931F93CF93DF93CDB7DEB72E970FB665
S1130CC0F894DEBF0FBECDBF4C015B016A01390150
S1130CD0AE014F5F5F4F6EE08BE398DF898190E058
S1130CE0982F88272A81822BF401918380838B811A
S1130CF090E0982F88272C81822BF50191838083A3
S1130D008D8190E0982F88272E81822BF601918384
S1130D108083898590E0982F88272A85822BF30188
S1130D20918380838B8590E0982F88272C85822B54
S1130D30F801918380838D8590E0982F88272E85F4
S1130D40822BF701918380832E960FB6F894DEBF31
S1130D500FBECDBFDF91CF911F910F91FF90EF9008
S1130D60DF90CF90BF90AF909F908F907F906F90C7
S1130D7008954F925F926F927F928F929F92AF925B
S1130D80BF92CF92DF92EF92FF920F931F93CF9374
S1130D90DF93CDB7DEB72A970FB6F894DEBF0FBE48
S1130DA0CDBF8091110490911204009709F40DC1F4
S1130DB04FD36C01990FEE08FF088091FB039091CB
S1130DC0FC03A091FD03B091FE03B701A601481BEB
S1130DD0590B6A0B7B0B8091130490911404A0911E
S1130DE01504B0911604481759076A077B0708F4DD
S1130DF0EAC0E091F103F091F203408051806280F7
S1130E007380E091F503F091F603A30192016081F0
S1130E1071818281938103D569837A838B839C83D7
S1130E202091F7033091F8034091F9035091FA03AC
S1130E303CD7209105043091060440910704509159
S1130E400804EED44B015C0160930504709306041E
S1130E5080930704909308048091D7038A87909124
S1130E60D80399871091D9030091DA03282F392FD9
S1130E70412F502FC501B4010DD718166CF48A8583
S1130E809985A12FB02F8093050490930604A09315
S1130E900704B09308041FC08091DB039091DC0326
S1130EA0A091DD03B091DE038D839E83AF83B88769
S1130EB09C01AD01C501B40179D5882364F48D8109
S1130EC09E81AF81B8858093050490930604A09316
S1130ED00704B093080420910D0430910E0440914E
S1130EE00F045091100469817A818B819C81DDD635
S1130EF020910504309106044091070450910804A0
S1130F008FD44B015C012091DF033091E0034091C9
S1130F10E1035091E203C301B20181D42091D303D0
S1130F203091D4034091D5035091D603BED69B0192
S1130F30AC01C501B40173D4B62EA72E982E892E08
S1130F40262F372F482F592F6A857985812F902F87
S1130F502DD58823CCF09091DB039A87A091DC03F4
S1130F60A9871091DD030091DE03292F3A2F412F29
S1130F70502F6B2D7A2D892D982D18D5882324F088
S1130F80BA86A986192D082DE0910304F091040472
S1130F908A859985A12FB02F80839183A283B383FF
S1130FA04092DF035092E0036092E1037092E20307
S1130FB0C092FB03D092FC03E092FD03F092FE0387
S1130FC081E090E002C080E090E02A960FB6F894A9
S1130FD0DEBF0FBECDBFDF91CF911F910F91FF9068
S1130FE0EF90DF90CF90BF90AF909F908F907F90C5
S1130FF06F905F904F9008954F925F926F927F929F
S11310008F929F92AF92BF92CF92DF92EF92FF9214
S1131010CF93DF934B015C0169017A013BD68823AE
S11310200CF06DC08092DB039092DC03A092DD0390
S1131030B092DE03C092D703D092D803E092D903D2
S1131040F092DA038091110490911204892B09F42F
S113105056C0C0910304D0910404488059806A802A
S11310607B80A3019201C701B601A0D488232CF48C
S1131070C882D982EA82FB820BC0A3019201C50116
S1131080B40108D6181624F488829982AA82BB82F5
S1131090C0900504D0900604E0900704F090080482
S11310A08090D7039090D803A090D903B090DA032E
S11310B0A5019401C701B601EDD518164CF4809230
S11310C0050490920604A0920704B092080417C085
S11310D08090DB039090DC03A090DD03B090DE03EE
S11310E0A5019401C701B60161D4882344F4809218
S11310F0050490920604A0920704B0920804DF91BC
S1131100CF91FF90EF90DF90CF90BF90AF909F90E2
S11311108F907F906F905F904F9008958F929F92E1
S1131120AF92BF92CF92DF92EF92FF92E0910304CD
S1131130F0910404C080D180E280F380C092050461
S1131140D0920604E0920704F0920804E091F103BF
S1131150F091F20380819181A281B3818093DF03B6
S11311609093E003A093E103B093E2038090D7034C
S11311709090D803A090D903B090DA03A50194010C
S1131180C701B60187D518164CF4809205049092D5
S11311900604A0920704B092080417C08090DB03F1
S11311A09090DC03A090DD03B090DE03A5019401D0
S11311B0C701B601FBD3882344F4809205049092BE
S11311C00604A0920704B0920804FF90EF90DF9009
S11311D0CF90BF90AF909F908F900895CF93DF935F
S11311E021E030E08130910509F020E0D22FC32FB7
S11311F0019739F48091110490911204892B09F418
S11312008DDFD0931104C0931204DF91CF91089520
S11312104F925F926F927F928F929F92AF92BF9202
S1131220CF92DF92EF92FF920F931F93CF93DF93AE
S113123000D01F92CDB7DEB74B015C0129013A0102
S11312406701780120E030E0A901B0D388230CF4D1
S113125094C020E030E0A901C301B201A7D38823E0
S11312600CF48BC020E030E0A901C701B6019ED385
S113127088230CF482C08092090490920A04A092FC
S11312800B04B0920C044092FF035092000460924D
S1131290010470920204C0921704D0921804E092E0
S11312A01904F0921A04609113047091140480914B
S11312B015049091160417D420E030E04AE754E472
S11312C079D369837A838B839C8380920D04909273
S11312D00E04A0920F04B09210049B01AC01C30150
S11312E0B201E3D42B013C016093F7037093F8033C
S11312F08093F9039093FA0329813A814B815C81AD
S1131300C701B60157D36B017C016093D30370937B
S1131310D4038093D5039093D6038091F3039091E3
S1131320F403019751F5A501940160E070E0CB014D
S113133076D260930D0470930E0480930F049093FF
S11313401004A301920160E070E0CB0168D26093C5
S1131350F7037093F8038093F9039093FA03A701BA
S1131360960160E070E0CB015AD26093D30370938E
S1131370D4038093D5039093D6030F900F900F90CE
S11313800F90DF91CF911F910F91FF90EF90DF901D
S1131390CF90BF90AF909F908F907F906F905F9011
S11313A04F900895E1EAF0E0808181608083E0EA73
S11313B0F0E0808181608083808180688083808187
S11313C0806280838081886080830895E1E2F1E017
S11313D08081816080838081886080830895E3E7D1
S11313E0F0E0808182608083089585B5816085BD49
S11313F085B5826085BD0895EEE6F0E08081816068
S1131400808308953FB7F89480919F039091A0033F
S1131410A091A103B091A20326B5A89B05C02F3FBC
S113142019F00196A11DB11D3FBFBA2FA92F982F06
S11314308827820F911DA11DB11DBC01CD01660F2E
S1131440771F881F991F660F771F881F991F08959C
S11314502FB7F89460919B0370919C0380919D0336
S113146090919E032FBF08951F920F920FB60F9273
S113147011242F933F938F939F93AF93BF938091A6
S11314809B0390919C03A0919D03B0919E03309186
S11314909A0323E0230F2D3720F40196A11DB11DDB
S11314A005C026E8230F0296A11DB11D20939A03BF
S11314B080939B0390939C03A0939D03B0939E03FE
S11314C080919F039091A003A091A103B091A203E6
S11314D00196A11DB11D80939F039093A003A09337
S11314E0A103B093A203BF91AF919F918F913F91BC
S11314F02F910F900FBE0F901F9018951F920F926F
S11315000FB60F9211240BB60F922F933F934F9364
S11315105F936F937F938F939F93AF93BF93EF9357
S1131520FF930E943701FF91EF91BF91AF919F917B
S11315308F917F916F915F914F913F912F910F9078
S11315400BBE0F900FBE0F901F9018951092B9000C
S11315508CE08093B800089594EA9093BC004FEF18
S113156050E060E070E0ECEBF0E09081992334F01F
S11315704150510961097109C0F704C0452B462B3C
S1131580472B41F19091B900987F983011F0903138
S113159019F58093BB0084E88093BC008FEF90E042
S11315A0A0E0B0E0ECEBF0E0208122232CF00197E6
S11315B0A109B109C8F704C0892B8A2B8B2B71F0C0
S11315C09091B900987F983159F081E0903449F4B2
S11315D080E0089581E0089581E0089581E0089510
S11315E080E0089584E98093BC0080E090E0ECEB17
S11315F0F0E0208124FF05C00196811521E09207C7
S1131600C1F708958093BB0084E88093BC008FEFFA
S113161090E0A0E0B0E0ECEBF0E0208122232CF09D
S11316200197A109B109C8F704C0892B8A2B8B2B18
S113163041F09091B900987F81E0983219F480E0EC
S1131640089581E0089584EC8093BC008FEF90E0CE
S1131650A0E0B0E0ECEBF0E0208122232CF0019735
S1131660A109B109C8F704C0892B8A2B8B2B19F067
S11316708091BB00089580E0089584E88093BC00C5
S11316808FEF90E0A0E0B0E0ECEBF0E020812223CB
S11316902CF00197A109B109C8F704C0892B8A2B42
S11316A08B2B19F08091BB00089580E008959093EE
S11316B0C5008093C40088E08093C1008EE08093CD
S11316C0C20008950F931F93CF93DF93CDB7DEB776
S11316D02A970FB6F894DEBF0FBECDBF4AE08E0145
S11316E00F5F1F4FB801FC0180819181BBD71F930D
S11316F00F930E94DB130F900F902A960FB6F89465
S1131700DEBF0FBECDBFDF91CF911F910F91089522
S1131710CF93C82F8A3011F48DE0FADFE0ECF0E0CB
S1131720808185FFFDCFC093C60080E090E0CF911B
S11317300895CF93DF931F921F92CDB7DEB77A83BC
S113174069839F938F930E94DB13CE010196BADFC6
S113175082E993E09F938F930E94DB130F900F9085
S11317600F900F900F900F90DF91CF9108950F93EA
S11317701F93CF93DF93CDB7DEB764970FB6F8947A
S1131780DEBF0FBECDBFFC018E010F5F1F4F84E192
S1131790D8011D928A95E9F783818F9382818F9373
S11317A081818F9380818F9385E993E09F938F93B9
S11317B01F930F930E94F3131F930F93FCD70FB63D
S11317C0F894DEBF0FBECDBF64960FB6F894DEBFAB
S11317D00FBECDBFDF91CF911F910F910895CF938D
S11317E0DF9300D01F92CDB7DEB749835A836B8352
S11317F07C839F938F93DFD7CE010196B8DF82E974
S113180093E09F938F93D7D70F900F900F900F90E3
S11318100F900F900F900F90DF91CF910895505833
S1131820BB27AA270ED0FCC1EDD130F0F2D120F0B5
S113183031F49F3F11F41EF4BDC10EF4E095E7FBB3
S1131840B3C1E92FFED180F3BA1762077307840787
S1131850950718F071F49EF516C20EF4E0950B2E60
S1131860BA2FA02D0B01B90190010C01CA01A001EE
S11318701124FF27591B99F0593F50F4503E68F149
S11318801A16F040A22F232F342F4427585FF3CF8A
S1131890469537952795A795F0405395C9F77EF45B
S11318A01F16BA0B620B730B840BBAF09150A1F0A4
S11318B0FF0FBB1F661F771F881FC2F70EC0BA0F2A
S11318C0621F731F841F48F4879577956795B795B2
S11318D0F7959E3F08F0B3CF9395880F08F09927AA
S11318E0EE0F9795879508958DD158F080E891E093
S11318F009F49EEF8ED128F040E851E059F45EEFF0
S113190009C058C1C0C1E92FE0789BD168F3092E02
S1131910052AC1F3261737074807590738F00E2E52
S113192007F8E02569F0E025E0640AC0EF6307F8F2
S1131930009407FADB01B9019D01DC01CA01AD0184
S1131940EF9347D06DD10AD05F91552331F02BED41
S11319503FE049E450FD49EC63CF0895DF93DD2770
S1131960B92FBF7740E85FE31616170648075B07F1
S113197010F4D92F93D19F938F937F936F93F8D1C2
S1131980E4EEF0E01AD14CD12F913F914F915F9149
S113199098D1DD2349F09058A2EA2AED3FE049ECC2
S11319A05FE3D0785D274DDFDF913AC1D9D008F4E9
S11319B081E008950CD034C12CD140F023D130F013
S11319C021F45F3F19F0F0C051115EC1F3C039D169
S11319D098F39923C9F35523B1F3951B550BBB27F2
S11319E0AA2762177307840738F09F5F5F4F220F9F
S11319F0331F441FAA1FA9F333D00E2E3AF0E0E898
S1131A0030D091505040E695001CCAF729D0FE2FE3
S1131A1027D0660F771F881FBB1F26173707480775
S1131A20AB07B0E809F0BB0B802DBF01FF2793582B
S1131A305F4F2AF09E3F510568F0B6C025C15F3F55
S1131A40ECF3983EDCF3869577956795B795F79513
S1131A509F5FC9F7880F911D9695879597F908950B
S1131A60E1E0660F771F881FBB1F621773078407A7
S1131A70BA0720F0621B730B840BBA0BEE1F88F7B6
S1131A80E095089504D06894B111FEC00895E1D0A2
S1131A9088F09F5790F0B92F9927B751A0F0D1F053
S1131AA0660F771F881F991F1AF0BA95C9F712C0DD
S1131AB0B13081F0E8D0B1E00895E5C0672F782F08
S1131AC08827B85F39F0B93FCCF386957795679549
S1131AD0B395D9F73EF490958095709561957F4FB5
S1131AE08F4F9F4F0895E89409C097FB3EF490955B
S1131AF08095709561957F4F8F4F9F4F9923A9F0E3
S1131B00F92F96E9BB279395F69587957795679571
S1131B10B795F111F8CFFAF4BB0F11F460FF1BC0B5
S1131B206F5F7F4F8F4F9F4F16C0882311F096E948
S1131B3011C0772321F09EE8872F762F05C06623F6
S1131B4071F096E8862F70E060E02AF09A95660FAF
S1131B50771F881FDAF7880F9695879597F9089568
S1131B60990F0008550FAA0BE0E8FEEF16161706AA
S1131B70E807F907C0F012161306E407F50798F012
S1131B80621B730B840B950B39F40A2661F0232B2B
S1131B90242B252B21F408950A2609F4A140A695A7
S1131BA08FEF811D811D089597F99F6780E870E08C
S1131BB060E008959FEF80EC0895DF93CF931F9327
S1131BC00F93FF92EF92DF927B018C01689405C022
S1131BD0DA2EEF0176D0FE01E894A5912591359196
S1131BE045915591AEF3EF012CDEFE019701A8015A
S1131BF0DA9479F7DF90EF90FF900F911F91CF91D6
S1131C00DF91089500240A9416161706180609068B
S1131C10089500240A94121613061406050608955E
S1131C20092E0394000C11F4882352F0BB0F40F4E6
S1131C30BF2B11F460FF04C06F5F7F4F8F4F9F4F26
S1131C40089557FD9058440F551F59F05F3F71F0A8
S1131C504795880F97FB991F61F09F3F79F087950F
S1131C600895121613061406551FF2CF4695F1DF98
S1131C7008C0161617061806991FF1CF8695710528
S1131C80610508940895E894BB2766277727CB015C
S1131C9097F9089565DF08F48FEF08959B01AC016F
S1131CA060E070E080E89FE385CE0BD0B9CFAADF77
S1131CB028F0AFDF18F0952309F076CF7BCF1124FD
S1131CC0E3CFBFDFA0F3959FD1F3950F50E0551FED
S1131CD0629FF001729FBB27F00DB11D639FAA277D
S1131CE0F00DB11DAA1F649F6627B00DA11D661FCC
S1131CF0829F2227B00DA11D621F739FB00DA11DED
S1131D00621F839FA00D611D221F749F3327A00DA6
S1131D10611D231F849F600D211D822F762F6A2F42
S1131D2011249F5750408AF0E1F088234AF0EE0FC7
S1131D30FF1FBB1F661F771F881F91505040A9F7D4
S1131D409E3F510570F030CF9FCF5F3FECF3983E3C
S1131D50DCF3869577956795B795F795E7959F5F3B
S1131D60C1F7FE2B880F911D9695879597F90895D5
S1131D709B01AC019ACF2F923F924F925F926F9248
S1131D807F928F929F92AF92BF92CF92DF92EF9207
S1131D90FF920F931F93CF93DF93CDB7DEB7609776
S1131DA00FB6F894DEBF0FBECDBF7C011B016A01E4
S1131DB0FC0117821682838181FF2AC39E012F5F53
S1131DC03F4F3901F7019381F10193FD859193FF11
S1131DD081911F01882309F417C3853239F493FDD7
S1131DE0859193FF81911F01853231F4B70190E011
S1131DF0A6D456016501E6CF10E0512C912CFFE1E9
S1131E00F915D8F08B3279F038F4803279F08332D6
S1131E10A1F4F92DF0612EC08D3261F0803369F4A4
S1131E20292D21602DC0392D3260932E892D846097
S1131E30982E2AC0E92DE86015C097FC2DC020ED2E
S1131E40280F2A3088F496FE06C03AE0139F200D2E
S1131E501124122F19C08AE0589E200D1124522EED
S1131E60E92DE0629E2E10C08E3231F496FCCCC275
S1131E70F92DF0649F2E08C08C3621F4292D20689A
S1131E80922E02C0883641F4F10193FD859193FFAF
S1131E9081911F018111B3CF9BEB980F933020F4F4
S1131EA0992D9061805E07C09BE9980F933008F0EC
S1131EB059C1992D9F7E96FF16E09F73992E853602
S1131EC019F49064992E08C0863621F4392F3068AD
S1131ED0932E02C01111115097FE07C01C3350F409
S1131EE044244394410E27E00BC0183038F027E017
S1131EF017E005C027E09CE3492E02C0212F412CA6
S1131F00560184E0A80EB11CF601608171818281C2
S1131F109381042DA301B8D26C01F981FC87F0FFF1
S1131F2002C0F3FF06C091FC06C092FE06C000E2A8
S1131F3005C00DE203C00BE201C000E08C858C708B
S1131F4019F0011143C280C297FE10C04C0CFC85ED
S1131F50F4FF04C08A81813309F44A94141474F59B
S1131F6028E0241578F588E0482E2CC096FC2AC079
S1131F70812F90E08C159D059CF03CEFC3163FEF3C
S1131F80D30674F0892D8068982E0AC0E2E0F0E050
S1131F90EC0FFD1FE10FF11D8081803319F4115006
S1131FA01111F4CF97FE0EC044244394410E812FA7
S1131FB090E0C816D9062CF41C1904C04424439498
S1131FC001C010E097FE06C01C141D0434F4C601C1
S1131FD0019605C085E090E002C081E090E0011127
S1131FE00196112331F0212F30E02F5F3F4F820FF4
S1131FF0931F252D30E08217930714F4581A01C05B
S1132000512C892D897041F4552031F0B70180E2BB
S113201090E095D35A94F8CF002321F0B701802F94
S113202090E08DD393FC08C0552031F0B70180E3D4
S113203090E085D35A94F8CF97FE4AC04601D7FE64
S113204002C0812C912CC60188199909F301E80F6B
S1132050F91FFE87ED87960124193109388B2F87E4
S1132060012F10E01195019511093FEF8316930696
S113207021F4B7018EE290E062D3C814D9044CF085
S11320808F8598898815990524F4ED85FE858181CD
S113209001C080E3F1E08F1A91082D853E852F5F02
S11320A03F4F3E872D878016910624F0B70190E0BC
S11320B046D3DBCFC814D90441F49A81963320F473
S11320C0953319F43C8534FF81E3B70190E048C0AF
S11320D08A81813319F09C859F7E9C87B70190E0AB
S11320E02ED3111105C094FC16C085E690E015C0EE
S11320F0B7018EE290E023D31E5F82E001E0080F77
S1132100F301E80FF11D8081B70190E018D3802F0F
S11321100113F4CFE8CF85E490E0B70110D3D7FCE6
S113212006C0C114D10441F4EC85E4FF05C0D19488
S1132130C194D1088DE201C08BE2B70190E0FFD2D7
S113214080E32AE0C216D1042CF08F5FFAE0CF1AA4
S1132150D108F7CFB70190E0F2D2B701C601C0961B
S1132160EED249C1833631F0833779F0833509F0F3
S113217052C01FC0560132E0A30EB11CF60180818B
S1132180898301E010E0630111C05601F2E0AF0E53
S1132190B11CF601C080D18096FE03C0612F70E0AF
S11321A002C06FEF7FEFC60152D28C01F92DFF7789
S11321B013C0560122E0A20EB11CF601C080D180EA
S11321C096FE03C0612F70E002C06FEF7FEFC6017F
S11321D033D28C01F92DF0689F2EF3FD18C0852DA4
S11321E090E00817190798F4B70180E290E0A7D2AD
S11321F05A94F5CFF60197FC859197FE81916F0172
S1132200B70190E09CD251105A9401501109011564
S1132210110581F7F0C0843611F0893659F556015D
S113222097FE09C024E0A20EB11CF6016081718101
S1132230828193810AC0F2E0AF0EB11CF601608185
S11322407181072E000C880B990BF92DFF769F2EB8
S113225097FF09C090958095709561957F4F8F4F3A
S11322609F4FF0689F2E2AE030E0A301EAD2C82EE7
S1132270C6183EC0092D853721F40F7E2AE030E0D0
S11322801DC0097F8F3691F018F4883559F0BCC011
S1132290803719F0883711F0B7C0006104FF09C016
S11322A0046007C094FE08C0066006C028E030E061
S11322B005C020E130E002C020E132E0560107FF12
S11322C009C084E0A80EB11CF6016081718182818D
S11322D0938108C0F2E0AF0EB11CF60160817181F8
S11322E080E090E0A301ADD2C82EC6180F77902EDF
S11322F096FE0BC0092D0E7FC11650F494FE0AC041
S113230092FC08C0092D0E7E05C0DC2C092D03C0EB
S1132310DC2C01C0D12E04FF0DC0FE01EC0DF11D1B
S11323208081803311F4097E09C002FF06C0D39472
S1132330D39404C0802F867809F0D39403FD10C091
S113234000FF06C01C2DD51478F4150D1D190CC002
S1132350D51450F4B70180E290E0F1D1D394F8CFD2
S1132360D51410F45D1801C0512C04FF0FC0B7013F
S113237080E390E0E4D102FF16C001FD03C088E7CA
S113238090E002C088E590E0B7010CC0802F867809
S113239051F001FF02C08BE201C080E207FD8DE233
S11323A0B70190E0CCD1C11630F4B70180E390E0DE
S11323B0C6D11150F8CFCA94F301EC0DF11D808100
S11323C0B70190E0BCD1C110F6CF15C0F4E0F5150B
S11323D050F584E0581A93FE1EC0011125C02C85C7
S11323E023FF27C002E111E0392D3071932EF8014B
S11323F08491811121C0552009F4FCCCB70180E2FD
S113240090E09DD15A94F7CFF7018681978123C03C
S11324108FEF9FEF20C0B70180E290E090D15A94F3
S11324205110F9CFDACF512CB701802F90E087D12A
S1132430D6CF06E111E0D8CF91108052B70190E0D9
S11324407ED10F5F1F4FD3CF23E0251510F483E017
S1132450C1CF512CC4CF60960FB6F894DEBF0FBE27
S1132460CDBFDF91CF911F910F91FF90EF90DF903F
S1132470CF90BF90AF909F908F907F906F905F9020
S11324804F903F902F900895283008F027E033278D
S1132490DA01990F311D87FD916000966105710580
S11324A039F432602E5F3D9330E32A95E1F70895C5
S11324B09F3F30F080387105610509F03C5F3C5F57
S11324C03D93913008F08068911DDF93CF931F9363
S11324D00F93FF92EF92192F987F9695E92F969577
S11324E09695E90FFF27EC58FE4F99273327EE24E2
S11324F0FF24A701E70105900894079428F4360FF8
S1132500E71EF81E491F511D660F771F881F991F6C
S11325100694A1F70590079428F4E70EF81E491FC6
S1132520561FC11D770F881F991F661F0694A1F7B8
S11325300590079428F4F80E491F561FC71FD11D94
S1132540880F991F661F771F0694A1F705900794BB
S113255020F4490F561FC71FD81F990F661F771FF6
S1132560881F0694A9F784911095177041F0D695A9
S1132570C79557954795F794E7941A95C1F7EAE1FB
S1132580F1E06894159015913591659195910590B8
S11325907FE27395E118F10A430B560BC90BD0097E
S11325A0C0F7E10CF11E431F561FC91FD01D7EF456
S11325B0703311F48A95E6CFE894015030F0080F97
S11325C00AF40027021708F4202F2395022F7A33E8
S11325D028F079E37D932A95E9F710C07D932A9535
S11325E089F6069497956795379517951794E1188A
S11325F0F10A430B560BC90BD00998F023957E9131
S113260073957A3308F070E37C932013B8F77E91C6
S113261070617D9330F0839571E37D9370E32A9527
S1132620E1F71124EF90FF900F911F91CF91DF916B
S1132630992787FD90950895FC010590615070409D
S11326400110D8F7809590958E0F9F1F0895FC0177
S11326506150704001900110D8F7809590958E0FCD
S11326609F1F0895BB274A3031F4992322F4BDE219
S1132670909581959F4F01C0BB27FB015527AA2741
S1132680880F991FAA1FA41710F0A41B83955051FB
S1132690B9F7A05DAA3308F0A95DA193009779F773
S11326A0B111B1931192CB016CC20F931F93CF93CD
S11326B0DF93009731F46115710519F480E090E01F
S11326C039C08B01EC016EE070E081E090E017D13D
S11326D0FC01892B99F380E883830115110571F0BE
S11326E01387028781E8838380911B0490911C04E3
S11326F0892B21F4F0931C04E0931B042097C9F068
S1132700D187C08783818260838380911D049091E7
S11327101E04892B71F4F0931E04E0931D04809130
S11327201F0490912004892B21F4F0932004E0935A
S11327301F04CF01DF91CF911F910F9108950F9343
S11327401F93CF93DF93FB01238121FD03C08FEF00
S11327509FEF2CC022FF16C046815781248135810A
S11327604217530744F4A081B1819D012F5F3F4F6D
S1132770318320838C93268137812F5F3F4F3783AA
S1132780268314C08B01EC01FB010084F185E02D4C
S11327901995892BE1F6D80116968D919C9117977E
S11327A0019617969C938E931697CE01DF91CF9145
S11327B01F910F910895CF93DF93CDB7DEB7AE018C
S11327C04A5F5F4FFA0161917191AF0180911D04DD
S11327D090911E04D0DADF91CF91089560911D0489
S11327E070911E04ACCF0F931F93CF93DF93CDB79B
S11327F0DEB72E970FB6F894DEBF0FBECDBF0E899D
S11328001F8986E08C831A8309838FEF9FE79E8359
S11328108D83AE01465E5F4F688D798DCE01019642
S1132820AADAEF81F885E00FF11F10822E960FB619
S1132830F894DEBF0FBECDBFDF91CF911F910F91F2
S11328400895FA01AA27283051F1203181F1E89442
S11328506F936E7F6E5F7F4F8F4F9F4FAF4FB1E08F
S11328603ED0B4E03CD0670F781F891F9A1FA11D8A
S1132870680F791F8A1F911DA11D6A0F711D811D8B
S1132880911DA11D20D009F468943F912AE0269F50
S113289011243019305D3193DEF6CF010895462FAF
S11328A04770405D4193B3E00FD0C9F7F6CF462F90
S11328B04F70405D4A3318F0495D31FD40524193F9
S11328C002D0A9F7EACFB4E0A695979587957795B6
S11328D06795BA95C9F700976105710508959B013D
S11328E0AC010A2E06945795479537952795BA95C6
S11328F0C9F7620F731F841F951FA01D08950F93BE
S11329001F93CF93DF93869F8001879F100D969F1F
S1132910100D1124C8010DD0EC01009721F0A8017D
S113292060E070E027D1CE01DF91CF911F910F912C
S113293008950F931F93CF93DF938230910510F482
S113294082E090E0E0912304F091240420E030E060
S1132950A0E0B0E0309719F14081518102811381E8
S113296048175907C8F08417950769F4109731F090
S113297012960C93129713961C9327C0009323046A
S11329801093240422C02115310519F0421753076E
S113299018F49A01BD01EF01DF01F801DBCF211525
S11329A03105F9F0281B390B2430310580F48A8174
S11329B09B816115710521F0FB019383828304C01F
S11329C09093240480932304FE01329644C0FE01B4
S11329D0E20FF31F819391932250310939832883A5
S11329E03AC02091210430912204232B41F42091F8
S11329F00202309103023093220420932104209197
S1132A000002309101022115310541F42DB73EB782
S1132A104091040250910502241B350BE0912104DE
S1132A20F0912204E217F307A0F42E1B3F0B2817A2
S1132A30390778F0AC014E5F5F4F2417350748F033
S1132A404E0F5F1F5093220440932104819391936E
S1132A5002C0E0E0F0E0CF01DF91CF911F910F9130
S1132A600895CF93DF93009709F481C0FC01329756
S1132A7013821282A0912304B0912404109781F44C
S1132A8020813181820F931F2091210430912204EF
S1132A902817390751F5F0932204E093210467C005
S1132AA0ED0120E030E0CE17DF0740F44A815B817E
S1132AB09E0141155105F1F0EA01F5CFD383C2839C
S1132AC040815181840F951FC817D90759F4888113
S1132AD09981840F951F0296918380838A819B81BB
S1132AE0938382832115310529F4F0932404E09320
S1132AF023043DC0E901FB83EA8349915991C40F42
S1132B00D51FEC17FD0761F480819181840F951F17
S1132B100296E90199838883828193819B838A83C6
S1132B20E0E0F0E012968D919C911397009719F0D4
S1132B30FD01DC01F7CF8D919C9111979D012E5FD2
S1132B403F4F820F931F20912104309122042817B4
S1132B50390769F4309729F410922404109223045D
S1132B6002C013821282B0932204A0932104DF9145
S1132B70CF910895DC0101C06D9341505040E0F7BE
S1132B800895DC01FC01672F71917723E1F73297F7
S1132B9004C07C916D9370836291AE17BF07C8F334
S1092BA00895F894FFCF34
S1132BA60000250420008083878A8D9194979B9E3C
S1132BB6A1A4A8ABAEB1B5B8BBBEC1C5C8CBCED176
S1132BC6D4D7DADDE0E1E1E2E3E4E5E6E6E7E8E8E6
S1132BD6E9EAEAEBEBECECECEDEDEDEEEEEEEEEE27
S1132BE6EEEEEEEEEEEEEEEEEEEEEDEDEDECECEC04
S1132BF6EBEBEAEAE9E8E8E7E6E6E5E4E3E2E1E165
S1132C06E0E1E1E2E3E4E5E6E6E7E8E8E9EAEAEB5F
S1132C16EBECECECEDEDEDEEEEEEEEEEEEEEEEEED6
S1132C26EEEEEEEEEEEEEDEDEDECECECEBEBEAEAD1
S1132C36E9E8E8E7E6E6E5E4E3E2E1E1E0DDDAD760
S1132C46D4D1CECBC8C5C1BEBBB8B5B1AEABA8A4B2
S1132C56A19E9B9794918D8A8783807D7976736FE5
S1132C666C6965625F5C5855524F4B4845423F3B21
S1132C763835322F2C292623201F1F1E1D1C1B1AF4
S1132C861A191818171616151514141413131312E3
S1132C961212121212121212121212121212131308
S1132CA61314141415151616171818191A1A1B1CAA
S1132CB61D1E1F1F201F1F1E1D1C1B1A1A19181844
S1132CC617161615151414141313131212121212BE
S1132CD612121212121212121212131313141414C1
S1132CE615151616171818191A1A1B1C1D1E1F1F40
S1132CF6202326292C2F3235383B3F4245484B4F5B
S1132D065255585C5F6265696C6F7376797D80F0A5
S1132D1600780001006D79496E7075743D00726526
S1132D2673746172746564006D796F75747075740B
S10B2D363D0020200025660089
S9030000FC
