:1000000071C000008FC000008DC000008BC00000D8
:1000100089C0000087C0000085C0000083C00000C8
:1000200081C000007FC000007DC000007BC00000D8
:1000300079C0000077C0000075C0000073C00000E8
:1000400071C000006FC000006DC000006BC00000F8
:1000500069C0000067C0000065C0000063C0000008
:1000600061C000005FC000005DC000005BC0000018
:1000700059C0000057C0000055C0000053C0000028
:1000800051C000004FC000004DC000004BC0000038
:1000900049C0000047C0000045C0000043C0000048
:1000A00041C000003FC000003DC000003BC0000058
:1000B00039C0000037C0000035C0000033C0000068
:1000C00031C000002FC000002DC000002BC0000078
:1000D00029C0000027C0000025C0000023C0000088
:1000E00021C0000011241FBECFEFD1E2DEBFCDBF83
:1000F00000E00CBF12E0A0E0B2E0EAEAF2E100E0CA
:100100000BBF02C007900D92A835B107D9F722E0C6
:10011000A8E5B2E001C01D92A237B207E1F72AD2EA
:100120000C9453096DCFCF93C82F8A3011F48DE012
:10013000FADFE0ECF0E0808185FFFDCFC093C600E0
:1001400080E090E0CF910895CF93C82F80ED90E0AC
:10015000F5D28C2F90E048D337D381ED90E0EED2EA
:1001600064D3C82F31D38C2FCF910895CF93DF93D1
:1001700083E4EADFC82FD0E0DC2FCC2784E4E4DF7F
:100180009E01282BC901DF91CF910895CF93DF9372
:1001900085E4DADFC82FD0E0DC2FCC2786E4D4DF7B
:1001A0009E01282BC901DF91CF910895CF93DF9352
:1001B00087E4CADFC82FD0E0DC2FCC2788E4C4DF77
:1001C0009E01282BC901DF91CF910895CF92DF9234
:1001D000EF92FF920F931F93CF93DF936C017B01FC
:1001E0008A0186E092E030D4C0EDD7E0BFDFF601AF
:1001F0004081518162817381480F591F611D711DBA
:100200004083518362837383C1DFF7014081518151
:1002100062817381480F591F611D711D4083518395
:1002200062837383C3DFF8014081518162817381EE
:10023000480F591F611D711D408351836283738371
:100240002197A1F6F60160817181828193819923C2
:10025000ACF49B01772324F422273327261B370B8A
:10026000C90160ED77E006D3CB01770FAA0BBB0B7A
:10027000F60180839183A283B3830AC020ED37E027
:1002800040E050E00AD3F601208331834283538358
:10029000F70160817181828193819923ACF49B0184
:1002A000772324F422273327261B370BC90160ED5F
:1002B00077E0E0D2CB01770FAA0BBB0BF70180836D
:1002C0009183A283B3830AC020ED37E040E050E081
:1002D000E4D2F7012083318342835383F8016081A4
:1002E0007181828193819923ACF49B01772324F45B
:1002F00022273327261B370BC90160ED77E0BAD2DE
:10030000CB01770FAA0BBB0BF80180839183A283EB
:10031000B3830AC020ED37E040E050E0BED2F801E0
:100320002083318342835383DF91CF911F910F91BB
:10033000FF90EF90DF90CF900895CF93DF938BE302
:1003400003DFC82FD0E0DC2FCC278CE3FDDE9E013D
:10035000282BC901DF91CF910895CF93DF938DE3CF
:10036000F3DEC82FD0E0DC2FCC278EE3EDDE9E013C
:10037000282BC901DF91CF910895CF93DF938FE3AD
:10038000E3DEC82FD0E0DC2FCC2780E4DDDE9E0149
:10039000282BC901DF91CF910895CF92DF92EF9280
:1003A000FF920F931F93CF93DF936C017B018A0120
:1003B0008AE192E049D3C0EDD7E0BFDFF60140818A
:1003C000518162817381480F591F611D711D4083E6
:1003D000518362837383C1DFF70140815181628160
:1003E0007381480F591F611D711D408351836283C2
:1003F0007383C3DFF8014081518162817381480FAB
:10040000591F611D711D408351836283738321973E
:10041000A1F6F60160817181828193819923ACF408
:100420009B01772324F422273327261B370BC9018E
:1004300060ED77E01FD2CB01770FAA0BBB0BF60163
:1004400080839183A283B3830AC020ED37E040E02C
:1004500050E023D2F6012083318342835383F70196
:1004600060817181828193819923ACF49B01772310
:1004700024F422273327261B370BC90160ED77E0D0
:10048000F9D1CB01770FAA0BBB0BF70180839183C6
:10049000A283B3830AC020ED37E040E050E0FDD1F5
:1004A000F7012083318342835383F8016081718196
:1004B000828193819923ACF49B01772324F4222732
:1004C0003327261B370BC90160ED77E0D3D1CB0171
:1004D000770FAA0BBB0BF80180839183A283B383B0
:1004E0000AC020ED37E040E050E0D7D1F80120838A
:1004F000318342835383DF91CF911F910F91FF90FE
:10050000EF90DF90CF900895CF93DF93D82FC62F31
:1005100080ED90E013D18D2F90E066D18C2F90E08C
:1005200063D152D1DF91CF9108950F931F93CF9351
:10053000DF93CDB7DEB72A970FB6F894DEBF0FBEB4
:10054000CDBF4AE08E010F5F1F4FB801FC018081D3
:100550009181F5D11F930F935FD20F900F902A9640
:100560000FB6F894DEBF0FBECDBFDF91CF911F91C4
:100570000F910895CF93DF93CDB7DEB76A970FB68B
:10058000F894DEBF0FBECDBF80E190E068D160E09F
:1005900070E083E990E0F6D190935902809358027D
:1005A0007894C6D019821A821B821C821D821E82F8
:1005B0001F82188619861A861B861C861D861E8633
:1005C0001F86188A198A1A8A1B8A1C8A1D8A1E8A03
:1005D0001F8A188E8AE090E032D268E070E08BE1EA
:1005E00090E092DF60E170E08CE190E08DDFAE01A1
:1005F000475F5F4FBE016B5F7F4FCE010196E6DD27
:10060000AE014B5E5F4FBE016F5E7F4FCE010D9618
:10061000C4DE0F2EF7E38F2EF2E09F2EF02D0BE3BA
:1006200012E00F2EFEE3AF2EF2E0BF2EF02D0F2EC4
:10063000F3E5CF2EF2E0DF2EF02D0F2EF2E4EF2EB9
:10064000F2E0FF2EF02D0F2EF9E46F2EF2E07F2E58
:10065000F02D0F2EF0E54F2EF2E05F2EF02D86DD0F
:1006600029813A81821B930B9A8F898F9F928F9257
:10067000D3D1CE01499659DF1F930F93CDD186DD9B
:100680002D813E81821B930B9A8F898FBF92AF92EF
:10069000C3D1CE01499649DF1F930F93BDD186DDAB
:1006A00029853A85821B930B9A8F898FDF92CF928F
:1006B000B3D1CE01499639DF1F930F93ADD13DDE03
:1006C0002D853E85821B930B9A8F898FFF92EF9227
:1006D000A3D1CE01499629DF1F930F939DD13DDE13
:1006E00029893A89821B930B9A8F898F7F926F9207
:1006F00093D1CE01499619DF1F930F938DD13DDE23
:100700002D893E89821B930B9A8F898F5F924F921E
:1007100083D1CE01499609DF1F930F937DD18AE0E3
:1007200090E08DD10FB6F894DEBF0FBECDBF97CF4E
:100730001092B9008CE08093B800089594EA9093E9
:10074000BC004FEF50E060E070E0ECEBF0E0908137
:10075000992334F04150510961097109C0F704C06F
:10076000452B462B472B41F19091B900987F98304B
:1007700011F0903119F58093BB0084E88093BC00A0
:100780008FEF90E0A0E0B0E0ECEBF0E020812223DE
:100790002CF00197A109B109C8F704C0892B8A2B55
:1007A0008B2B71F09091B900987F983159F081E0CE
:1007B000903449F480E0089581E0089581E008953F
:1007C00081E0089580E0089584E98093BC0080E092
:1007D00090E0ECEBF0E0208124FF05C0019681154C
:1007E00021E09207C1F708958093BB0084E88093CD
:1007F000BC008FEF90E0A0E0B0E0ECEBF0E02081F7
:1008000022232CF00197A109B109C8F704C0892B54
:100810008A2B8B2B41F09091B900987F81E0983220
:1008200019F480E0089581E0089584E88093BC0085
:100830008FEF90E0A0E0B0E0ECEBF0E0208122232D
:100840002CF00197A109B109C8F704C0892B8A2BA4
:100850008B2B19F08091BB00089580E00895909350
:10086000C5008093C40088E08093C1008EE080932F
:10087000C200089597FB072E16F4009406D077FD6A
:1008800008D027D007FC05D03EF4909581959F4F66
:100890000895709561957F4F0895052E97FB16F486
:1008A00000940FD057FD05D028D007FC02D046F4A5
:1008B00008C050954095309521953F4F4F4F5F4F61
:1008C000089590958095709561957F4F8F4F9F4FBC
:1008D0000895AA1BBB1B51E107C0AA1FBB1FA61787
:1008E000B70710F0A61BB70B881F991F5A95A9F7D9
:1008F00080959095BC01CD010895A1E21A2EAA1B06
:10090000BB1BFD010DC0AA1FBB1FEE1FFF1FA217BF
:10091000B307E407F50720F0A21BB30BE40BF50BBC
:10092000661F771F881F991F1A9469F76095709545
:10093000809590959B01AC01BD01CF010895BB2727
:100940004A3031F4992322F4BDE2909581959F4F6E
:1009500001C0BB27FB015527AA27880F991FAA1F93
:10096000A41710F0A41B83955051B9F7A05DAA33CA
:1009700008F0A95DA193009779F7B111B193119295
:10098000CB01E7C30F931F93CF93DF93009731F40D
:100990006115710519F480E090E039C08B01EC011C
:1009A0006EE070E081E090E07CD2FC01892B99F34D
:1009B00080E883830115110571F01387028781E8B0
:1009C00083838091680290916902892B21F4F093CE
:1009D0006902E09368022097C9F0D187C0878381BC
:1009E0008260838380916A0290916B02892B71F4FB
:1009F000F0936B02E0936A0280916C0290916D0219
:100A0000892B21F4F0936D02E0936C02CF01DF910A
:100A1000CF911F910F910895CF93DF93CDB7DEB79C
:100A2000AE014A5F5F4FFA0161917191AF01809110
:100A30006A0290916B0238D0DF91CF910895609156
:100A40006A0270916B0295C30F931F93CF93DF934C
:100A5000E0916A02F0916B02238121FF1BC08C019F
:100A6000D0E0C0E0F80181918F0160916A0270913D
:100A70006B02DB011896ED91FC911997882331F0F8
:100A80001995892B79F3DFEFCFEFECCF8AE0199539
:100A9000892B19F08FEF9FEF02C08D2F9C2FDF91D4
:100AA000CF911F910F9108952F923F924F925F9295
:100AB0006F927F928F929F92AF92BF92CF92DF926E
:100AC000EF92FF920F931F93CF93DF93CDB7DEB7D3
:100AD0002B970FB6F894DEBF0FBECDBF6C017B0124
:100AE0008A01FC0117821682838181FFBFC1CE017A
:100AF00001963C01F6019381F70193FD859193FFE7
:100B000081917F01882309F4ADC1853239F493FDC9
:100B1000859193FF81917F01853221F4B60190E0A8
:100B200028D3E8CF912C212C312CFFE1F315D8F0FC
:100B30008B3279F038F4803279F08332A1F4232DAE
:100B400020611DC08D3261F0803369F4232D216056
:100B500016C0832D8260382EE32DE4603E2E2AC01D
:100B6000F32DF8601DC037FC2DC020ED280F2A3072
:100B700040F08E32B9F436FC75C1232D2064322E3C
:100B800019C036FE06C08AE0989E200D1124922ED0
:100B900011C0EAE02E9E200D1124222EF32DF062CA
:100BA0003F2E08C08C3621F4832D8068382E02C079
:100BB000883641F4F70193FD859193FF81917F0180
:100BC0008111B3CF982F9F7D9554933028F40C5FFB
:100BD0001F4F9FE399830DC0833631F0833771F047
:100BE000833509F055C020C0F801808189830E5FEC
:100BF0001F4F88248394912C530112C02801F2E0E6
:100C00004F0E511CF801A080B18036FE03C0692D43
:100C100070E002C06FEF7FEFC50190D24C018201FE
:100C2000F32DFF773F2E15C0280122E0420E511C04
:100C3000F801A080B18036FE03C0692D70E002C0CB
:100C40006FEF7FEFC50168D24C01F32DF0683F2EA6
:100C5000820133FC19C0822D90E088169906A0F419
:100C6000B60180E290E085D22A94F5CFF50137FCF9
:100C7000859137FE81915F01B60190E07AD2211013
:100C80002A9421E0821A91088114910479F7E1C035
:100C9000843611F0893639F5F80137FE07C06081D6
:100CA0007181828193810C5F1F4F08C060817181C7
:100CB000072E000C880B990B0E5F1F4FF32DFF764C
:100CC0003F2E97FF09C090958095709561957F4F55
:100CD0008F4F9F4FF0683F2E2AE030E0A30185D26E
:100CE000882E861844C0853731F4232D2F7EB22EEE
:100CF0002AE030E025C0932D997FB92E8F36C1F0C0
:100D000018F4883579F0AEC0803719F0883721F0B3
:100D1000A9C0E92FE061BE2EB4FE0DC0FB2DF4602A
:100D2000BF2E09C034FE0AC0292F2660B22E06C08D
:100D300028E030E005C020E130E002C020E132E0F0
:100D4000F801B7FE07C060817181828193810C5FD9
:100D50001F4F06C06081718180E090E00E5F1F4FE1
:100D6000A30143D2882E8618FB2DFF773F2E36FE37
:100D70000DC0232D2E7FA22E891458F434FE0BC0F3
:100D800032FC09C0832D8E7EA82E05C0B82CA32C62
:100D900003C0B82C01C0B92CA4FE0FC0FE01E80DA1
:100DA000F11D8081803321F49A2D997EA92E09C0EE
:100DB000A2FE06C0B394B39404C08A2D867809F0CD
:100DC000B394A3FC10C0A0FE06C0B21480F4280C9B
:100DD000922C9B180DC0B21458F4B60180E290E03A
:100DE000C8D1B394F8CFB21418F42B1802C0982CC1
:100DF000212CA4FE0FC0B60180E390E0BAD1A2FE80
:100E000016C0A1FC03C088E790E002C088E590E02E
:100E1000B6010CC08A2D867851F0A1FE02C08BE28B
:100E200001C080E2A7FC8DE2B60190E0A2D1891456
:100E300030F4B60180E390E09CD19A94F8CF8A9484
:100E4000F301E80DF11D8081B60190E092D181108F
:100E5000F6CF222009F44ECEB60180E290E089D18F
:100E60002A94F7CFF6018681978102C08FEF9FEF1A
:100E70002B960FB6F894DEBF0FBECDBFDF91CF919A
:100E80001F910F91FF90EF90DF90CF90BF90AF90A8
:100E90009F908F907F906F905F904F903F902F909A
:100EA00008950F931F93CF93DF93869F8001879FB1
:100EB000100D969F100D1124C8010DD0EC01009764
:100EC00021F0A80160E070E032D1CE01DF91CF9136
:100ED0001F910F9108950F931F93CF93DF9382304B
:100EE000910510F482E090E0E0917002F0917102BF
:100EF00020E030E0A0E0B0E0309719F1408151816E
:100F00000281138148175907C8F08417950769F4BF
:100F1000109731F012960C93129713961C9327C0DA
:100F2000009370021093710222C02115310519F04F
:100F30004217530718F49A01BD01EF01DF01F801D0
:100F4000DBCF21153105F9F0281B390B2430310591
:100F500080F48A819B816115710521F0FB019383E7
:100F6000828304C09093710280937002FE013296D6
:100F700044C0FE01E20FF31F819391932250310987
:100F8000398328833AC020916E0230916F02232B5F
:100F900041F4209102023091030230936F022093BA
:100FA0006E0220910002309101022115310541F4B9
:100FB0002DB73EB74091040250910502241B350B1A
:100FC000E0916E02F0916F02E217F307A0F42E1B7E
:100FD0003F0B2817390778F0AC014E5F5F4F24179D
:100FE000350748F04E0F5F1F50936F0240936E021B
:100FF0008193919302C0E0E0F0E0CF01DF91CF91C7
:101000001F910F910895CF93DF93009709F481C04A
:10101000FC01329713821282A0917002B09171028A
:10102000109781F420813181820F931F20916E02ED
:1010300030916F022817390751F5F0936F02E09352
:101040006E0267C0ED0120E030E0CE17DF0740F40C
:101050004A815B819E0141155105F1F0EA01F5CF0E
:10106000D383C28340815181840F951FC817D9074C
:1010700059F488819981840F951F0296918380830A
:101080008A819B81938382832115310529F4F09312
:101090007102E09370023DC0E901FB83EA8349914C
:1010A0005991C40FD51FEC17FD0761F48081918120
:1010B000840F951F0296E901998388838281938129
:1010C0009B838A83E0E0F0E012968D919C911397C8
:1010D000009719F0FD01DC01F7CF8D919C911197DC
:1010E0009D012E5F3F4F820F931F20916E02309122
:1010F0006F022817390769F4309729F410927102AA
:101100001092700202C013821282B0936F02A093F9
:101110006E02DF91CF910895FC01059061507040FF
:101120000110D8F7809590958E0F9F1F0895DC01D0
:1011300001C06D9341505040E0F70895FC016150AB
:10114000704001900110D8F7809590958E0F9F1FE9
:101150000895DC01FC01672F71917723E1F7329745
:1011600004C07C916D9370836291AE17BF07C8F382
:1011700008950F931F93CF93DF93FB01238121FDEC
:1011800003C08FEF9FEF2CC022FF16C0468157810E
:10119000248135814217530744F4A081B1819D0118
:1011A0002F5F3F4F318320838C93268137812F5FC0
:1011B0003F4F3783268314C08B01EC01FB01008471
:1011C000F185E02D1995892BE1F6D80116968D91C0
:1011D0009C911797019617969C938E931697CE0124
:1011E000DF91CF911F910F910895FA01AA2728301E
:1011F00051F1203181F1E8946F936E7F6E5F7F4FE4
:101200008F4F9F4FAF4FB1E03ED0B4E03CD0670F5F
:10121000781F891F9A1FA11D680F791F8A1F911DB2
:10122000A11D6A0F711D811D911DA11D20D009F402
:1012300068943F912AE0269F11243019305D319344
:10124000DEF6CF010895462F4770405D4193B3E02D
:101250000FD0C9F7F6CF462F4F70405D4A3318F0D4
:10126000495D31FD4052419302D0A9F7EACFB4E085
:10127000A6959795879577956795BA95C9F700973D
:101280006105710508959B01AC010A2E06945795DE
:10129000479537952795BA95C9F7620F731F841F35
:0A12A000951FA01D0895F894FFCFDC
:1012AA0000007202200043616C6962726174696EA7
:1012BA0067204779726F2E2E2E0043616C69627225
:1012CA006174696E6720416363656C65726F6D65F1
:1012DA007465722E2E2E00783D2000202000793D64
:1012EA002000616363583D2000616363593D20001B
:0812FA006163635A3D2000000E
:00000001FF
