S00C00006472765F2E737265636D
S113000009C1000027C1000025C1000023C1000070
S113001021C100001FC100001DC100001BC1000060
S113002019C1000017C1000015C1000013C1000070
S113003011C100000FC100000DC100000BC1000080
S113004009C1000007C1000005C1000003C1000090
S113005001C10000FFC00000FDC000000C94A40812
S1130060F9C00000F7C00000F5C00000F3C00000B4
S1130070F1C00000EFC00000EDC00000EBC00000C4
S1130080E9C00000E7C00000E5C00000E3C00000D4
S1130090E1C00000DFC00000DDC00000DBC00000E4
S11300A0D9C00000D7C00000D5C00000D3C00000F4
S11300B0D1C00000CFC00000CDC000000C94EE08F9
S11300C0C9C00000C7C00000C5C00000C3C0000014
S11300D0C1C00000BFC00000BDC00000BBC0000024
S11300E0B9C00000084AD73B3BCE016E84BCBFFDBB
S11300F0C12F3D6C74319ABD56833DDA3D00C77FF4
S113010011BED9E4BB4C3E916BAAAABE000000808C
S11301103F006E616E00696E660000407A10F35A0B
S113012000A0724E18090010A5D4E80000E8764833
S1130130170000E40B54020000CA9A3B000000E1DF
S1130140F505000080969800000040420F00000072
S1130150A08601000000102700000000E803000052
S113016000006400000000000A000000000001001C
S1130170000000002C76D888DC674F0823DFC1DF3D
S1130180AE59E1B1B796E5E3E453C63AE651997640
S113019096E8E6C28426EB898C9B62ED407C6FFC7A
S11301A0EFBC9C9F40F2BAA56FA5F490055A2AF7BC
S11301B05C936B6CF9676DC11BFCE0E40D47FEF5C5
S11301C020E6B500D0ED902E03009435770500802D
S11301D0841E080000204E0A000000C80C3333338C
S11301E0330F986E12831141EF8D2114893BE6552C
S11301F016CFFEE6DB18D1844B381BF77C1D901D0F
S1130200A4BBE424203284725E228100C9F124EC70
S1130210A1E53D2711241FBECFEFD1E2DEBFCDBF44
S113022000E00CBF13E0A0E0B2E0E0E9F8E200E097
S11302300BBF02C007900D92AA39B107D9F724E089
S1130240AAE9B3E001C01D92A531B207E1F751D488
S11302500C944614D5CEE1E0F1E08081886080837F
S11302608081806180838081806280830895E091B1
S11302709A03F0919B03EA5FFD4F808190E0909395
S1130280A9008093A800E0917103F0917203EA5FE2
S1130290FD4F808190E09093AB008093AA00E091A1
S11302A06F03F0917003EA5FFD4F808190E09093BB
S11302B0AD008093AC006091A9037091AA034091B2
S11302C09A0350919B03460F571F50939B034093EF
S11302D09A032091710330917203260F371F3093D4
S11302E072032093710380916F0390917003860FC2
S11302F0971F9093700380936F03493661E056070C
S11303002CF010929B0310929A0308C0552334F4E6
S113031048E651E050939B0340939A03293641E009
S113032034072CF0109272031092710308C0332327
S113033034F428E631E03093720320937103893654
S113034061E096072CF01092700310926F0308C0BE
S1130350992334F488E691E09093700380936F03BB
S11303608091A5039091A60390932901809328017D
S11303700895089A0A9A0C9A0E9A3F9A109A129A19
S1130380149A169A479A08954F925F926F927F92A9
S11303908F929F92AF92BF92CF92DF92EF92FF9291
S11303A00F931F93CF93DF93CDB7DEB76C970FB640
S11303B0F894DEBF0FBECDBF698B7A8B8B8B9C8B81
S11303C0CA01B901E982FA820B831C83C090B70386
S11303D0D090B803E090B903F090BA03A701960156
S11303E00E943D0A6093AF037093B0038093B103FE
S11303F09093B20329813A814B815C810E947F0CE6
S11304002091DB033091DC034091DD035091DE0346
S11304100E943E0A6D8B7E8B8F8B988F8090F303A6
S11304209090F403A090F503B090F603A501940115
S113043069817A818B819C810E947F0C6D837E838C
S11304408F8398874090EB035090EC036090ED030A
S11304507090EE038091EF039091F003A091F1036B
S1130460B091F2038D879E87AF87B88BA301920169
S11304706D817E818F8198850E943D0A2D853E8500
S11304804F855889FAD72091B3033091B403409132
S1130490B5035091B603F2D729813A814B815C812F
S11304A00E947F0CA7EEB3E02D913D914D915C919C
S11304B0E5D769877A878B879C872D813E814F8119
S11304C05885C301B201D9D72B013C012D813E814E
S11304D04F8158856D857E858F859889CED76D87A8
S11304E07E878F87988B2091AB033091AC0340912A
S11304F0AD035091AE0369817A818B819C810E9406
S11305007F0CA5019401BAD7698F7A8F8B8F9C8F4A
S11305102091D3033091D4034091D5035091D60355
S113052069857A858B859C85A9D74B015C019B01E4
S1130530AC0169857A858B859C850E94080B69834B
S11305407A838B839C83A50194016D857E858F8539
S113055098890E94080B6D837E838F8398872D89E9
S11305603E894F89588D69897A898B899C8985D779
S1130570698B7A8B8B8B9C8B9B01AC0169817A8113
S11305808B819C810E947F0C2D893E894F89588DD7
S113059075D74B015C016093DB037093DC0380939C
S11305A0DD039093DE0329893A894B895C896D8147
S11305B07E818F8198850E947F0CA70196015ED76A
S11305C06093B7037093B8038093B9039093BA030D
S11305D029813A814B815C8169857A858B859C85EB
S11305E00E947F0C9B01AC0169857A858B859C8573
S11305F044D7E7EEF3E06083718382839383298198
S11306003A814B815C81C301B2010E947F0C9B0142
S1130610AC01C301B20131D76093EB037093EC03D7
S11306208093ED039093EE032D813E814F81588595
S113063069857A858B859C850E947F0C9B01AC0122
S11306406D857E858F85988918D76093EF037093A5
S1130650F0038093F1039093F2032D813E814F8147
S11306605885C301B2010E947F0C9B01AC01698DC6
S11306707A8D8B8D9C8D01D76093F3037093F40373
S11306808093F5039093F603C501B4016C960FB6FD
S1130690F894DEBF0FBECDBFDF91CF911F910F91B4
S11306A0FF90EF90DF90CF90BF90AF909F908F908E
S11306B07F906F905F904F9008958FE692E1A3E84A
S11306C0BAE38093B3039093B403A093B503B093B8
S11306D0B60386EA9BE9A4E4BBE38093AB0390935F
S11306E0AC03A093AD03B093AE038FE892ECA5EFF7
S11306F0BCE38093D3039093D403A093D503B09326
S1130700D6031092DB031092DC031092DD031092E7
S1130710DE031092B7031092B8031092B90310923B
S1130720BA03E7EEF3E0108211821282138214827C
S113073015821682178210861186128613861486F5
S113074015861686178608954F925F926F927F9250
S11307508F929F92AF92BF92CF92DF92EF92FF92CD
S11307600F931F93CF93DF93CDB7DEB76C970FB67C
S1130770F894DEBF0FBECDBF698B7A8B8B8B9C8BBD
S1130780CA01B901E982FA820B831C83C090D703A2
S1130790D090D803E090D903F090DA03A701960132
S11307A06CD66093CF037093D0038093D10390935E
S11307B0D20329813A814B815C810E947F0C209174
S11307C0BB033091BC034091BD035091BE0356D688
S11307D06D8B7E8B8F8B988F8090CB039090CC0306
S11307E0A090CD03B090CE03A501940169817A81D4
S11307F08B819C810E947F0C6D837E838F8398877D
S11308004090C3035090C4036090C5037090C60326
S11308108091C7039091C803A091C903B091CA0302
S11308208D879E87AF87B88BA30192016D817E81EE
S11308308F81988522D62D853E854F8558891DD672
S11308402091F7033091F8034091F9035091FA0392
S113085015D629813A814B815C810E947F0CAFEBD4
S1130860B3E02D913D914D915C9108D669877A87CB
S11308708B879C872D813E814F815885C301B201AE
S1130880FCD52B013C012D813E814F8158856D851E
S11308907E858F859889F1D56D877E878F87988B24
S11308A02091E3033091E4034091E5035091E60382
S11308B069817A818B819C810E947F0CA5019401BE
S11308C0DDD5698F7A8F8B8F9C8F2091DF033091D8
S11308D0E0034091E1035091E20369857A858B85B9
S11308E09C85CCD54B015C019B01AC0169857A8563
S11308F08B859C858DD669837A838B839C83A501A4
S113090094016D857E858F85988982D66D837E83DB
S11309108F8398872D893E894F89588D69897A8973
S11309208B899C89AAD5698B7A8B8B8B9C8B9B0139
S1130930AC0169817A818B819C81E1D72D893E89C3
S11309404F89588D9BD54B015C016093BB03709319
S1130950BC038093BD039093BE0329893A894B89D4
S11309605C896D817E818F819885C9D7A7019601A5
S113097085D56093D7037093D8038093D90390935C
S1130980DA0329813A814B815C8169857A858B857B
S11309909C85B5D79B01AC0169857A858B859C853F
S11309A06CD5EFEBF3E060837183828393832981B9
S11309B03A814B815C81C301B201A1D79B01AC0197
S11309C0C301B2015AD56093C3037093C4038093E7
S11309D0C5039093C6032D813E814F815885698557
S11309E07A858B859C858BD79B01AC016D857E8533
S11309F08F85988942D56093C7037093C803809309
S1130A00C9039093CA032D813E814F815885C30148
S1130A10B20175D79B01AC01698D7A8D8B8D9C8D4C
S1130A202CD56093CB037093CC038093CD03909328
S1130A30CE03C501B4016C960FB6F894DEBF0FBEA9
S1130A40CDBFDF91CF911F910F91FF90EF90DF9079
S1130A50CF90BF90AF909F908F907F906F905F905A
S1130A604F9008958FE692E1A3E8BAE38093F703E9
S1130A709093F803A093F903B093FA0386EA9BE9F1
S1130A80A4E4BBE38093E3039093E403A093E5031E
S1130A90B093E6038FE892ECA5EFBCE38093DF0309
S1130AA09093E003A093E103B093E2031092BB039D
S1130AB01092BC031092BD031092BE031092D70390
S1130AC01092D8031092D9031092DA03EFEBF3E0FB
S1130AD01082118212821382148215821682178266
S1130AE01086118612861386148615861686178636
S1130AF00895CF93DF93CDB7DEB7A8970FB6F894D8
S1130B00DEBF0FBECDBF10929B0310929A0388E7FD
S1130B1090E0909372038093710380EF90E0909340
S1130B20700380936F038FEF9FEF9093AA038093DA
S1130B30A90380ED97E09093A6038093A503F8940E
S1130B408ADB17DC72D38CE090E020D460E070E0A4
S1130B5081ED99E00E94DA119093FC038093FB03EA
S1130B60C0D2C6D29BD2AED2B6D280EA9FE09093D6
S1130B70290180932801C2D2698F7A8F8B8F9C8F31
S1130B8067E089E1CAD160E08AE1C7D168E08BE11E
S1130B90C4D160E18CE1C1D161E08BE6BED18DDDD1
S1130BA061DF2FEF31EE44E0215030404040E1F767
S1130BB000C000001092DB031092DC031092DD03EE
S1130BC01092DE031092BB031092BC031092BD037B
S1130BD01092BE037894198A1A8A1B8A1C8A0F2ED3
S1130BE0FFED2F2EFFE73F2EF02D04C04DA25EA295
S1130BF06FA278A6CE0105967C018E010D5F1F4F72
S1130C009E012F5F3F4FAE01455F5F4FBE01675F9F
S1130C107F4F0296D8D189819A8184599F4F9A83B4
S1130C2089838B819C8180529F4F9C838B838D8190
S1130C309E818F589D4F9E838D8360D2298D3A8DDE
S1130C404B8D5C8D621B730B840B950B7AD520E066
S1130C5034E244E759E4DCD46D877E878F87988B30
S1130C604DD2698F7A8F8B8F9C8F69817A81072E01
S1130C70000C880B990B67D520E030E043E852E480
S1130C80C7D46D8F7E8F8F8F98A36B817C81072E45
S1130C90000C880B990B57D520E030E043E852E470
S1130CA0B7D469A37AA38BA39CA380917303909177
S1130CB07403892B21F01092740310927303CB8474
S1130CC0DC84E984FA84B6010D2C000C880B990BA2
S1130CD03AD54B015C01B7010F2C000C880B990B22
S1130CE032D5A50194013DD421EE3EE245E652E41D
S1130CF006D66D8B7E8B8F8B988FC70164E670E070
S1130D000E94C510072E000C880B990B1CD54B01B3
S1130D105C01C60164E670E00E94C510072E000C59
S1130D20880B990B10D56B017C01A5019401C501B9
S1130D30B401E5D54B015C01A7019601C701B601D9
S1130D40DED59B01AC01C501B40198D33FD620E0A8
S1130D5030E048EC52E4D3D56B017C016F81788597
S1130D60072E000C880B990BEED4A7019601F9D33A
S1130D7021EE3EE245E652E4C2D54B015C01ED842E
S1130D80FE840F8518892D8D3E8D4F8D58A16D8958
S1130D907E898F89988DF8DA462E572E682E792E03
S1130DA0ED84FE840F85188929A13AA14BA15CA189
S1130DB0C501B401C9DC6B017C01442D552D662DA0
S1130DC0772D85E793E037D3B701A6018CE793E04D
S1130DD032D34D895E896F89788D83E893E02BD374
S1130DE0B501A4018BE893E026D320E030E0A9010B
S1130DF0642D752D862D972D82D59B01AC016989B3
S1130E007A898B899C893AD3698B7A8B8B8B9C8B5F
S1130E108AE090E00E947312642D752D862D972D23
S1130E205FD45B01772324F4AA24BB24A61AB70A4F
S1130E302DA13EA14FA158A5642D752D862D972D6A
S1130E401CD32D853E854F855889E2D320E030E0C0
S1130E5040E251E454D56B017C0120E030E04AEFDC
S1130E6053E4642D752D862D972D49D529893A890A
S1130E704B895C8903D39B01AC01C701B601FED247
S1130E802FD49B01772324F422273327261B370BE7
S1130E90A101421B530BCA01992324F488279927E3
S1130EA0841B950B893853E1950724F09093A6038E
S1130EB08093A503B5010B2C000C880B990B43D42C
S1130EC02CEE31E548E35EE39FD3181624F48EE25A
S1130ED0A816B1042CF01092AA031092A90386CE8E
S1130EE02CEE31E548E35EE3642D752D862D972DB8
S1130EF08BD388234CF4F89421E030E03093AA0398
S1130F002093A903789472CEF8944FEF5FEF509337
S1130F10AA034093A903789469CECF93DF93D82F83
S1130F20C62F80ED88D18D2FDCD18C2FDAD1C9D199
S1130F30DF91CF910895AF92BF92CF92DF92FF924B
S1130F400F931F93CF93DF93662389F1C52FD42F7B
S1130F50F62E182F80ED6FD1812FC3D185E38A95AA
S1130F60F1F7000081ED67D10D2F1C2FCC24CA941A
S1130F70CF0CD12CEFEFCE1ADE0AC0E0D0E0AF2CBC
S1130F80B12CF1E0AF1AB108AC16BD0621F4E4D1DE
S1130F90F801808303C0C6D1F801808321960F5FD6
S1130FA01F4FCC15DD0581F7CF2D8BD101C0C0E0DB
S1130FB08C2FDF91CF911F910F91FF90DF90CF90F5
S1130FC0BF90AF9008956F927F928F929F92AF924D
S1130FD0BF92CF92DF92EF92FF920F931F93CF9322
S1130FE0DF93CDB7DEB72E970FB6F894DEBF0FBEF2
S1130FF0CDBF4C015B016A013901AE014F5F5F4F08
S11310006EE08BE398DF898190E0982F88272A810E
S1131010822BF401918380838B8190E0982F882721
S11310202C81822BF501918380838D8190E0982F10
S113103088272E81822BF60191838083898590E015
S1131040982F88272A85822BF301918380838B85AF
S113105090E0982F88272C85822BF8019183808338
S11310608D8590E0982F88272E85822BF701918318
S113107080832E960FB6F894DEBF0FBECDBFDF91EE
S1131080CF911F910F91FF90EF90DF90CF90BF9081
S1131090AF909F908F907F906F900895E1EAF0E079
S11310A0808181608083E0EAF0E0808181608083D8
S11310B08081806880838081806280838081886071
S11310C080830895E1E2F1E0808181608083808102
S11310D0886080830895E3E7F0E080818260808304
S11310E0089585B5816085BD85B5826085BD089507
S11310F0EEE6F0E080818160808308953FB7F89444
S11311008091A1039091A203A091A303B091A403A1
S113111026B5A89B05C02F3F19F00196A11DB11D4E
S11311203FBFBA2FA92F982F8827820F911DA11D89
S1131130B11DBC01CD01660F771F881F991F660F73
S1131140771F881F991F08951F920F920FB60F9251
S113115011242F933F938F939F93AF93BF938091C9
S11311609D0390919E03A0919F03B091A0033091A1
S11311709C0323E0230F2D3720F40196A11DB11DFC
S113118005C026E8230F0296A11DB11D20939C03E0
S113119080939D0390939E03A0939F03B093A00319
S11311A08091A1039091A203A091A303B091A40301
S11311B00196A11DB11D8093A1039093A203A09356
S11311C0A303B093A403BF91AF919F918F913F91DB
S11311D02F910F900FBE0F901F9018951F920F9292
S11311E00FB60F9211240BB60F922F933F934F9388
S11311F05F936F937F938F939F93AF93BF93EF937B
S1131200FF9335D8FF91EF91BF91AF919F918F914B
S11312107F916F915F914F913F912F910F900BBEF2
S11312200F900FBE0F901F9018951092B9008CE08C
S11312308093B800089594EA9093BC004FEF50E077
S113124060E070E0ECEBF0E09081992334F04150E1
S1131250510961097109C0F704C0452B462B472B7E
S113126041F19091B900987F983011F0903119F5BF
S11312708093BB0084E88093BC008FEF90E0A0E0F3
S1131280B0E0ECEBF0E0208122232CF00197A109DF
S1131290B109C8F704C0892B8A2B8B2B71F090916C
S11312A0B900987F983159F081E0903449F480E096
S11312B0089581E0089581E0089581E0089580E033
S11312C0089584E98093BC0080E090E0ECEBF0E0CA
S11312D0208124FF05C00196811521E09207C1F702
S11312E008958093BB0084E88093BC008FEF90E066
S11312F0A0E0B0E0ECEBF0E0208122232CF0019799
S1131300A109B109C8F704C0892B8A2B8B2B41F0A2
S11313109091B900987F81E0983219F480E00895A3
S113132081E0089584EC8093BC008FEF90E0A0E00E
S1131330B0E0ECEBF0E0208122232CF00197A1092E
S1131340B109C8F704C0892B8A2B8B2B19F0809123
S1131350BB00089580E0089584E88093BC008FEF7B
S113136090E0A0E0B0E0ECEBF0E0208122232CF050
S11313700197A109B109C8F704C0892B8A2B8B2BCB
S113138019F08091BB00089580E008959093C50002
S11313908093C40088E08093C1008EE08093C200F3
S11313A00895CF93C82F8A3011F48DE0FADFE0EC72
S11313B0F0E0808185FFFDCFC093C60080E090E01F
S11313C0CF9108950F931F93CF93DF93CDB7DEB7DB
S11313D064970FB6F894DEBF0FBECDBFFC018E013B
S11313E00F5F1F4F84E1D8011D928A95E9F783812D
S11313F08F9382818F9381818F9380818F9387E9EB
S113140093E09F938F931F930F930E9478121F93DF
S11314100F930E9460120FB6F894DEBF0FBECDBFCB
S113142064960FB6F894DEBF0FBECDBFDF91CF91A7
S11314301F910F910895CF93DF9300D01F92CDB7E2
S1131440DEB749835A836B837C839F938F930E9477
S11314506012CE010196B6DF84E993E09F938F93E7
S11314600E9460120F900F900F900F900F900F90AA
S11314700F900F90DF91CF9108955058BB27AA2762
S11314800ED0FCC1EDD130F0F2D120F031F49F3F09
S113149011F41EF4BDC10EF4E095E7FBB3C1E92FCE
S11314A0FED180F3BA17620773078407950718F013
S11314B071F49EF516C20EF4E0950B2EBA2FA02DF2
S11314C00B01B90190010C01CA01A0011124FF27ED
S11314D0591B99F0593F50F4503E68F11A16F040E8
S11314E0A22F232F342F4427585FF3CF46953795E7
S11314F02795A795F0405395C9F77EF41F16BA0BAC
S1131500620B730B840BBAF09150A1F0FF0FBB1F59
S1131510661F771F881FC2F70EC0BA0F621F731FA2
S1131520841F48F4879577956795B795F7959E3FFF
S113153008F0B3CF9395880F08F09927EE0F97958D
S1131540879508958DD158F080E891E009F49EEFD5
S11315508ED128F040E851E059F45EEF09C058C13B
S1131560C0C1E92FE0789BD168F3092E052AC1F3A5
S1131570261737074807590738F00E2E07F8E025D5
S113158069F0E025E0640AC0EF6307F8009407FA05
S1131590DB01B9019D01DC01CA01AD01EF9347D024
S11315A06DD10AD05F91552331F02BED3FE049E432
S11315B050FD49EC63CF0895DF93DD27B92FBF7742
S11315C040E85FE31616170648075B0710F4D92FA7
S11315D08FD19F938F937F936F9336D2E4EEF0E095
S11315E01AD14CD12F913F914F915F9194D1DD232A
S11315F049F09058A2EA2AED3FE049EC5FE3D07845
S11316005D274DDFDF913AC1D9D008F481E0089518
S11316100CD034C12CD140F023D130F021F45F3F01
S113162019F0F0C051115EC1F3C039D198F3992378
S1131630C9F35523B1F3951B550BBB27AA27621792
S11316407307840738F09F5F5F4F220F331F441FD7
S1131650AA1FA9F333D00E2E3AF0E0E830D091500F
S11316605040E695001CCAF729D0FE2F27D0660FFC
S1131670771F881FBB1F261737074807AB07B0E83B
S113168009F0BB0B802DBF01FF2793585F4F2AF051
S11316909E3F510568F0B6C025C15F3FECF3983E0C
S11316A0DCF3869577956795B795F7959F5FC9F7AE
S11316B0880F911D9695879597F90895E1E0660F37
S11316C0771F881FBB1F621773078407BA0720F0B0
S11316D0621B730B840BBA0BEE1F88F7E095089519
S11316E004D06894B111FEC00895E1D088F09F57EA
S11316F090F0B92F9927B751A0F0D1F0660F771F5A
S1131700881F991F1AF0BA95C9F712C0B13081F039
S1131710E8D0B1E00895E5C0672F782F8827B85F37
S113172039F0B93FCCF3869577956795B395D9F79A
S11317303EF490958095709561957F4F8F4F9F4FA4
S11317400895E89409C097FB3EF4909580957095B0
S113175061957F4F8F4F9F4F9923A9F0F92F96E9F9
S1131760BB279395F695879577956795B795F1116E
S1131770F8CFFAF4BB0F11F460FF1BC06F5F7F4F0B
S11317808F4F9F4F16C0882311F096E911C077231D
S113179021F09EE8872F762F05C0662371F096E826
S11317A0862F70E060E02AF09A95660F771F881FF5
S11317B0DAF7880F9695879597F90895990F000899
S11317C0550FAA0BE0E8FEEF16161706E807F9070F
S11317D0C0F012161306E407F50798F0621B730BAA
S11317E0840B950B39F40A2661F0232B242B252B2B
S11317F021F408950A2609F4A140A6958FEF811DCE
S1131800811D089597F99F6780E870E060E008956E
S11318109FEF80EC0895DF93CF931F930F93FF9274
S1131820EF92DF927B018C01689405C0DA2EEF0100
S113183072D0FE01E894A591259135914591559179
S1131840AEF3EF012CDEFE019701A801DA9479F7DB
S1131850DF90EF90FF900F911F91CF91DF9108954A
S113186000240A941616170618060906089500247B
S11318700A9412161306140605060895092E0394F5
S1131880000C11F4882352F0BB0F40F4BF2B11F469
S113189060FF04C06F5F7F4F8F4F9F4F089557FDC8
S11318A09058440F551F59F05F3F71F04795880FCA
S11318B097FB991F61F09F3F79F087950895121661
S11318C013061406551FF2CF4695F1DF08C016160D
S11318D017061806991FF1CF8695710561050894BE
S11318E00895E894BB2766277727CB0197F90895D5
S11318F09B01AC0160E070E080E89FE389CE0BD0EF
S1131900BDCFAEDF28F0B3DF18F0952309F07ACF0E
S11319107FCF1124E7CFC3DFA0F3959FD1F3950FB9
S113192050E0551F629FF001729FBB27F00DB11D5F
S1131930639FAA27F00DB11DAA1F649F6627B00DEF
S1131940A11D661F829F2227B00DA11D621F739FD8
S1131950B00DA11D621F839FA00D611D221F749FE6
S11319603327A00D611D231F849F600D211D822F2D
S1131970762F6A2F11249F5750408AF0E1F0882374
S11319804AF0EE0FFF1FBB1F661F771F881F915081
S11319905040A9F79E3F510570F034CFA3CF5F3F6D
S11319A0ECF3983EDCF3869577956795B795F795B4
S11319B0E7959F5FC1F7FE2B880F911D969587953C
S11319C097F9089511F40EF423CF41C070DFD0F3DA
S11319D09923D9F3CEF39F57550B87FF46D00024A4
S11319E0A0E640EA900180585695979528F4805CCB
S11319F0660F771F881F20F026173707480730F433
S1131A00621B730B840B202931294A2BA69517944A
S1131A100794202531254A2758F7660F771F881F1A
S1131A2020F026173707480730F4620B730B840B3A
S1131A30200D311D411DA09581F7B901842F9158C6
S1131A40880F9695879508959B01AC0158CF9F3FC9
S1131A5031F0915020F4879577956795B795880F65
S1131A60911D9695879597F9089591505040660F6A
S1131A70771F881FD2F708952F923F924F925F925B
S1131A806F927F928F929F92AF92BF92CF92DF928A
S1131A90EF92FF920F931F93CF93DF93CDB7DEB7EF
S1131AA060970FB6F894DEBF0FBECDBF7C011B015B
S1131AB06A01FC0117821682838181FF2AC39E0179
S1131AC02F5F3F4F3901F7019381F10193FD859118
S1131AD093FF81911F01882309F417C3853239F4D8
S1131AE093FD859193FF81911F01853231F4B701F4
S1131AF090E0AAD456016501E6CF10E0512C912C58
S1131B00FFE1F915D8F08B3279F038F4803279F0AE
S1131B108332A1F4F92DF0612EC08D3261F080334F
S1131B2069F4292D21602DC0392D3260932E892D21
S1131B308460982E2AC0E92DE86015C097FC2DC05A
S1131B4020ED280F2A3088F496FE06C03AE0139F51
S1131B50200D1124122F19C08AE0589E200D112443
S1131B60522EE92DE0629E2E10C08E3231F496FC86
S1131B70CCC2F92DF0649F2E08C08C3621F4292D97
S1131B802068922E02C0883641F4F10193FD8591BC
S1131B9093FF81911F018111B3CF9BEB980F933079
S1131BA020F4992D9061805E07C09BE9980F9330D3
S1131BB008F059C1992D9F7E96FF16E09F73992EC8
S1131BC0853619F49064992E08C0863621F4392F8D
S1131BD03068932E02C01111115097FE07C01C33B8
S1131BE050F444244394410E27E00BC0183038F0DD
S1131BF027E017E005C027E09CE3492E02C0212F0F
S1131C00412C560184E0A80EB11CF601608171815B
S1131C1082819381042DA301DFD26C01F981FC87B9
S1131C20F0FF02C0F3FF06C091FC06C092FE06C09E
S1131C3000E205C00DE203C00BE201C000E08C85A8
S1131C408C7019F0011143C280C297FE10C04C0C75
S1131C50FC85F4FF04C08A81813309F44A94141486
S1131C6074F528E0241578F588E0482E2CC096FCFD
S1131C702AC0812F90E08C159D059CF03CEFC31683
S1131C803FEFD30674F0892D8068982E0AC0E2E0F5
S1131C90F0E0EC0FFD1FE10FF11D8081803319F49A
S1131CA011501111F4CF97FE0EC044244394410EF9
S1131CB0812F90E0C816D9062CF41C1904C04424C2
S1131CC0439401C010E097FE06C01C141D0434F4B4
S1131CD0C601019605C085E090E002C081E090E075
S1131CE001110196112331F0212F30E02F5F3F4F76
S1131CF0820F931F252D30E08217930714F4581A8E
S1131D0001C0512C892D897041F4552031F0B7015F
S1131D1080E290E099D35A94F8CF002321F0B701E0
S1131D20802F90E091D393FC08C0552031F0B70187
S1131D3080E390E089D35A94F8CF97FE4AC04601D5
S1131D40D7FE02C0812C912CC60188199909F30190
S1131D50E80FF91FFE87ED87960124193109388BA6
S1131D602F87012F10E01195019511093FEF83167C
S1131D70930621F4B7018EE290E066D3C814D90427
S1131D804CF08F8598898815990524F4ED85FE8596
S1131D90818101C080E3F1E08F1A91082D853E8591
S1131DA02F5F3F4F3E872D878016910624F0B701A1
S1131DB090E04AD3DBCFC814D90441F49A81963316
S1131DC020F4953319F43C8534FF81E3B70190E0A6
S1131DD048C08A81813319F09C859F7E9C87B70116
S1131DE090E032D3111105C094FC16C085E690E052
S1131DF015C0B7018EE290E027D31E5F82E001E0B8
S1131E00080FF301E80FF11D8081B70190E01CD3A6
S1131E10802F0113F4CFE8CF85E490E0B70114D309
S1131E20D7FC06C0C114D10441F4EC85E4FF05C01D
S1131E30D194C194D1088DE201C08BE2B70190E046
S1131E4003D380E32AE0C216D1042CF08F5FFAE0BA
S1131E50CF1AD108F7CFB70190E0F6D2B701C60187
S1131E60C096F2D249C1833631F0833779F0833595
S1131E7009F052C01FC0560132E0A30EB11CF60196
S1131E808081898301E010E0630111C05601F2E012
S1131E90AF0EB11CF601C080D18096FE03C0612F45
S1131EA070E002C06FEF7FEFC60179D28C01F92D8B
S1131EB0FF7713C0560122E0A20EB11CF601C080C8
S1131EC0D18096FE03C0612F70E002C06FEF7FEFF8
S1131ED0C6015AD28C01F92DF0689F2EF3FD18C06B
S1131EE0852D90E00817190798F4B70180E290E077
S1131EF0ABD25A94F5CFF60197FC859197FE819168
S1131F006F01B70190E0A0D251105A940150110909
S1131F100115110581F7F0C0843611F0893659F5A1
S1131F20560197FE09C024E0A20EB11CF60160819F
S1131F307181828193810AC0F2E0AF0EB11CF60177
S1131F4060817181072E000C880B990BF92DFF76A7
S1131F509F2E97FF09C090958095709561957F4F4E
S1131F608F4F9F4FF0689F2E2AE030E0A301EED2FE
S1131F70C82EC6183EC0092D853721F40F7E2AE0ED
S1131F8030E01DC0097F8F3691F018F4883559F080
S1131F90BCC0803719F0883711F0B7C0006104FF66
S1131FA009C0046007C094FE08C0066006C028E0AB
S1131FB030E005C020E130E002C020E132E056010B
S1131FC007FF09C084E0A80EB11CF601608171818D
S1131FD08281938108C0F2E0AF0EB11CF6016081EA
S1131FE0718180E090E0A301B1D2C82EC6180F77AA
S1131FF0902E96FE0BC0092D0E7FC11650F494FE50
S11320000AC092FC08C0092D0E7E05C0DC2C092DE7
S113201003C0DC2C01C0D12E04FF0DC0FE01EC0D69
S1132020F11D8081803311F4097E09C002FF06C0CE
S1132030D394D39404C0802F867809F0D39403FDFD
S113204010C000FF06C01C2DD51478F4150D1D1901
S11320500CC0D51450F4B70180E290E0F5D1D394CC
S1132060F8CFD51410F45D1801C0512C04FF0FC033
S1132070B70180E390E0E8D102FF16C001FD03C080
S113208088E790E002C088E590E0B7010CC0802F9B
S1132090867851F001FF02C08BE201C080E207FDA7
S11320A08DE2B70190E0D0D1C11630F4B70180E3DE
S11320B090E0CAD11150F8CFCA94F301EC0DF11D90
S11320C08081B70190E0C0D1C110F6CF15C0F4E013
S11320D0F51550F584E0581A93FE1EC0011125C071
S11320E02C8523FF27C002E111E0392D3071932E96
S11320F0F8018491811121C0552009F4FCCCB70169
S113210080E290E0A1D15A94F7CFF70186819781BC
S113211023C08FEF9FEF20C0B70180E290E094D1FD
S11321205A945110F9CFDACF512CB701802F90E097
S11321308BD1D6CF06E111E0D8CF91108052B701F0
S113214090E082D10F5F1F4FD3CF23E0251510F409
S113215083E0C1CF512CC4CF60960FB6F894DEBF94
S11321600FBECDBFDF91CF911F910F91FF90EF90E4
S1132170DF90CF90BF90AF909F908F907F906F90A3
S11321805F904F903F902F90089597FB072E16F481
S1132190009406D077FD08D00BD007FC05D03EF4A0
S11321A0909581959F4F0895709561957F4F0895FF
S11321B0AA1BBB1B51E107C0AA1FBB1FA617B70769
S11321C010F0A61BB70B881F991F5A95A9F7809585
S11321D09095BC01CD010895283008F027E03327FD
S11321E0DA01990F311D87FD916000966105710533
S11321F039F432602E5F3D9330E32A95E1F7089578
S11322009F3F30F080387105610509F03C5F3C5F09
S11322103D93913008F08068911DDF93CF931F9315
S11322200F93FF92EF92192F987F9695E92F969529
S11322309695E90FFF27EC58FE4F99273327EE2494
S1132240FF24A701E70105900894079428F4360FAA
S1132250E71EF81E491F511D660F771F881F991F1F
S11322600694A1F70590079428F4E70EF81E491F79
S1132270561FC11D770F881F991F661F0694A1F76B
S11322800590079428F4F80E491F561FC71FD11D47
S1132290880F991F661F771F0694A1F7059007946E
S11322A020F4490F561FC71FD81F990F661F771FA9
S11322B0881F0694A9F784911095177041F0D6955C
S11322C0C79557954795F794E7941A95C1F7EAE1AE
S11322D0F1E068941590159135916591959105906B
S11322E07FE27395E118F10A430B560BC90BD00931
S11322F0C0F7E10CF11E431F561FC91FD01D7EF409
S1132300703311F48A95E6CFE894015030F0080F49
S11323100AF40027021708F4202F2395022F7A339A
S113232028F079E37D932A95E9F710C07D932A95E7
S113233089F6069497956795379517951794E1183C
S1132340F10A430B560BC90BD00998F023957E91E3
S113235073957A3308F070E37C932013B8F77E9179
S113236070617D9330F0839571E37D9370E32A95DA
S1132370E1F71124EF90FF900F911F91CF91DF911E
S1132380992787FD90950895FC0105906150704050
S11323900110D8F7809590958E0F9F1F0895FC012A
S11323A06150704001900110D8F7809590958E0F80
S11323B09F1F08950F931F93CF93DF93009731F4DA
S11323C06115710519F480E090E039C08B01EC01CE
S11323D06EE070E081E090E017D1FC01892B99F365
S11323E080E883830115110571F01387028781E862
S11323F0838380910B0490910C04892B21F4F09336
S11324000C04E0930B042097C9F0D187C087838123
S11324108260838380910D0490910E04892B71F462
S1132420F0930E04E0930D0480910F049091100436
S1132430892B21F4F0931004E0930F04CF01DF9172
S1132440CF911F910F9108950F931F93CF93DF9313
S1132450FB01238121FD03C08FEF9FEF2CC022FFDE
S113246016C046815781248135814217530744F4AD
S1132470A081B1819D012F5F3F4F318320838C93D5
S1132480268137812F5F3F4F3783268314C08B010A
S1132490EC01FB010084F185E02D1995892BE1F60F
S11324A0D80116968D919C911797019617969C9337
S11324B08E931697CE01DF91CF911F910F910895BE
S11324C0CF93DF93CDB7DEB7AE014A5F5F4FFA011A
S11324D061917191AF0180910D0490910E04CCDA59
S11324E0DF91CF91089560910D0470910E04ACCFEB
S11324F00F931F93CF93DF93CDB7DEB72E970FB60D
S1132500F894DEBF0FBECDBF0E891F8986E08C8391
S11325101A8309838FEF9FE79E838D83AE01465E06
S11325205F4F688D798DCE010196A6DAEF81F8852B
S1132530E00FF11F10822E960FB6F894DEBF0FBE87
S1132540CDBFDF91CF911F910F910895FA01AA2772
S1132550283051F1203181F1E8946F936E7F6E5FE2
S11325607F4F8F4F9F4FAF4FB1E03ED0B4E03CD090
S1132570670F781F891F9A1FA11D680F791F8A1F73
S1132580911DA11D6A0F711D811D911DA11D20D0DA
S113259009F468943F912AE0269F11243019305D94
S11325A03193DEF6CF010895462F4770405D419385
S11325B0B3E00FD0C9F7F6CF462F4F70405D4A33D2
S11325C018F0495D31FD4052419302D0A9F7EACF9A
S11325D0B4E0A6959795879577956795BA95C9F7C9
S11325E000976105710508959B01AC010A2E0694BC
S11325F05795479537952795BA95C9F7620F731F75
S1132600841F951FA01D08950F931F93CF93DF93ED
S1132610869F8001879F100D969F100D1124C8017D
S11326200DD0EC01009721F0A80160E070E027D103
S1132630CE01DF91CF911F910F9108950F931F93B6
S1132640CF93DF938230910510F482E090E0E09123
S11326501304F091140420E030E0A0E0B0E03097DF
S113266019F1408151810281138148175907C8F03B
S11326708417950769F4109731F012960C9312970A
S113268013961C9327C0009313041093140422C0C0
S11326902115310519F04217530718F49A01BD01A9
S11326A0EF01DF01F801DBCF21153105F9F0281B1B
S11326B0390B2430310580F48A819B8161157105C1
S11326C021F0FB019383828304C0909314048093CC
S11326D01304FE01329644C0FE01E20FF31F8193FE
S11326E0919322503109398328833AC020911104EF
S11326F030911204232B41F4209102023091030201
S113270030931204209311042091000230910102AD
S11327102115310541F42DB73EB740910402509183
S11327200502241B350BE0911104F0911204E21709
S1132730F307A0F42E1B3F0B2817390778F0AC01E0
S11327404E5F5F4F2417350748F04E0F5F1F5093BD
S11327501204409311048193919302C0E0E0F0E0ED
S1132760CF01DF91CF911F910F910895CF93DF9304
S1132770009709F481C0FC01329713821282A09160
S11327801304B0911404109781F420813181820FD5
S1132790931F20911104309112042817390751F521
S11327A0F0931204E093110467C0ED0120E030E0DF
S11327B0CE17DF0740F44A815B819E014115510524
S11327C0F1F0EA01F5CFD383C28340815181840FB4
S11327D0951FC817D90759F488819981840F951FCB
S11327E00296918380838A819B81938382832115BE
S11327F0310529F4F0931404E09313043DC0E90176
S1132800FB83EA8349915991C40FD51FEC17FD0747
S113281061F480819181840F951F0296E901998367
S11328208883828193819B838A83E0E0F0E012961F
S11328308D919C911397009719F0FD01DC01F7CF5E
S11328408D919C9111979D012E5F3F4F820F931F95
S113285020911104309112042817390769F4309734
S113286029F4109214041092130402C013821282E9
S1132870B0931204A0931104DF91CF910895DC0169
S113288001C06D9341505040E0F70895F894FFCF94
S11328900000150420008083878A8D9194979B9E65
S11328A0A1A4A8ABAEB1B5B8BBBEC1C5C8CBCED18F
S11328B0D4D7DADDE0E1E1E2E3E4E5E6E6E7E8E8FF
S11328C0E9EAEAEBEBECECECEDEDEDEEEEEEEEEE40
S11328D0EEEEEEEEEEEEEEEEEEEEEDEDEDECECEC1D
S11328E0EBEBEAEAE9E8E8E7E6E6E5E4E3E2E1E17E
S11328F0E0E1E1E2E3E4E5E6E6E7E8E8E9EAEAEB79
S1132900EBECECECEDEDEDEEEEEEEEEEEEEEEEEEEF
S1132910EEEEEEEEEEEEEDEDEDECECECEBEBEAEAEA
S1132920E9E8E8E7E6E6E5E4E3E2E1E1E0DDDAD779
S1132930D4D1CECBC8C5C1BEBBB8B5B1AEABA8A4CB
S1132940A19E9B9794918D8A8783807D7976736FFE
S11329506C6965625F5C5855524F4B4845423F3B3A
S11329603835322F2C292623201F1F1E1D1C1B1A0D
S11329701A191818171616151514141413131312FC
S11329801212121212121212121212121212131321
S11329901314141415151616171818191A1A1B1CC3
S11329A01D1E1F1F201F1F1E1D1C1B1A1A1918185D
S11329B017161615151414141313131212121212D7
S11329C012121212121212121212131313141414DA
S11329D015151616171818191A1A1B1C1D1E1F1F59
S11329E0202326292C2F3235383B3F4245484B4F74
S11329F05255585C5F6265696C6F7376797D80F0BF
S1132A0000780001006B726F203D20006B7069201C
S1132A103D2000726F6C6C203D2000706974636807
S10D2A20203D200020200025660060
S9030000FC
