:100000009EC00000BCC00000BAC00000B8C0000024
:10001000B6C00000B4C00000B2C00000B0C0000014
:10002000AEC00000ACC00000AAC00000A8C0000024
:10003000A6C00000A4C00000A2C00000A0C0000034
:100040009EC000009CC000009AC0000098C0000044
:1000500096C0000094C0000092C00000AEC0000036
:100060008EC000008CC000008AC0000088C0000064
:1000700086C0000084C0000082C0000080C0000074
:100080007EC000007CC000007AC0000078C0000084
:1000900076C0000074C0000072C0000070C0000094
:1000A0006EC000006CC000006AC0000068C00000A4
:1000B00066C0000064C0000062C000006BC10000A8
:1000C0005EC000005CC000005AC0000058C00000C4
:1000D00056C0000054C0000052C0000050C00000D4
:1000E0004EC00000036EDB363D9A9999993DABAA4C
:1000F000AA2A3E000000803F072C7AA5BA6CC59062
:10010000DA3B9365FC8BBC53F810FD3C5692834D53
:10011000BD879D3AB63DCBC9BF5BBE73DA0FC93F01
:1001200005A84CCDB2D44EB93836A9020C50B991BD
:100130008688083CA6AAAA2ABE000000803F112497
:100140001FBECFEFD1E2DEBFCDBF00E00CBF14E099
:10015000A0E0B2E0E0EEFDE100E00BBF02C00790DE
:100160000D92A036B107D9F724E0A0E6B4E001C0B3
:100170001D92A738B207E1F75BD10C94EE0E40CF89
:10018000E1E0F1E08081886080838081806180830C
:100190008081806280830895CF93C82F8A3011F4C4
:1001A0008DE0FADFE0ECF0E0808185FFFDCFC093C9
:1001B000C60080E090E0CF9108951F920F920FB695
:1001C0000F9211242F933F938F939F93AF93BF93DD
:1001D0008091610490916204A0916304B0916404E1
:1001E0003091600423E0230F2D3720F40196A11DE8
:1001F000B11D05C026E8230F0296A11DB11D209355
:1002000060048093610490936204A0936304B093AC
:1002100064048091650490916604A0916704B09194
:1002200068040196A11DB11D809365049093660436
:10023000A0936704B0936804BF91AF919F918F9191
:100240003F912F910F900FBE0F901F9018953FB7C1
:10025000F8948091650490916604A0916704B09130
:10026000680426B5A89B05C02F3F19F00196A11D73
:10027000B11D3FBFBA2FA92F982F8827820F911D3C
:10028000A11DB11DBC01CD01660F771F881F991FED
:10029000660F771F881F991F0895E0916904F091F8
:1002A0006A04E85CFD4F808190E09093A900809300
:1002B000A800E0910E02F0910F02E85CFD4F8081F2
:1002C00090E09093AB008093AA00E0910C02F09133
:1002D0000D02E85CFD4F808190E09093AD0080932B
:1002E000AC0060910A0270910B0240916904509138
:1002F0006A04460F571F50936A0440936904209183
:100300000E0230910F02260F371F30930F022093F9
:100310000E0280910C0290910D02860F971F909310
:100320000D0280930C02609110027091110264170B
:1003300075072CF410926A041092690406C05523C4
:1003400024F470936A0460936904621773072CF4B1
:1003500010920F0210920E0206C0332324F4709301
:100360000F0260930E02681779072CF410920D02A9
:1003700010920C0206C0992324F470930D0260932E
:100380000C028091080290910902909329018093B8
:10039000280108951F920F920FB60F9211240BB6E9
:1003A0000F922F933F934F935F936F937F938F930E
:1003B0009F93AF93BF93EF93FF936FDFFF91EF9105
:1003C000BF91AF919F918F917F916F915F914F916D
:1003D0003F912F910F900BBE0F900FBE0F901F906B
:1003E00018950F931F93CF93DF93CDB7DEB72A975E
:1003F0000FB6F894DEBF0FBECDBF4AE08E010F5F8F
:100400001F4FB801FC01808191810E943A0A1F931D
:100410000F930E94A70A0F900F902A960FB6F89498
:10042000DEBF0FBECDBFDF91CF911F910F91089519
:10043000CF93DF93CDB7DEB7AE970FB6F894DEBF9C
:100440000FBECDBFF8949CDE0CD48CE090E0BAD403
:1004500060E070E08CEC90E00E945D0A90936C0488
:1004600080936B04F1D3F7D3CCD3DFD3E7D380EA07
:100470009FE090932901809328011D861E861F8688
:10048000188A198A1A8A1B8A1C8A1D8A1E8A1F8A40
:10049000188EAE014B5E5F4FBE016F5E7F4FCE0187
:1004A0000D9609D22D853E853CA72BA789899A896F
:1004B0009EA78DA72D883E8867E089E1DBD260E0AA
:1004C0008AE1D8D268E08BE1D5D260E18CE1D2D26A
:1004D00061E08BE6CFD278941B8E1C8E1D8E1E8E13
:1004E0001F8E18A219A21AA29E012B5F3F4F7901FD
:1004F0008E010D5F1F4F24503109AE01455F5F4FE4
:10050000BE01675F7F4FCE01079610D389819A8124
:100510002BA53CA5821B930B9A8389838B819C819D
:100520002DA53EA5821B930B9C838B838D819E8181
:10053000821993099E838D838ADE6B017C0187DE9D
:100540006FA378A789A79AA78091060290910702C6
:10055000892B09F045C0C701B601681979098A09D4
:100560009B094BD59B01AC0160E074E284E799E400
:10057000B0D46B017C0169817A81072E000C880B55
:10058000990B3DD520E030E043E852E4A2D4A70126
:1005900096019FD49B01AC016F8D78A189A19AA18E
:1005A0001DD46F8F78A389A39AA36B817C81072EBA
:1005B000000C880B990B23D520E030E043E852E48F
:1005C00088D4A701960185D49B01AC016B8D7C8DED
:1005D0008D8D9E8D03D46B8F7C8F8D8F9E8F04C0ED
:1005E00010920702109206026D817E81072E000C88
:1005F000880B990B04D52BE733E14FE855E3DCD5A5
:100600003ED66B017C019B01AC016B8D7C8D8D8D89
:100610009E8DD2D59B01AC016F8D78A189A19AA145
:10062000DDD36F8F78A389A39AA39B01AC01C70187
:10063000B601C2D59B01AC016B8D7C8D8D8D9E8DDD
:10064000CCD36B8F7C8F8D8F9E8F0F811885C801C7
:1006500064E670E0AAD6072E000C880B990BCFD465
:100660002B013C0189859A8564E670E09ED6072EB1
:10067000000C880B990BC3D44B015C018B859C85C6
:1006800064E670E092D6072E000C880B990BB7D465
:100690006B017C01A3019201C301B2018DD56BA353
:1006A0007CA38DA39EA3A5019401C501B40184D5AB
:1006B0009B01AC016BA17CA18DA19EA18FD36BA3EB
:1006C0007CA38DA39EA3A3019201C301B20174D5A3
:1006D0002B013C01A5019401C501B4016DD59B011D
:1006E000AC01C301B2017AD34B015C01A7019601B1
:1006F000C701B60161D59B01AC01C501B4016ED340
:10070000C8D56B017C01B801110F880B990B77D408
:100710004B015C0120E030E048EC52E4C701B60137
:100720004BD59B01AC01C501B401D3D3BBD32BE1A5
:100730003FE245E652EC40D56B017C0132D47A8F22
:10074000698F80E290E016D782E192E09F938F93C9
:10075000FED6CE01499645DE6B8D7C8D8D8D9E8DAE
:1007600020D47A8F698F80E290E004D78BE192E009
:100770009F938F93ECD6CE01499633DE2BED39EF64
:100780004EE75FE36B8D7C8D8D8D9E8D15D54B0176
:100790005C012FE632E143E85BE3C701B6010CD50B
:1007A0009B01AC01C501B40119D3FBD37A8F698FCA
:1007B00080E290E0DFD689E292E09F938F93C7D6E4
:1007C000CE0149960EDE8AE090E0D4D68FA098A4A0
:1007D000A9A4BAA40F900F900F900F900F900F90B4
:1007E00083CE0F931F93CF93DF93CDB7DEB72A97B6
:1007F0000FB6F894DEBF0FBECDBF4AE08E010F5F8B
:100800001F4FB801FC018081918134D61F930F9353
:100810009ED68AE090E0AED60F900F902A960FB643
:10082000F894DEBF0FBECDBFDF91CF911F910F9126
:100830000895CF93C82F80ED90E019D28C2F90E0CF
:100840006CD25BD281ED90E012D2A2D2C82F55D2E9
:100850008C2FCF910895CF93DF9383E4EADFC82FE5
:10086000D0E0DC2FCC2784E4E4DF9E01282BC901F3
:10087000DF91CF910895CF93DF9385E4DADFC82F1E
:10088000D0E0DC2FCC2786E4D4DF9E01282BC901E1
:10089000DF91CF910895CF93DF9387E4CADFC82F0C
:1008A000D0E0DC2FCC2788E4C4DF9E01282BC901CF
:1008B000DF91CF910895CF92DF92EF92FF920F9345
:1008C0001F93CF93DF936C017B018A0188E194E051
:1008D00056D6C8ECD0E0BFDFF6014081518162817D
:1008E0007381480F591F611D711D408351836283BD
:1008F0007383C1DFF7014081518162817381480FA9
:10090000591F611D711D4083518362837383C3DF4F
:10091000F8014081518162817381480F591F611D27
:10092000711D40835183628373838FE39FE101973D
:10093000F1F700C00000219771F6F6016081718126
:10094000828193819923ACF49B01772324F422279D
:100950003327261B370BC90168EC70E026D5CB0185
:10096000770FAA0BBB0BF60180839183A283B3831D
:100970000AC028EC30E040E050E02AD5F6012083A0
:10098000318342835383F701608171818281938136
:100990009923ACF49B01772324F422273327261BC9
:1009A000370BC90168EC70E000D5CB01770FAA0BBB
:1009B000BB0BF70180839183A283B3830AC028EC29
:1009C00030E040E050E004D5F701208331834283DA
:1009D0005383F80160817181828193819923ACF402
:1009E0009B01772324F422273327261B370BC901C9
:1009F00068EC70E0DAD4CB01770FAA0BBB0BF801DF
:100A000080839183A283B3830AC028EC30E040E066
:100A100050E0DED4F80120833183428353838EE299
:100A200094E09F938F9393D5C601DBDCCFE3D4E0B2
:100A3000DF93CF938CD5C701D4DCDF93CF9387D5D9
:100A4000C801CFDEEFEFF3ED20E3E150F0402040AE
:100A5000E1F700C000000F900F900F900F900F90E3
:100A60000F90DF91CF911F910F91FF90EF90DF904A
:100A7000CF900895CF93DF93D82FC62F80ED90E0CD
:100A8000F6D08D2F90E049D18C2F90E046D135D112
:100A9000DF91CF910895AF92BF92CF92DF92FF92F4
:100AA0000F931F93CF93DF936623A1F1C52FD42F0C
:100AB000F62E182F80ED90E0DAD0812F90E02DD126
:100AC00085E38A95F1F7000081ED90E0D0D00D2FFD
:100AD0001C2FCC24CA94CF0CD12CEFEFCE1ADE0AF7
:100AE000C0E0D0E0AF2CB12CF1E0AF1AB108AC16E9
:100AF000BD0621F44DD1F801808303C02FD1F80148
:100B0000808321960F5F1F4FCC15DD0581F7CF2D18
:100B1000F4D001C0C0E08C2FDF91CF911F910F91D5
:100B2000FF90DF90CF90BF90AF9008956F927F922B
:100B30008F929F92AF92BF92CF92DF92EF92FF92ED
:100B40000F931F93CF93DF93CDB7DEB72E970FB6DA
:100B5000F894DEBF0FBECDBF4C015B016A013901C5
:100B6000AE014F5F5F4F6EE08BE395DF898190E0D0
:100B7000982F88272A81822BF401918380838B818F
:100B800090E0982F88272C81822BF5019183808318
:100B90008D8190E0982F88272E81822BF6019183FA
:100BA0008083898590E0982F88272A85822BF301FE
:100BB000918380838B8590E0982F88272C85822BCA
:100BC000F801918380838D8590E0982F88272E856A
:100BD000822BF701918380832E960FB6F894DEBFA7
:100BE0000FBECDBFDF91CF911F910F91FF90EF907E
:100BF000DF90CF90BF90AF909F908F907F906F903D
:100C00000895E1EAF0E0808181608083E0EAF0E02D
:100C10008081816080838081806880838081806220
:100C200080838081886080830895E1E2F1E08081A3
:100C3000816080838081886080830895E3E7F0E0AD
:100C4000808182608083089585B5816085BD85B58A
:100C5000826085BD0895EEE6F0E08081816080834A
:100C600008951092B9008CE08093B800089594EA3A
:100C70009093BC004FEF50E060E070E0ECEBF0E0F0
:100C80009081992334F04150510961097109C0F7ED
:100C900004C0452B462B472B41F19091B900987F1A
:100CA000983011F0903119F58093BB0084E880935F
:100CB000BC008FEF90E0A0E0B0E0ECEBF0E0208132
:100CC00022232CF00197A109B109C8F704C0892B90
:100CD0008A2B8B2B71F09091B900987F983159F045
:100CE00081E0903449F480E0089581E0089581E046
:100CF000089581E0089580E0089584E98093BC0020
:100D000080E090E0ECEBF0E0208124FF05C001964C
:100D1000811521E09207C1F708958093BB0084E814
:100D20008093BC008FEF90E0A0E0B0E0ECEBF0E04F
:100D3000208122232CF00197A109B109C8F704C032
:100D4000892B8A2B8B2B41F09091B900987F81E001
:100D5000983219F480E0089581E0089584EC80933E
:100D6000BC008FEF90E0A0E0B0E0ECEBF0E0208181
:100D700022232CF00197A109B109C8F704C0892BDF
:100D80008A2B8B2B19F08091BB00089580E0089589
:100D900084E88093BC008FEF90E0A0E0B0E0ECEB43
:100DA000F0E0208122232CF00197A109B109C8F7B6
:100DB00004C0892B8A2B8B2B19F08091BB000895DE
:100DC00080E008959093C5008093C40088E08093EC
:100DD000C1008EE08093C20008955058BB27AA2717
:100DE0000ED0B0C1A1D130F0A6D120F031F49F3F98
:100DF00011F41EF460C10EF4E095E7FB56C1E92F33
:100E0000B2D180F3BA17620773078407950718F009
:100E100071F49EF5CAC10EF4E0950B2EBA2FA02DE9
:100E20000B01B90190010C01CA01A0011124FF2797
:100E3000591B99F0593F50F4503E68F11A16F04092
:100E4000A22F232F342F4427585FF3CF4695379591
:100E50002795A795F0405395C9F77EF41F16BA0B56
:100E6000620B730B840BBAF09150A1F0FF0FBB1F04
:100E7000661F771F881FC2F70EC0BA0F621F731F4D
:100E8000841F48F4879577956795B795F7959E3FAA
:100E900008F0B3CF9395880F08F09927EE0F979538
:100EA000879508959F939F77EEE389379E0720F4F7
:100EB000E4EEF0E028D109C0DDD09058A2EA2AED96
:100EC0003FE049EC5FE39BDF3DD10F9007FC90587A
:100ED00008950CD037C12FD140F026D130F021F445
:100EE0005F3F19F0E2C0511161C1E5C03CD198F3F8
:100EF0009923C9F35523B1F3951B550BBB27AA279B
:100F000062177307840738F09F5F5F4F220F331F0C
:100F1000441FAA1FA9F333D00E2E3AF0E0E830D0D8
:100F200091505040E695001CCAF729D0FE2F27D0DB
:100F3000660F771F881FBB1F261737074807AB07A9
:100F4000B0E809F0BB0B802DBF01FF2793585F4F1E
:100F50002AF09E3F510568F0A8C028C15F3FECF31E
:100F6000983EDCF3869577956795B795F7959F5FE3
:100F7000C9F7880F911D9695879597F90895E1E037
:100F8000660F771F881FBB1F621773078407BA0796
:100F900020F0621B730B840BBA0BEE1F88F7E095F1
:100FA0000895E9D088F09F5790F0B92F9927B7514D
:100FB000A0F0D1F0660F771F881F991F1AF0BA951D
:100FC000C9F712C0B13081F0F0D0B1E00895EDC0A2
:100FD000672F782F8827B85F39F0B93FCCF3869513
:100FE00077956795B395D9F73EF490958095709570
:100FF00061957F4F8F4F9F4F0895E89409C097FBED
:101000003EF490958095709561957F4F8F4F9F4FDF
:101010009923A9F0F92F96E9BB279395F695879523
:1010200077956795B795F111F8CFFAF4BB0F11F4E6
:1010300060FF1BC06F5F7F4F8F4F9F4F16C088238D
:1010400011F096E911C0772321F09EE8872F762FC3
:1010500005C0662371F096E8862F70E060E02AF004
:101060009A95660F771F881FDAF7880F96958795F0
:1010700097F90895DF93CF931F930F938B01EC01A2
:10108000E8EFF0E01BD05ED09801AE018B01EC01DF
:1010900060E070E080E89FE3A0DEFBD09801AE0145
:1010A0000F911F91CF91DF9193C097F99F6780E8CF
:1010B00070E060E008959FEF80EC0895DF93CF9398
:1010C0001F930F93FF92EF92DF927B018C01689444
:1010D00005C0DA2EEF017CD0FE01E894A5912591A0
:1010E000359145915591AEF3EF0189DEFE019701EF
:1010F000A801DA9479F7DF90EF90FF900F911F919C
:10110000CF91DF9108959F938F937F936F93FF9378
:10111000EF939B01AC0150D0EF91FF91CFDF2F9166
:101120003F914F915F9148C000240A94161617060C
:1011300018060906089500240A94121613061406C8
:1011400005060895092E0394000C11F4882352F02B
:10115000BB0F40F4BF2B11F460FF04C06F5F7F4FE3
:101160008F4F9F4F089557FD9058440F551F59F0CA
:101170005F3F71F04795880F97FB991F61F09F3F84
:1011800079F087950895121613061406551FF2CFAD
:101190004695F1DF08C0161617061806991FF1CFFD
:1011A00086957105610508940895E894BB27662724
:1011B0007727CB0197F908950BD0C4CFB5DF28F07E
:1011C000BADF18F0952309F070CF75CF1124EECF58
:1011D000CADFA0F3959FD1F3950F50E0551F629F92
:1011E000F001729FBB27F00DB11D639FAA27F00D80
:1011F000B11DAA1F649F6627B00DA11D661F829FA7
:101200002227B00DA11D621F739FB00DA11D621F8B
:10121000839FA00D611D221F749F3327A00D611DA8
:10122000231F849F600D211D822F762F6A2F11248A
:101230009F5750408AF0E1F088234AF0EE0FFF1FDD
:10124000BB1F661F771F881F91505040A9F79E3F14
:10125000510570F02ACFAACF5F3FECF3983EDCF344
:10126000869577956795B795F795E7959F5FC1F751
:10127000FE2B880F911D9695879597F908959F935A
:101280005CD00F9007FCEE5F7FC011F40EF413CF1B
:101290003EC071DFD0F39923D9F3CEF39F57550B9E
:1012A00087FF43D00024A0E640EA9001805856957D
:1012B000979528F4805C660F771F881F20F026170B
:1012C0003707480730F4621B730B840B2029312940
:1012D0004A2BA69517940794202531254A2758F7BD
:1012E000660F771F881F20F026173707480730F44E
:1012F000620B730B840B200D311D411DA09581F7EE
:10130000B901842F9158880F9695879508959F3F2E
:1013100031F0915020F4879577956795B795880FB0
:10132000911D9695879597F9089591505040660FB5
:10133000771F881FD2F70895BECE1DDFE8F3E8942B
:10134000E0E0BB279F57F0F02AED3FE049EC06C0F4
:10135000EE0FBB0F661F771F881F28F0B23A620797
:101360007307840728F0B25A620B730B840BE39562
:101370009A9572F7803830F49A95BB0F661F771FE5
:10138000881FD2F79048C5CFEF93E0FF06C0A2EACE
:101390002AED3FE049EC5FEB32DDD4DE0F900394A1
:1013A00001FC9058E0E2F1E0AECE97FB072E16F478
:1013B000009406D077FD08D027D007FC05D03EF476
:1013C000909581959F4F0895709561957F4F0895F1
:1013D000052E97FB16F400940FD057FD05D028D0AA
:1013E00007FC02D046F408C05095409530952195F1
:1013F0003F4F4F4F5F4F0895909580957095619541
:101400007F4F8F4F9F4F0895AA1BBB1B51E107C011
:10141000AA1FBB1FA617B70710F0A61BB70B881F84
:10142000991F5A95A9F780959095BC01CD01089513
:10143000A1E21A2EAA1BBB1BFD010DC0AA1FBB1FD8
:10144000EE1FFF1FA217B307E407F50720F0A21B4A
:10145000B30BE40BF50B661F771F881F991F1A94B7
:1014600069F760957095809590959B01AC01BD01E1
:10147000CF010895BB274A3031F4992322F4BDE20D
:10148000909581959F4F01C0BB27FB015527AA2747
:10149000880F991FAA1FA41710F0A41B8395505101
:1014A000B9F7A05DAA3308F0A95DA193009779F779
:1014B000B111B1931192CB01E7C30F931F93CF9357
:1014C000DF93009731F46115710519F480E090E025
:1014D00039C08B01EC016EE070E081E090E07CD2DD
:1014E000FC01892B99F380E883830115110571F0C4
:1014F0001387028781E8838380917D0490917E0425
:10150000892B21F4F0937E04E0937D042097C9F0A9
:10151000D187C08783818260838380917F0490918B
:101520008004892B71F4F0938004E0937F04809110
:10153000810490918204892B21F4F0938204E0933A
:101540008104CF01DF91CF911F910F910895CF9327
:10155000DF93CDB7DEB7AE014A5F5F4FFA0161910D
:101560007191AF0180917F049091800438D0DF9118
:10157000CF91089560917F047091800495C30F937B
:101580001F93CF93DF93E0917F04F0918004238138
:1015900021FF1BC08C01D0E0C0E0F80181918F01D8
:1015A00060917F0470918004DB011896ED91FC91AD
:1015B0001997882331F01995892B79F3DFEFCFEF55
:1015C000ECCF8AE01995892B19F08FEF9FEF02C0BD
:1015D0008D2F9C2FDF91CF911F910F9108952F9206
:1015E0003F924F925F926F927F928F929F92AF92B3
:1015F000BF92CF92DF92EF92FF920F931F93CF9300
:10160000DF93CDB7DEB72B970FB6F894DEBF0FBED2
:10161000CDBF6C017B018A01FC0117821682838198
:1016200081FFBFC1CE0101963C01F6019381F70114
:1016300093FD859193FF81917F01882309F4ADC1CA
:10164000853239F493FD859193FF81917F01853235
:1016500021F4B60190E028D3E8CF912C212C312C35
:10166000FFE1F315D8F08B3279F038F4803279F05D
:101670008332A1F4232D20611DC08D3261F08033AF
:1016800069F4232D216016C0832D8260382EE32D4E
:10169000E4603E2E2AC0F32DF8601DC037FC2DC03B
:1016A00020ED280F2A3040F08E32B9F436FC75C197
:1016B000232D2064322E19C036FE06C08AE0989E83
:1016C000200D1124922E11C0EAE02E9E200D11242F
:1016D000222EF32DF0623F2E08C08C3621F4832D8C
:1016E0008068382E02C0883641F4F70193FD859159
:1016F00093FF81917F018111B3CF982F9F7D9554E6
:10170000933028F40C5F1F4F9FE399830DC08336FD
:1017100031F0833771F0833509F055C020C0F801EE
:10172000808189830E5F1F4F88248394912C5301FD
:1017300012C02801F2E04F0E511CF801A080B180C8
:1017400036FE03C0692D70E002C06FEF7FEFC50168
:1017500090D24C018201F32DFF773F2E15C0280156
:1017600022E0420E511CF801A080B18036FE03C079
:10177000692D70E002C06FEF7FEFC50168D24C01A8
:10178000F32DF0683F2E820133FC19C0822D90E0CA
:1017900088169906A0F4B60180E290E085D22A94DA
:1017A000F5CFF50137FC859137FE81915F01B601D8
:1017B00090E07AD221102A9421E0821A91088114B3
:1017C000910479F7E1C0843611F0893639F5F801D2
:1017D00037FE07C060817181828193810C5F1F4F4A
:1017E00008C060817181072E000C880B990B0E5F79
:1017F0001F4FF32DFF763F2E97FF09C090958095E0
:10180000709561957F4F8F4F9F4FF0683F2E2AE074
:1018100030E0A30185D2882E861844C0853731F484
:10182000232D2F7EB22E2AE030E025C0932D997F04
:10183000B92E8F36C1F018F4883579F0AEC08037F4
:1018400019F0883721F0A9C0E92FE061BE2EB4FE5F
:101850000DC0FB2DF460BF2E09C034FE0AC0292F35
:101860002660B22E06C028E030E005C020E130E05E
:1018700002C020E132E0F801B7FE07C0608171814B
:10188000828193810C5F1F4F06C06081718180E06F
:1018900090E00E5F1F4FA30143D2882E8618FB2DC8
:1018A000FF773F2E36FE0DC0232D2E7FA22E8914EA
:1018B00058F434FE0BC032FC09C0832D8E7EA82E56
:1018C00005C0B82CA32C03C0B82C01C0B92CA4FEB1
:1018D0000FC0FE01E80DF11D8081803321F49A2DA7
:1018E000997EA92E09C0A2FE06C0B394B39404C089
:1018F0008A2D867809F0B394A3FC10C0A0FE06C020
:10190000B21480F4280C922C9B180DC0B21458F419
:10191000B60180E290E0C8D1B394F8CFB21418F4C5
:101920002B1802C0982C212CA4FE0FC0B60180E316
:1019300090E0BAD1A2FE16C0A1FC03C088E790E0F7
:1019400002C088E590E0B6010CC08A2D867851F07F
:10195000A1FE02C08BE201C080E2A7FC8DE2B601CD
:1019600090E0A2D1891430F4B60180E390E09CD1DC
:101970009A94F8CF8A94F301E80DF11D8081B601A5
:1019800090E092D18110F6CF222009F44ECEB6011C
:1019900080E290E089D12A94F7CFF6018681978181
:1019A00002C08FEF9FEF2B960FB6F894DEBF0FBEED
:1019B000CDBFDF91CF911F910F91FF90EF90DF90FE
:1019C000CF90BF90AF909F908F907F906F905F90DF
:1019D0004F903F902F9008950F931F93CF93DF93D5
:1019E000869F8001879F100D969F100D1124C801BE
:1019F0000DD0EC01009721F0A80160E070E032D139
:101A0000CE01DF91CF911F910F9108950F931F93F6
:101A1000CF93DF938230910510F482E090E0E09163
:101A20008504F091860420E030E0A0E0B0E030973B
:101A300019F1408151810281138148175907C8F07B
:101A40008417950769F4109731F012960C9312974A
:101A500013961C9327C0009385041093860422C01C
:101A60002115310519F04217530718F49A01BD01E9
:101A7000EF01DF01F801DBCF21153105F9F0281B5B
:101A8000390B2430310580F48A819B816115710501
:101A900021F0FB019383828304C09093860480939A
:101AA0008504FE01329644C0FE01E20FF31F8193CC
:101AB000919322503109398328833AC020918304BD
:101AC00030918404232B41F42091020230910302CF
:101AD000309384042093830420910002309101020A
:101AE0002115310541F42DB73EB7409104025091C4
:101AF0000502241B350BE0918304F0918404E21766
:101B0000F307A0F42E1B3F0B2817390778F0AC0120
:101B10004E5F5F4F2417350748F04E0F5F1F5093FD
:101B20008404409383048193919302C0E0E0F0E049
:101B3000CF01DF91CF911F910F910895CF93DF9344
:101B4000009709F481C0FC01329713821282A091A0
:101B50008504B0918604109781F420813181820F31
:101B6000931F20918304309184042817390751F57D
:101B7000F0938404E093830467C0ED0120E030E03B
:101B8000CE17DF0740F44A815B819E014115510564
:101B9000F1F0EA01F5CFD383C28340815181840FF4
:101BA000951FC817D90759F488819981840F951F0B
:101BB0000296918380838A819B81938382832115FE
:101BC000310529F4F0938604E09385043DC0E901D2
:101BD000FB83EA8349915991C40FD51FEC17FD0788
:101BE00061F480819181840F951F0296E9019983A8
:101BF0008883828193819B838A83E0E0F0E0129660
:101C00008D919C911397009719F0FD01DC01F7CF9E
:101C10008D919C9111979D012E5F3F4F820F931FD5
:101C200020918304309184042817390769F4309790
:101C300029F4109286041092850402C01382128245
:101C4000B0938404A0938304DF91CF910895FC01A5
:101C50000590615070400110D8F7809590958E0FD7
:101C60009F1F0895DC0101C06D9341505040E0F783
:101C70000895FC016150704001900110D8F78095E3
:101C800090958E0F9F1F0895DC01FC01672F7191C5
:101C90007723E1F7329704C07C916D937083629152
:101CA000AE17BF07C8F308950F931F93CF93DF9329
:101CB000FB01238121FD03C08FEF9FEF2CC022FF8A
:101CC00016C046815781248135814217530744F459
:101CD000A081B1819D012F5F3F4F318320838C9381
:101CE000268137812F5F3F4F3783268314C08B01B6
:101CF000EC01FB010084F185E02D1995892BE1F6BB
:101D0000D80116968D919C911797019617969C93E2
:101D10008E931697CE01DF91CF911F910F91089569
:101D2000FA01AA27283051F1203181F1E8946F930C
:101D30006E7F6E5F7F4F8F4F9F4FAF4FB1E03ED0B2
:101D4000B4E03CD0670F781F891F9A1FA11D680F50
:101D5000791F8A1F911DA11D6A0F711D811D911D83
:101D6000A11D20D009F468943F912AE0269F1124F8
:101D70003019305D3193DEF6CF010895462F47705C
:101D8000405D4193B3E00FD0C9F7F6CF462F4F70B7
:101D9000405D4A3318F0495D31FD4052419302D015
:101DA000A9F7EACFB4E0A6959795879577956795BB
:101DB000BA95C9F700976105710508959B01AC01BB
:101DC0000A2E06945795479537952795BA95C9F7E2
:101DD000620F731F841F951FA01D0895F894FFCFF5
:101DE0000000870420000100D007FFFF2C019600AF
:101DF000C101616363656C593D20006779726F7939
:101E00005F616E676C653D200066696E616C5F6145
:101E10006E676C65593D20003F4041414243444557
:101E200046464748494A4A4B4C4D4E4F4F505152F7
:101E3000525354555656575859595A5B5C5C5D5E1F
:101E40005F5F606161626363646565666767686957
:101E5000696A6A6B6C6C6D6D6E6E6F6F70707171AC
:101E6000727273737474757576767677777878781E
:101E70007979797A7A7A7A7B7B7B7B7C7C7C7C7CB7
:101E80007D7D7D7D7D7D7D7E7E7E7E7E7E7E7E7E79
:101E90007E7E7E7E7E7E7E7E7E7E7D7D7D7D7D7D68
:101EA0007D7C7C7C7C7C7B7B7B7B7A7A7A7A797983
:101EB00079787878777776767675757474737372C7
:101EC00072717170706F6F6E6E6D6D6C6C6B6A6A33
:101ED0006969686767666565646363626161605FBD
:101EE0005F5E5D5C5C5B5A59595857565655545362
:101EF000525251504F4F4E4D4C4B4A4A494847461B
:101F000046454443424141403F3E3D3D3C3B3A39DA
:101F100038383736353434333231302F2F2E2D2C9C
:101F20002C2B2A2928282726252524232222212054
:101F3000201F1E1D1D1C1B1B1A19191817171615FB
:101F4000151414131212111110100F0F0E0E0D0D87
:101F50000C0C0B0B0A0A09090808080707060606F5
:101F6000050505040404040303030302020202023C
:101F7000010101010101010000000000000000005A
:101F8000000000000000000000000101010101014B
:101F90000102020202020303030304040404050510
:101FA00005060606070708080809090A0A0B0B0CAC
:101FB0000C0D0D0E0E0F0F10101111121213141420
:101FC00015151617171819191A1B1B1C1D1D1E1F76
:101FD0001F202122222324252526272828292A2BB1
:101FE0002C2C2D2E2F2F30313233343435363738D8
:101FF00038393A3B3C3D3D3E0A2043616C69627290
:102000006174696E67204779726F2E2E2E00677992
:10201000726F206F6666736574732061726500204D
:10202000200043616C6962726174696E672041636C
:1020300063656C65726F6D657465722E2E2E00007F
:00000001FF
