:1000000071C000008EC000008CC000008AC00000DB
:1000100088C0000086C0000084C0000082C00000CC
:1000200080C000007EC000007CC000007AC00000DC
:1000300078C0000076C0000074C0000072C00000EC
:1000400070C000006EC000006CC000006AC00000FC
:1000500068C0000066C0000064C0000080C00000EE
:1000600060C000005EC000005CC000005AC000001C
:1000700058C0000056C0000054C0000052C000002C
:1000800050C000004EC000004CC000004AC000003C
:1000900048C0000046C0000044C0000042C000004C
:1000A00040C000003EC000003CC000003AC000005C
:1000B00038C0000036C0000034C000004AC1000053
:1000C00030C000002EC000002CC000002AC000007C
:1000D00028C0000026C0000024C0000022C000008C
:1000E00020C0000011241FBECFEFD1E2DEBFCDBF84
:1000F00000E00CBF13E0A0E0B2E0E0ECFDE000E0C7
:100100000BBF02C007900D92AE3EB107D9F724E0B5
:10011000AEEEB3E001C01D92A731B207E1F765D1A1
:100120004DC66ECFE1E0F1E0808188608083808100
:10013000806180838081806280830895CF93C82FFF
:100140008A3011F48DE0FADFE0ECF0E0808185FF89
:10015000FDCFC093C60080E090E0CF9108951F923C
:100160000F920FB60F9211242F933F938F939F936B
:10017000AF93BF938091F1039091F203A091F303A9
:10018000B091F4033091F00323E0230F2D3720F4D6
:100190000196A11DB11D05C026E8230F0296A11DE1
:1001A000B11D2093F0038093F1039093F203A09389
:1001B000F303B093F4038091F5039091F603A091BB
:1001C000F703B091F8030196A11DB11D8093F503CB
:1001D0009093F603A093F703B093F803BF91AF9108
:1001E0009F918F913F912F910F900FBE0F901F9075
:1001F000189585B5816085BD85B5826085BD0895FA
:10020000EEE6F0E080818160808308953FB7F89446
:100210008091F5039091F603A091F703B091F80354
:1002200026B5A89B05C02F3F19F00196A11DB11D51
:100230003FBFBA2FA92F982F8827820F911DA11D8C
:10024000B11DBC01CD01660F771F881F991F660F76
:10025000771F881F991F0895E091F903F091FA0321
:10026000E25FFD4F808190E09093A9008093A80009
:10027000E0910A02F0910B02E25FFD4F808190E075
:100280009093AB008093AA00E0910802F0910902DC
:10029000E25FFD4F808190E09093AD008093AC00D1
:1002A00060910602709107024091F9035091FA03A0
:1002B000460F571F5093FA034093F90320910A0207
:1002C00030910B02260F371F30930B0220930A0246
:1002D0008091080290910902860F971F909309025E
:1002E0008093080260910C0270910D0264177507EB
:1002F0002CF41092FA031092F90306C0552324F44B
:100300007093FA036093F903621773072CF4109249
:100310000B0210920A0206C0332324F470930B02DE
:1003200060930A02681779072CF410920902109260
:10033000080206C0992324F470930902609308020E
:100340008091EE039091EF0390932901809328010F
:1003500008951F920F920FB60F9211240BB60F92B1
:100360002F933F934F935F936F937F938F939F93BD
:10037000AF93BF93EF93FF936FDFFF91EF91BF9127
:10038000AF919F918F917F916F915F914F913F912D
:100390002F910F900BBE0F900FBE0F901F901895CE
:1003A0000F931F93CF93DF93CDB7DEB72A970FB686
:1003B000F894DEBF0FBECDBF4AE08E010F5F1F4F26
:1003C000B801FC018081918175D01F930F93DFD01C
:1003D0000F900F902A960FB6F894DEBF0FBECDBFD8
:1003E000DF91CF911F910F910895CF93DF931F92CB
:1003F0001F92CDB7DEB7F89495DE80E190E04FD044
:1004000060E070E08EE990E078D09093FC038093F8
:10041000FB03EFDEF5DE20D033D03BD080EA9FE057
:1004200090932901809328017894F0DE6B017C0180
:100430008FE891E00197F1F700C00000E7DE64511A
:1004400071406C197D097A836983CE010196A8DF1A
:100450008AE090E0AFD0E9CFE1EAF0E0808181600E
:100460008083E0EAF0E08081816080838081806821
:10047000808380818062808380818860808308950A
:10048000E1E2F1E080818160808380818860808307
:100490000895E3E7F0E0808182608083089590937F
:1004A000C5008093C40088E08093C1008EE08093F3
:1004B000C2000895BB274A3031F4992322F4BDE2EB
:1004C000909581959F4F01C0BB27FB015527AA2717
:1004D000880F991FAA1FA41710F0A41B83955051D1
:1004E000B9F7A05DAA3308F0A95DA193009779F749
:1004F000B111B1931192CB01B7C30F931F93CF9357
:10050000DF93009731F46115710519F480E090E0F4
:1005100039C08B01EC016EE070E081E090E04CD2DC
:10052000FC01892B99F380E883830115110571F093
:100530001387028781E8838380910D0490910E04D4
:10054000892B21F4F0930E04E0930D042097C9F059
:10055000D187C08783818260838380910F049091CB
:100560001004892B71F4F0931004E0930F04809130
:10057000110490911204892B21F4F0931204E0935A
:100580001104CF01DF91CF911F910F910895CF9367
:10059000DF93CDB7DEB7AE014A5F5F4FFA016191DD
:1005A0007191AF0180910F049091100408D0DF91F8
:1005B000CF91089560910F047091100465C32F923C
:1005C0003F924F925F926F927F928F929F92AF92E3
:1005D000BF92CF92DF92EF92FF920F931F93CF9330
:1005E000DF93CDB7DEB72B970FB6F894DEBF0FBE03
:1005F000CDBF6C017B018A01FC01178216828381C9
:1006000081FFBFC1CE0101963C01F6019381F70144
:1006100093FD859193FF81917F01882309F4ADC1FA
:10062000853239F493FD859193FF81917F01853265
:1006300021F4B60190E028D3E8CF912C212C312C65
:10064000FFE1F315D8F08B3279F038F4803279F08D
:100650008332A1F4232D20611DC08D3261F08033DF
:1006600069F4232D216016C0832D8260382EE32D7E
:10067000E4603E2E2AC0F32DF8601DC037FC2DC06B
:1006800020ED280F2A3040F08E32B9F436FC75C1C7
:10069000232D2064322E19C036FE06C08AE0989EB3
:1006A000200D1124922E11C0EAE02E9E200D11245F
:1006B000222EF32DF0623F2E08C08C3621F4832DBC
:1006C0008068382E02C0883641F4F70193FD859189
:1006D00093FF81917F018111B3CF982F9F7D955416
:1006E000933028F40C5F1F4F9FE399830DC083362E
:1006F00031F0833771F0833509F055C020C0F8011F
:10070000808189830E5F1F4F88248394912C53012D
:1007100012C02801F2E04F0E511CF801A080B180F8
:1007200036FE03C0692D70E002C06FEF7FEFC50198
:1007300090D24C018201F32DFF773F2E15C0280186
:1007400022E0420E511CF801A080B18036FE03C0A9
:10075000692D70E002C06FEF7FEFC50168D24C01D8
:10076000F32DF0683F2E820133FC19C0822D90E0FA
:1007700088169906A0F4B60180E290E085D22A940A
:10078000F5CFF50137FC859137FE81915F01B60108
:1007900090E07AD221102A9421E0821A91088114E3
:1007A000910479F7E1C0843611F0893639F5F80102
:1007B00037FE07C060817181828193810C5F1F4F7A
:1007C00008C060817181072E000C880B990B0E5FA9
:1007D0001F4FF32DFF763F2E97FF09C09095809510
:1007E000709561957F4F8F4F9F4FF0683F2E2AE0A5
:1007F00030E0A30185D2882E861844C0853731F4B5
:10080000232D2F7EB22E2AE030E025C0932D997F34
:10081000B92E8F36C1F018F4883579F0AEC0803724
:1008200019F0883721F0A9C0E92FE061BE2EB4FE8F
:100830000DC0FB2DF460BF2E09C034FE0AC0292F65
:100840002660B22E06C028E030E005C020E130E08E
:1008500002C020E132E0F801B7FE07C0608171817B
:10086000828193810C5F1F4F06C06081718180E09F
:1008700090E00E5F1F4FA30143D2882E8618FB2DF8
:10088000FF773F2E36FE0DC0232D2E7FA22E89141A
:1008900058F434FE0BC032FC09C0832D8E7EA82E86
:1008A00005C0B82CA32C03C0B82C01C0B92CA4FEE1
:1008B0000FC0FE01E80DF11D8081803321F49A2DD7
:1008C000997EA92E09C0A2FE06C0B394B39404C0B9
:1008D0008A2D867809F0B394A3FC10C0A0FE06C050
:1008E000B21480F4280C922C9B180DC0B21458F44A
:1008F000B60180E290E0C8D1B394F8CFB21418F4F6
:100900002B1802C0982C212CA4FE0FC0B60180E346
:1009100090E0BAD1A2FE16C0A1FC03C088E790E027
:1009200002C088E590E0B6010CC08A2D867851F0AF
:10093000A1FE02C08BE201C080E2A7FC8DE2B601FD
:1009400090E0A2D1891430F4B60180E390E09CD10C
:100950009A94F8CF8A94F301E80DF11D8081B601D5
:1009600090E092D18110F6CF222009F44ECEB6014C
:1009700080E290E089D12A94F7CFF60186819781B1
:1009800002C08FEF9FEF2B960FB6F894DEBF0FBE1D
:10099000CDBFDF91CF911F910F91FF90EF90DF902E
:1009A000CF90BF90AF909F908F907F906F905F900F
:1009B0004F903F902F9008950F931F93CF93DF9305
:1009C000869F8001879F100D969F100D1124C801EE
:1009D0000DD0EC01009721F0A80160E070E032D169
:1009E000CE01DF91CF911F910F9108950F931F9327
:1009F000CF93DF938230910510F482E090E0E09194
:100A00001504F091160420E030E0A0E0B0E030974B
:100A100019F1408151810281138148175907C8F0AB
:100A20008417950769F4109731F012960C9312977A
:100A300013961C9327C0009315041093160422C02C
:100A40002115310519F04217530718F49A01BD0119
:100A5000EF01DF01F801DBCF21153105F9F0281B8B
:100A6000390B2430310580F48A819B816115710531
:100A700021F0FB019383828304C09093160480933A
:100A80001504FE01329644C0FE01E20FF31F81936C
:100A9000919322503109398328833AC0209113045D
:100AA00030911404232B41F420910202309103026F
:100AB000309314042093130420910002309101021A
:100AC0002115310541F42DB73EB7409104025091F4
:100AD0000502241B350BE0911304F0911404E21776
:100AE000F307A0F42E1B3F0B2817390778F0AC0151
:100AF0004E5F5F4F2417350748F04E0F5F1F50932E
:100B00001404409313048193919302C0E0E0F0E059
:100B1000CF01DF91CF911F910F910895CF93DF9374
:100B2000009709F481C0FC01329713821282A091D0
:100B30001504B0911604109781F420813181820F41
:100B4000931F20911304309114042817390751F58D
:100B5000F0931404E093130467C0ED0120E030E04B
:100B6000CE17DF0740F44A815B819E014115510594
:100B7000F1F0EA01F5CFD383C28340815181840F24
:100B8000951FC817D90759F488819981840F951F3B
:100B90000296918380838A819B819383828321152E
:100BA000310529F4F0931604E09315043DC0E901E2
:100BB000FB83EA8349915991C40FD51FEC17FD07B8
:100BC00061F480819181840F951F0296E9019983D8
:100BD0008883828193819B838A83E0E0F0E0129690
:100BE0008D919C911397009719F0FD01DC01F7CFCF
:100BF0008D919C9111979D012E5F3F4F820F931F06
:100C000020911304309114042817390769F43097A0
:100C100029F4109216041092150402C01382128255
:100C2000B0931404A0931304DF91CF910895FC01B5
:100C30000590615070400110D8F7809590958E0F07
:100C40009F1F0895DC0101C06D9341505040E0F7B3
:100C50000895FC016150704001900110D8F7809513
:100C600090958E0F9F1F0895DC01FC01672F7191F5
:100C70007723E1F7329704C07C916D937083629182
:100C8000AE17BF07C8F308950F931F93CF93DF9359
:100C9000FB01238121FD03C08FEF9FEF2CC022FFBA
:100CA00016C046815781248135814217530744F489
:100CB000A081B1819D012F5F3F4F318320838C93B1
:100CC000268137812F5F3F4F3783268314C08B01E6
:100CD000EC01FB010084F185E02D1995892BE1F6EB
:100CE000D80116968D919C911797019617969C9313
:100CF0008E931697CE01DF91CF911F910F9108959A
:100D0000FA01AA27283051F1203181F1E8946F933C
:100D10006E7F6E5F7F4F8F4F9F4FAF4FB1E03ED0E2
:100D2000B4E03CD0670F781F891F9A1FA11D680F80
:100D3000791F8A1F911DA11D6A0F711D811D911DB3
:100D4000A11D20D009F468943F912AE0269F112428
:100D50003019305D3193DEF6CF010895462F47708C
:100D6000405D4193B3E00FD0C9F7F6CF462F4F70E7
:100D7000405D4A3318F0495D31FD4052419302D045
:100D8000A9F7EACFB4E0A6959795879577956795EB
:100D9000BA95C9F700976105710508959B01AC01EB
:100DA0000A2E06945795479537952795BA95C9F712
:100DB000620F731F841F951FA01D0895F894FFCF25
:100DC000000017042000FFFF2C019600C1013F40E6
:100DD00041414243444546464748494A4A4B4C4DA7
:100DE0004E4F4F50515252535455565657585959C9
:100DF0005A5B5C5C5D5E5F5F6061616263636465FA
:100E0000656667676869696A6A6B6C6C6D6D6E6E42
:100E10006F6F7070717172727373747475757676AA
:100E20007677777878787979797A7A7A7A7B7B7B32
:100E30007B7C7C7C7C7C7D7D7D7D7D7D7D7E7E7EE6
:100E40007E7E7E7E7E7E7E7E7E7E7E7E7E7E7E7EC2
:100E50007D7D7D7D7D7D7D7C7C7C7C7C7B7B7B7BCF
:100E60007A7A7A7A79797978787877777676767502
:100E700075747473737272717170706F6F6E6E6D62
:100E80006D6C6C6B6A6A69696867676665656463DF
:100E900063626161605F5F5E5D5C5C5B5A5959587B
:100EA000575656555453525251504F4F4E4D4C4B2E
:100EB0004A4A4948474646454443424141403F3EED
:100EC0003D3D3C3B3A3938383736353434333231AE
:100ED000302F2F2E2D2C2C2B2A292828272625256C
:100EE000242322222120201F1E1D1D1C1B1B1A191A
:100EF00019181717161515141413121211111010B2
:100F00000F0F0E0E0D0D0C0C0B0B0A0A0909080829
:100F10000807070606060505050404040403030381
:100F200003020202020201010101010101000000AD
:100F300000000000000000000000000000000000B1
:100F40000101010101010102020202020303030384
:100F50000404040405050506060607070808080931
:100F6000090A0A0B0B0C0C0D0D0E0E0F0F101011B1
:100F700011121213141415151617171819191A1B14
:100F80001B1C1D1D1E1F1F20212222232425252658
:100F9000272828292A2B2C2C2D2E2F2F3031323385
:0E0FA00034343536373838393A3B3C3D3D3E27
:00000001FF
