S00C00006472765F2E737265636D
S113000009C1000027C1000025C1000023C1000070
S113001021C100001FC100001DC100001BC1000060
S113002019C1000017C1000015C1000013C1000070
S113003011C100000FC100000DC100000BC1000080
S113004009C1000007C1000005C1000003C1000090
S113005001C10000FFC00000FDC000000C9467094E
S1130060F9C00000F7C00000F5C00000F3C00000B4
S1130070F1C00000EFC00000EDC00000EBC00000C4
S1130080E9C00000E7C00000E5C00000E3C00000D4
S1130090E1C00000DFC00000DDC00000DBC00000E4
S11300A0D9C00000D7C00000D5C00000D3C00000F4
S11300B0D1C00000CFC00000CDC000000C94B10935
S11300C0C9C00000C7C00000C5C00000C3C0000014
S11300D0C1C00000BFC00000BDC00000BBC0000024
S11300E0B9C00000084AD73B3BCE016E84BCBFFDBB
S11300F0C12F3D6C74319ABD56833DDA3D00C77FF4
S113010011BED9E4BB4C3E916BAAAABE000000808C
S11301103F006E616E00696E660000407A10F35A0B
S113012000A0724E18090010A5D4E80000E8764833
S1130130170000E40B54020000CA9A3B000000E1DF
S1130140F505000080969800000040420F00000072
S1130150A08601000000102700000000E803000052
S113016000006400000000000A000000000001001C
S1130170000000002C76D888DC674F0823DFC1DF3D
S1130180AE59E1B1B796E5E3E453C63AE651997640
S113019096E8E6C28426EB898C9B62ED407C6FFC7A
S11301A0EFBC9C9F40F2BAA56FA5F490055A2AF7BC
S11301B05C936B6CF9676DC11BFCE0E40D47FEF5C5
S11301C020E6B500D0ED902E03009435770500802D
S11301D0841E080000204E0A000000C80C3333338C
S11301E0330F986E12831141EF8D2114893BE6552C
S11301F016CFFEE6DB18D1844B381BF77C1D901D0F
S1130200A4BBE424203284725E228100C9F124EC70
S1130210A1E53D2711241FBECFEFD1E2DEBFCDBF44
S113022000E00CBF13E0A0E0B2E0E8E2FAE200E094
S11302300BBF02C007900D92AA39B107D9F724E089
S1130240AAE9B3E001C01D92A531B207E1F7C5D414
S11302500C941215D5CEE1E0F1E0808188608083B2
S11302608081806180838081806280830895E091B1
S11302709A03F0919B03EA5FFD4F808190E0909395
S1130280A9008093A800E0917103F0917203EA5FE2
S1130290FD4F808190E09093AB008093AA00E091A1
S11302A06F03F0917003EA5FFD4F808190E09093BB
S11302B0AD008093AC006091A9037091AA034091B2
S11302C09A0350919B03460F571F50939B034093EF
S11302D09A032091710330917203260F371F3093D4
S11302E072032093710380916F0390917003860FC2
S11302F0971F9093700380936F03493651402CF0FD
S113030010929B0310929A030CC040919A0350914F
S11303109B03552334F448E651E050939B034093E8
S11303209A03293631402CF0109272031092710313
S11303300CC02091710330917203332334F428E606
S113034031E03093720320937103893691402CF08D
S11303501092700310926F030CC080916F03909100
S11303607003992334F488E691E0909370038093AA
S11303706F038091A5039091A60390932901809324
S113038028010895089A0A9A0C9A0E9A3F9A109A8C
S1130390129A149A169A479A08954F925F926F92FE
S11303A07F928F929F92AF92BF92CF92DF92EF9201
S11303B0FF920F931F93CF93DF93CDB7DEB76C9764
S11303C00FB6F894DEBF0FBECDBF698B7A8B8B8BD3
S11303D09C8BCA01B901E982FA820B831C83C09009
S11303E0B703D090B803E090B903F090BA03A70123
S11303F096010E94010B6093AF037093B003809346
S1130400B1039093B20329813A814B815C810E94AC
S1130410430D2091DB033091DC034091DD035091C7
S1130420DE030E94020B6D8B7E8B8F8B988F07EE01
S113043013E0D8011C968D909D90AD90BC901F97B1
S113044029813A814B815C81C501B4010E94430D2D
S11304506D837E838F839887F801448055806680FE
S1130460778080859185A285B3858D879E87AF87A8
S1130470B88BA30192016D817E818F8198850E9442
S1130480010B2D853E854F8558890E94010B2091D3
S1130490B3033091B4034091B5035091B6030E9465
S11304A0020B29813A814B815C810E94430DF80142
S11304B020813181428153810E94020B69877A87AE
S11304C08B879C872D813E814F815885C301B20162
S11304D00E94010B2B013C012D813E814F815885E7
S11304E06D857E858F8598890E94010B6D877E8737
S11304F08F87988B2091AB033091AC034091AD036F
S11305005091AE0369817A818B819C810E94430D55
S11305109B01AC01C501B4010E94020B698F7A8F63
S11305208B8F9C8F2091D3033091D4034091D503BA
S11305305091D60369857A858B859C850E94020B30
S11305404B015C019B01AC0169857A858B859C8597
S11305500E94CC0B69837A838B839C83A5019401CD
S11305606D857E858F8598890E94CC0B6D837E83F3
S11305708F8398872D893E894F89588D69897A8917
S11305808B899C890E94010B698B7A8B8B8B9C8B4A
S11305909B01AC0169817A818B819C810E94430D0E
S11305A09B01AC016D897E898F89988D0E94020B15
S11305B04B015C016093DB037093DC038093DD03E8
S11305C09093DE0329893A894B895C896D817E8108
S11305D08F8198850E94430D9B01AC01C701B60130
S11305E00E94020B6093B7037093B8038093B9031E
S11305F09093BA0329813A814B815C8169857A851C
S11306008B859C850E94430D9B01AC0169857A858D
S11306108B859C85F6D7D8016D937D938D939C93A0
S1130620139729813A814B815C81C301B2010E94F5
S1130630430D9B01AC01C301B201E3D7F80164830C
S11306407583868397832D813E814F815885698583
S11306507A858B859C850E94430D9B01AC016D8539
S11306607E858F859889CDD7D80118966D937D9313
S11306708D939C931B972D813E814F815885C30197
S1130680B2010E94430D9B01AC01698D7A8D8B8D63
S11306909C8DB7D7F8016487758786879787C501CE
S11306A0B4016C960FB6F894DEBF0FBECDBFDF91D8
S11306B0CF911F910F91FF90EF90DF90CF90BF905B
S11306C0AF909F908F907F906F905F904F90089520
S11306D08FE692E1A3E8BAE38093B3039093B40363
S11306E0A093B503B093B60386EA9BE9A4E4BBE305
S11306F08093AB039093AC03A093AD03B093AE038C
S11307008FE892ECA5EFBCE38093D3039093D403DA
S1130710A093D503B093D6031092DB031092DC03AD
S11307201092DD031092DE031092B7031092B80307
S11307301092B9031092BA03E7EEF3E0108211822B
S113074012821382148215821682178210861186F1
S113075012861386148615861686178608954F9278
S11307605F926F927F928F929F92AF92BF92CF923D
S1130770DF92EF92FF920F931F93CF93DF93CDB746
S1130780DEB76C970FB6F894DEBF0FBECDBF698B92
S11307907A8B8B8B9C8BCA01B901E982FA820B8319
S11307A01C83C090D703D090D803E090D903F09075
S11307B0DA03A701960125D76093CF037093D00382
S11307C08093D1039093D20329813A814B815C8138
S11307D00E94430D2091BB033091BC034091BD03A3
S11307E05091BE030FD76D8B7E8B8F8B988F0FEB41
S11307F013E0D8011C968D909D90AD90BC901F97EE
S113080029813A814B815C81C501B4010E94430D69
S11308106D837E838F839887F8014480558066803A
S1130820778080859185A285B3858D879E87AF87E4
S1130830B88BA30192016D817E818F819885E1D669
S11308402D853E854F855889DCD62091F70330915C
S1130850F8034091F9035091FA03D4D629813A81DF
S11308604B815C810E94430DF801208131814281DA
S11308705381C8D669877A878B879C872D813E816F
S11308804F815885C301B201BCD62B013C012D8197
S11308903E814F8158856D857E858F859889B1D637
S11308A06D877E878F87988B2091E3033091E403D3
S11308B04091E5035091E60369817A818B819C81A3
S11308C00E94430D9B01AC01C501B4019BD6698F05
S11308D07A8F8B8F9C8F2091DF033091E0034091BE
S11308E0E1035091E20369857A858B859C858AD6DC
S11308F04B015C019B01AC0169857A858B859C85E4
S11309004BD769837A838B839C83A50194016D857E
S11309107E858F85988940D76D837E838F83988762
S11309202D893E894F89588D69897A898B899C895B
S113093068D6698B7A8B8B8B9C8B9B01AC0169810C
S11309407A818B819C810E94430D9B01AC016D894E
S11309507E898F89988D56D64B015C016093BB03C9
S11309607093BC038093BD039093BE0329893A8995
S11309704B895C896D817E818F8198850E94430DAE
S11309809B01AC01C701B6013DD66093D7037093B8
S1130990D8038093D9039093DA0329813A814B8158
S11309A05C8169857A858B859C850E94430D9B01BA
S11309B0AC0169857A858B859C8523D6D8016D9396
S11309C07D938D939C93139729813A814B815C810C
S11309D0C301B2010E94430D9B01AC01C301B201EA
S11309E010D6F80164837583868397832D813E81B5
S11309F04F81588569857A858B859C850E94430D36
S1130A009B01AC016D857E858F859889FAD5D801C7
S1130A1018966D937D938D939C931B972D813E81A6
S1130A204F815885C301B2010E94430D9B01AC0163
S1130A30698D7A8D8B8D9C8DE4D5F80164877587DB
S1130A4086879787C501B4016C960FB6F894DEBF0C
S1130A500FBECDBFDF91CF911F910F91FF90EF900B
S1130A60DF90CF90BF90AF909F908F907F906F90CA
S1130A705F904F9008958FE692E1A3E8BAE38093E4
S1130A80F7039093F803A093F903B093FA0386EA6B
S1130A909BE9A4E4BBE38093E3039093E403A09372
S1130AA0E503B093E6038FE892ECA5EFBCE38093F3
S1130AB0DF039093E003A093E103B093E203109269
S1130AC0BB031092BC031092BD031092BE0310929C
S1130AD0D7031092D8031092D9031092DA03EFEBE4
S1130AE0F3E010821182128213821482158216821C
S1130AF0178210861186128613861486158616862A
S1130B00178608954F925F926F927F92AF92BF9231
S1130B10CF92DF92EF92FF920F931F93CF93DF93C5
S1130B2000D01F92CDB7DEB76CD569837A838B83EF
S1130B309C839B01AC016A8D7B8D8C8D9D8DA3D78D
S1130B409B01AC01D8016D917D918D919C915AD5F9
S1130B50F8016083718382839383D7012D913D9142
S1130B604D915C9169817A818B819C814AD5A601E2
S1130B70950112D62E8D3F8D48A159A184D72B0102
S1130B803C0189819A81AB81BC81F7018083918387
S1130B90A283B3839C01AD016E897F89888D998D71
S1130BA072D7D8012D913D914D915C912BD5A30124
S1130BB0920128D50F900F900F900F90DF91CF9155
S1130BC01F910F91FF90EF90DF90CF90BF90AF9067
S1130BD07F906F905F904F900895CF93DF93CDB740
S1130BE0DEB7E6970FB6F894DEBF0FBECDBF109206
S1130BF09B0310929A0388E790E09093720380938A
S1130C00710380EF90E09093700380936F038FEFF4
S1130C109FEF9093AA038093A90380ED97E09093AC
S1130C20A6038093A503F89416DBACDBC2D38CE057
S1130C3090E070D460E070E085E99AE00E949D1233
S1130C409093FC038093FB030FD315D3EAD2FDD218
S1130C5005D380EA9FE0909329018093280111D362
S1130C606DA37EA38FA398A767E089E119D260E002
S1130C708AE116D268E08BE113D260E18CE110D2F4
S1130C8061E08BE60DD224DDF6DE2FEF31EE44E099
S1130C90215030404040E1F700C000001092DB03D7
S1130CA01092DC031092DD031092DE031092BB035A
S1130CB01092BC031092BD031092BE0378941D8E53
S1130CC01E8E1F8E18A20F2EFFED4F2EFFE75F2EF4
S1130CD0F02D04C07DAA6EAA922C832CCE01059619
S1130CE07C018E010D5F1F4F9E012F5F3F4FAE01B0
S1130CF0455F5F4FBE01675F7F4F029627D28981B0
S1130D009A8184599F4F9A8389838B819C818052D5
S1130D109F4F9C838B838D819E818F589D4F9E8393
S1130D208D83AFD22DA13EA14FA158A5621B730B99
S1130D30840B950BCAD520E034E244E759E42CD562
S1130D405B016C019ED26DA37EA38FA398A76981DA
S1130D507A81072E000C880B990BB9D520E030E07E
S1130D6043E852E419D569A77AA78BA79CA76B819E
S1130D707C81072E000C880B990BA9D520E030E06C
S1130D8043E852E409D56DA77EA78FA798AB80915D
S1130D90730390917403892B21F0109274031092C1
S1130DA073036B847C84E984FA84B301072C000CFC
S1130DB0880B990B8CD56D8B7E8B8F8B988FB7019D
S1130DC00F2C000C880B990B82D52D893E894F89F5
S1130DD0588D8BD421EE3EE245E652E454D669A305
S1130DE07AA38BA39CA3C70164E670E00E948811D8
S1130DF0072E000C880B990B6AD56D8B7E8B8F8B1D
S1130E00988FC30164E670E00E948811072E000CDD
S1130E10880B990B5CD5698F7A8F8B8F9C8F2D896A
S1130E203E894F89588DCA01B9012DD669AB7AAB79
S1130E308BAB9CAB2D893E894F89588DCA01B90172
S1130E4022D66D8B7E8B8F8B988F298D3A8D4B8D0F
S1130E505C8DCA01B90117D69B01AC016D897E89ED
S1130E608F89988DCFD376D620E030E048EC52E4D9
S1130E700AD66D8B7E8B8F8B988F6F817885072E2A
S1130E80000C880B990B23D52D893E894F89588DE9
S1130E902CD421EE3EE245E652E4F5D56D8B7E8BF3
S1130EA08F8B988F8601750129A53AA54BA55CA562
S1130EB069A17AA18BA19CA170DA762E672E282EC7
S1130EC0392E2DA53EA54FA558A96D897E898F89F8
S1130ED0988D45DC698F7A8F8B8F9C8F472D562D8B
S1130EE0622D732D85E793E06AD3498D5A8D6B8DFE
S1130EF07C8D8CE793E063D349A15AA16BA17CA1BB
S1130F0083E893E05CD34D895E896F89788D8BE8A3
S1130F1093E055D320E030E0A901672D762D822D92
S1130F20932DB1D59B01AC016D8D7E8D8F8D98A1D4
S1130F3069D36D8F7E8F8F8F98A320E030E04AEFC6
S1130F4053E4672D762D822D932D9DD52D8D3E8DC9
S1130F504F8D58A157D36D8B7E8B8F8B988F2DA976
S1130F603EA9492D582D672D762D822D932D49D3D9
S1130F70A601950111D420E030E040E251E483D58C
S1130F809B01AC016D897E898F89988D3BD36D8BD4
S1130F907E8B8F8B988F31E43F9380E28F931F92E7
S1130FA01F921F921F921F921F9283E48F938AEFC6
S1130FB08F931F921F92AE014F5E5F4F7A018E0195
S1130FC0035F1F4F20E030E0A901672D762D822DAD
S1130FD0932D98DD8AE090E00E943213672D762DE0
S1130FE0822D932D41D49B01772324F42227332788
S1130FF0261B370B79016D897E898F89988D34D4AE
S11310009B01772324F422273327261B370BC201A5
S1131010821B930B9C0122F488279927821B930B34
S11310200FB6F894DEBF0FBECDBF893833E1930706
S113103024F09093A6038093A503B7010F2C000C12
S1131040880B990B44D42CEE31E548E35EE3A0D33E
S1131050181624F44EE2E416F1042CF01092AA03BC
S11310601092A90337CE2CEE31E548E35EE3672DF9
S1131070762D822D932D8CD388234CF4F89481E023
S113108090E09093AA038093A903789423CEF894D4
S11310902FEF3FEF3093AA032093A90378941ACE3D
S11310A0CF93DF93D82FC62F80ED89D18D2FDDD13B
S11310B08C2FDBD1CAD1DF91CF910895AF92BF922B
S11310C0DF92EF92FF920F931F93CF93DF936623E8
S11310D089F1C52FD42FD62E182F80ED70D1812FF2
S11310E0C4D185E38A95F1F7000081ED68D10D2F15
S11310F01C2FEE24EA94ED0CF12CEFEFEE1AFE0A0D
S1131100C0E0D0E0AD2CB12CF1E0AF1AB108CA15A3
S1131110DB0521F4E5D1F801808303C0C7D1F801D0
S1131120808321960F5F1F4FCE15DF0581F7CD2DEC
S11311308CD101C0C0E08C2FDF91CF911F910F9112
S1131140FF90EF90DF90BF90AF9008956F927F92E1
S11311508F929F92AF92BF92CF92DF92EF92FF92C3
S11311600F931F93CF93DF93CDB7DEB72E970FB6B0
S1131170F894DEBF0FBECDBF4C015B016A0139019B
S1131180AE014F5F5F4F6EE08BE398DF898190E0A3
S1131190982F88272A81822BF401918380838B8165
S11311A090E0982F88272C81822BF50191838083EE
S11311B08D8190E0982F88272E81822BF6019183D0
S11311C08083898590E0982F88272A85822BF301D4
S11311D0918380838B8590E0982F88272C85822BA0
S11311E0F801918380838D8590E0982F88272E8540
S11311F0822BF701918380832E960FB6F894DEBF7D
S11312000FBECDBFDF91CF911F910F91FF90EF9053
S1131210DF90CF90BF90AF909F908F907F906F9012
S11312200895E1EAF0E0808181608083E0EAF0E003
S113123080818160808380818068808380818062F6
S113124080838081886080830895E1E2F1E0808179
S1131250816080838081886080830895E3E7F0E083
S1131260808182608083089585B5816085BD85B560
S1131270826085BD0895EEE6F0E080818160808320
S113128008953FB7F8948091A1039091A203A0918F
S1131290A303B091A40326B5A89B05C02F3F19F062
S11312A00196A11DB11D3FBFBA2FA92F982F8827E2
S11312B0820F911DA11DB11DBC01CD01660F771FC9
S11312C0881F991F660F771F881F991F08951F9203
S11312D00F920FB60F9211242F933F938F939F93E6
S11312E0AF93BF9380919D0390919E03A0919F0320
S11312F0B091A00330919C0323E0230F2D3720F4F9
S11313000196A11DB11D05C026E8230F0296A11D5B
S1131310B11D20939C0380939D0390939E03A093FF
S11313209F03B093A0038091A1039091A203A09185
S1131330A303B091A4030196A11DB11D8093A10341
S11313409093A203A093A303B093A403BF91AF917E
S11313509F918F913F912F910F900FBE0F901F90EF
S113136018951F920F920FB60F9211240BB60F927D
S11313702F933F934F935F936F937F938F939F9399
S1131380AF93BF93EF93FF930E943701FF91EF91C7
S1131390BF91AF919F918F917F916F915F914F9189
S11313A03F912F910F900BBE0F900FBE0F901F9087
S11313B018951092B9008CE08093B800089594EACF
S11313C09093BC004FEF50E060E070E0ECEBF0E095
S11313D09081992334F04150510961097109C0F792
S11313E004C0452B462B472B41F19091B900987FBF
S11313F0983011F0903119F58093BB0084E8809304
S1131400BC008FEF90E0A0E0B0E0ECEBF0E02081D6
S113141022232CF00197A109B109C8F704C0892B34
S11314208A2B8B2B71F09091B900987F983159F0E9
S113143081E0903449F480E0089581E0089581E0EA
S1131440089581E0089580E0089584E98093BC00C4
S113145080E090E0ECEBF0E0208124FF05C00196F1
S1131460811521E09207C1F708958093BB0084E8B9
S11314708093BC008FEF90E0A0E0B0E0ECEBF0E0F4
S1131480208122232CF00197A109B109C8F704C0D7
S1131490892B8A2B8B2B41F09091B900987F81E0A6
S11314A0983219F480E0089581E0089584EC8093E3
S11314B0BC008FEF90E0A0E0B0E0ECEBF0E0208126
S11314C022232CF00197A109B109C8F704C0892B84
S11314D08A2B8B2B19F08091BB00089580E008952E
S11314E084E88093BC008FEF90E0A0E0B0E0ECEBE8
S11314F0F0E0208122232CF00197A109B109C8F75B
S113150004C0892B8A2B8B2B19F08091BB00089582
S113151080E008959093C5008093C40088E0809390
S1131520C1008EE08093C2000895CF93C82F8A3003
S113153011F48DE0FADFE0ECF0E0908195FFFDCF4F
S1131540C093C60080E090E0CF9108950F931F935D
S1131550CF93DF93CDB7DEB764970FB6F894DEBFB1
S11315600FBECDBFFC018E010F5F1F4F84E1D80178
S11315701D928A95E9F783818F9382818F9381816C
S11315808F9380818F9387E993E09F938F931F9329
S11315900F930E9437131F930F930E941F130FB6CC
S11315A0F894DEBF0FBECDBF64960FB6F894DEBFCD
S11315B00FBECDBFDF91CF911F910F910895CF93AF
S11315C0DF9300D01F92CDB7DEB749835A836B8374
S11315D07C839F938F930E941F13CE010196B6DFE5
S11315E084E993E09F938F930E941F130F900F90B1
S11315F00F900F900F900F900F900F90DF91CF915D
S113160008955058BB27AA270ED0FCC1EDD130F065
S1131610F2D120F031F49F3F11F41EF4BDC10EF459
S1131620E095E7FBB3C1E92FFED180F3BA17620757
S113163073078407950718F071F49EF516C20EF42B
S1131640E0950B2EBA2FA02D0B01B90190010C01CE
S1131650CA01A0011124FF27591B99F0593F50F4E6
S1131660503E68F11A16F040A22F232F342F44273E
S1131670585FF3CF469537952795A795F040539536
S1131680C9F77EF41F16BA0B620B730B840BBAF006
S11316909150A1F0FF0FBB1F661F771F881FC2F771
S11316A00EC0BA0F621F731F841F48F48795779585
S11316B06795B795F7959E3F08F0B3CF9395880F3C
S11316C008F09927EE0F9795879508958DD158F0D6
S11316D080E891E009F49EEF8ED128F040E851E0D3
S11316E059F45EEF09C058C1C0C1E92FE0789BD11D
S11316F068F3092E052AC1F3261737074807590747
S113170038F00E2E07F8E02569F0E025E0640AC001
S1131710EF6307F8009407FADB01B9019D01DC01CE
S1131720CA01AD01EF9347D06DD10AD05F91552323
S113173031F02BED3FE049E450FD49EC63CF0895CF
S1131740DF93DD27B92FBF7740E85FE3161617064E
S113175048075B0710F4D92F8FD19F938F937F9302
S11317606F9336D2E4EEF0E01AD14CD12F913F9131
S11317704F915F9194D1DD2349F09058A2EA2AED6C
S11317803FE049EC5FE3D0785D274DDFDF913AC15C
S1131790D9D008F481E008950CD034C12CD140F0A4
S11317A023D130F021F45F3F19F0F0C051115EC134
S11317B0F3C039D198F39923C9F35523B1F3951B99
S11317C0550BBB27AA2762177307840738F09F5F5E
S11317D05F4F220F331F441FAA1FA9F333D00E2ECD
S11317E03AF0E0E830D091505040E695001CCAF73A
S11317F029D0FE2F27D0660F771F881FBB1F2617FF
S113180037074807AB07B0E809F0BB0B802DBF01D1
S1131810FF2793585F4F2AF09E3F510568F0B6C0EA
S113182025C15F3FECF3983EDCF386957795679589
S1131830B795F7959F5FC9F7880F911D9695879582
S113184097F90895E1E0660F771F881FBB1F6217A1
S113185073078407BA0720F0621B730B840BBA0B5F
S1131860EE1F88F7E095089504D06894B111FEC086
S11318700895E1D088F09F5790F0B92F9927B75178
S1131880A0F0D1F0660F771F881F991F1AF0BA9540
S1131890C9F712C0B13081F0E8D0B1E00895E5C0D5
S11318A0672F782F8827B85F39F0B93FCCF3869536
S11318B077956795B395D9F73EF490958095709593
S11318C061957F4F8F4F9F4F0895E89409C097FB10
S11318D03EF490958095709561957F4F8F4F9F4F03
S11318E09923A9F0F92F96E9BB279395F695879547
S11318F077956795B795F111F8CFFAF4BB0F11F40A
S113190060FF1BC06F5F7F4F8F4F9F4F16C08823B0
S113191011F096E911C0772321F09EE8872F762FE6
S113192005C0662371F096E8862F70E060E02AF027
S11319309A95660F771F881FDAF7880F9695879513
S113194097F90895990F0008550FAA0BE0E8FEEFE8
S113195016161706E807F907C0F012161306E4076F
S1131960F50798F0621B730B840B950B39F40A2668
S113197061F0232B242B252B21F408950A2609F446
S1131980A140A6958FEF811D811D089597F99F674A
S113199080E870E060E008959FEF80EC0895DF93A5
S11319A0CF931F930F93FF92EF92DF927B018C01F1
S11319B0689405C0DA2EEF0172D0FE01E894A59177
S11319C02591359145915591AEF3EF012CDEFE0141
S11319D09701A801DA9479F7DF90EF90FF900F91C7
S11319E01F91CF91DF91089500240A9416161706CB
S11319F018060906089500240A94121613061406FC
S1131A0005060895092E0394000C11F4882352F05E
S1131A10BB0F40F4BF2B11F460FF04C06F5F7F4F16
S1131A208F4F9F4F089557FD9058440F551F59F0FD
S1131A305F3F71F04795880F97FB991F61F09F3FB7
S1131A4079F087950895121613061406551FF2CFE0
S1131A504695F1DF08C0161617061806991FF1CF30
S1131A6086957105610508940895E894BB27662757
S1131A707727CB0197F908959B01AC0160E070E0F2
S1131A8080E89FE389CE0BD0BDCFAEDF28F0B3DF73
S1131A9018F0952309F07ACF7FCF1124E7CFC3DF65
S1131AA0A0F3959FD1F3950F50E0551F629FF0016D
S1131AB0729FBB27F00DB11D639FAA27F00DB11DC6
S1131AC0AA1F649F6627B00DA11D661F829F22274F
S1131AD0B00DA11D621F739FB00DA11D621F839FD6
S1131AE0A00D611D221F749F3327A00D611D231FAC
S1131AF0849F600D211D822F762F6A2F11249F57FA
S1131B0050408AF0E1F088234AF0EE0FFF1FBB1F1C
S1131B10661F771F881F91505040A9F79E3F5105BB
S1131B2070F034CFA3CF5F3FECF3983EDCF386959F
S1131B3077956795B795F795E7959F5FC1F7FE2B66
S1131B40880F911D9695879597F9089511F40EF4D1
S1131B5023CF41C070DFD0F39923D9F3CEF39F573D
S1131B60550B87FF46D00024A0E640EA9001805838
S1131B705695979528F4805C660F771F881F20F090
S1131B8026173707480730F4621B730B840B202990
S1131B9031294A2BA69517940794202531254A27E5
S1131BA058F7660F771F881F20F026173707480756
S1131BB030F4620B730B840B200D311D411DA09575
S1131BC081F7B901842F9158880F969587950895C8
S1131BD09B01AC0158CF9F3F31F0915020F4879581
S1131BE077956795B795880F911D9695879597F981
S1131BF0089591505040660F771F881FD2F70895BB
S1131C002F923F924F925F926F927F928F929F9208
S1131C10AF92BF92CF92DF92EF92FF920F931F93F6
S1131C20CF93DF93CDB7DEB763970FB6F894DEBFDB
S1131C300FBECDBF6C014B012A01FC011782168235
S1131C40838181FF29C3AE014F5F5F4F3A01F601E3
S1131C509381F40193FD859193FF81914F01882332
S1131C6009F416C3853239F493FD859193FF81916C
S1131C704F01853231F4B60190E0A9D45201250117
S1131C80E6CF10E0F12C20E02032A0F48B3269F092
S1131C9030F4803259F0833269F420612CC08D32E3
S1131CA039F0803339F4216026C02260246023C0D7
S1131CB0286021C027FD27C030ED380F3A3078F472
S1131CC026FF06C0FAE01F9F300D1124132F13C006
S1131CD04AE0F49E300D1124F32E20620CC08E32A3
S1131CE021F426FDD5C2206406C08C3611F4206888
S1131CF002C0883641F4F40193FD859193FF8191EC
S1131D004F018111C1CF9BEB980F933018F42061E0
S1131D10805E06C09BE9980F933008F064C12F7E63
S1131D2026FF16E02F73322E853619F42064322EE6
S1131D3008C0863621F4F22FF0683F2E02C011113C
S1131D40115037FE07C01C3350F4EE24E394E10E27
S1131D5027E00BC0183038F027E017E005C027E073
S1131D604CE3E42E02C0212FE12C520144E0A40EE6
S1131D70B11CF20160817181828193810E2DA301D6
S1131D80EED22C01098100FF02C003FF07C031FC21
S1131D9008C032FE09C030E2232E07C02DE2222EF5
S1131DA004C09BE2292E01C0212C802F8C7019F0D5
S1131DB0211051C28DC237FE0FC0E40C04FF04C0D1
S1131DC08A81813309F4EA941E1474F5F8E0FE154F
S1131DD078F588E0E82E2CC036FC2AC0812F90E0EC
S1131DE0841595059CF02CEF42162FEF520674F0E3
S1131DF0432D4068342E0AC0E2E0F0E0EC0FFD1FF2
S1131E00E10FF11D8081803319F411501111F4CFC9
S1131E1037FE0EC0EE24E394E10E812F90E04816C5
S1131E2059062CF4141904C0EE24E39401C010E004
S1131E3037FE06C01414150434F4C201019605C01B
S1131E4085E090E002C081E090E02110019611232A
S1131E5031F0212F30E02F5F3F4F820F931F2F2D42
S1131E6030E08217930714F4F81A01C0F12C832D83
S1131E70897041F4FF2031F0B60180E290E0A7D3ED
S1131E80FA94F8CF222021F0B601822D90E09FD35E
S1131E9033FC08C0FF2031F0B60180E390E097D313
S1131EA0FA94F8CF37FE58C0942D852D57FE02C002
S1131EB090E080E0292E382E20E030E0A2014E1977
S1131EC051095D874C87A201421953095F874E87E8
S1131ED0612F70E044275527461B570B598B488BBD
S1131EE05FEF2516350641F4B6018EE290E02A8BA9
S1131EF03B8B6DD33B892A89421453046CF04C8587
S1131F005D854215530544F4EE85FF85E20FF31F0A
S1131F10E60DF71D818101C080E351E0251A3108E7
S1131F202F5F3F4F488959892416350644F0B6017E
S1131F3090E02A8B3B8B4BD32A893B89D1CF241445
S1131F40350439F49A81963318F4953311F404FF67
S1131F5081E3B60190E045C08A81813309F00F7EA8
S1131F60B60190E034D3111105C034FC16C085E6E7
S1131F7090E015C0B6018EE290E029D382E0EE2411
S1131F80E394E80EF301E80FF11D8081B60190E0BF
S1131F901ED311508E2D99F7E8CF85E490E0B60159
S1131FA016D357FC05C04114510439F404FF05C08D
S1131FB05194419451088DE201C08BE2B60190E046
S1131FC006D380E39AE0491651042CF08F5F5AE05F
S1131FD0451A5108F7CFB60190E0F9D2B601C20113
S1131FE0C096F5D24CC1833631F0833779F083350E
S1131FF009F054C020C05201E2E0AE0EB11CF2015F
S11320008081898301E010E0230113C05201F2E0D2
S1132010AF0EB11CF2014080518026FF03C0612F36
S113202070E002C06FEF7FEFC2012A8B7BD28C017C
S11320302A892F7714C05201F2E0AF0EB11CF201CD
S11320404080518026FF03C0612F70E002C06FEF13
S11320507FEFC2012A8B5BD28C012A892068322E41
S113206023FD18C08F2D90E00817190798F4B601C6
S113207080E290E0ACD2FA94F5CFF20137FC85917E
S113208037FE81912F01B60190E0A1D2F110FA94AC
S1132090015011090115110581F7F1C0843611F0C1
S11320A0893651F5520127FF09C0F4E0AF0EB11C87
S11320B0F20160817181828193810AC0F2E0AF0EE6
S11320C0B11CF20160817181072E000C880B990B01
S11320D02F76322E97FF09C0909580957095619563
S11320E07F4F8F4F9F4F2068322E2AE030E0A301AC
S11320F0EDD2E82EE6183EC0022F853721F40F7E7C
S11321002AE030E01DC0097F8F3691F018F488353D
S113211059F0BEC0803719F0883711F0B9C000619A
S113212004FF09C0046007C024FF08C0066006C09D
S113213028E030E005C020E130E002C020E132E0D8
S1132140520107FF09C0F4E0AF0EB11CF201608137
S113215071818281938108C0F2E0AF0EB11CF2015B
S11321606081718180E090E0A301B0D2E82EE6188E
S11321700F77302E36FE0BC0332D3E7FE11650F420
S113218034FE0AC032FC08C0332D3E7E05C00E2D3D
S1132190332D03C00E2D01C0012F34FF0CC0FE01EE
S11321A0EE0DF11D8081803311F4397E08C032FFB9
S11321B005C00E5F04C0832F867809F00F5F33FDDE
S11321C012C030FF06C01E2D0F1518F41F0D101B72
S11321D00F2D0F1560F4B60180E290E03B8BF7D130
S11321E00F5F3B89F6CF0F1510F4F01A01C0F12CE4
S11321F034FF11C0B60180E390E03B8BE8D13B890A
S113220032FF16C031FD03C088E790E002C088E5C4
S113221090E0B6010CC0832F867851F031FF02C0E4
S11322208BE201C080E237FD8DE2B60190E0CFD1B0
S1132230E11630F4B60180E390E0C9D11150F8CF33
S1132240EA94F301EE0DF11D8081B60190E0BFD157
S1132250E110F6CF14C0F4E0FF1548F584E0F81A55
S113226033FE1DC0211024C003FF27C002E111E08A
S1132270F32DF0713F2EF8018491811121C0FF20CC
S113228009F4FDCCB60180E290E0A1D1FA94F7CF35
S1132290F6018681978123C08FEF9FEF20C0B6019E
S11322A080E290E094D1FA94F110F9CFDBCFF12CD5
S11322B0B601822D90E08BD1D7CF06E111E0D8CFC3
S11322C031108052B60190E082D10F5F1F4FD3CFFF
S11322D023E02F1510F483E0C2CFF12CC5CF639611
S11322E00FB6F894DEBF0FBECDBFDF91CF911F9123
S11322F00F91FF90EF90DF90CF90BF90AF909F90A1
S11323008F907F906F905F904F903F902F900895A3
S113231097FB072E16F4009406D077FD08D00BD057
S113232007FC05D03EF4909581959F4F08957095D4
S113233061957F4F0895AA1BBB1B51E107C0AA1FDB
S1132340BB1FA617B70710F0A61BB70B881F991F52
S11323505A95A9F780959095BC01CD010895283030
S113236008F027E03327DA01990F311D87FD9160CA
S113237000966105710539F432602E5F3D9330E3B8
S11323802A95E1F708959F3F30F080387105610583
S113239009F03C5F3C5F3D93913008F08068911DEB
S11323A0DF93CF931F930F93FF92EF92192F987F90
S11323B09695E92F96959695E90FFF27EC58FE4FD1
S11323C099273327EE24FF24A701E70105900894F9
S11323D0079428F4360FE71EF81E491F511D660F97
S11323E0771F881F991F0694A1F70590079428F476
S11323F0E70EF81E491F561FC11D770F881F991F2E
S1132400661F0694A1F70590079428F4F80E491F57
S1132410561FC71FD11D880F991F661F771F06946B
S1132420A1F70590079420F4490F561FC71FD81F22
S1132430990F661F771F881F0694A9F7849110953A
S1132440177041F0D695C79557954795F794E7943B
S11324501A95C1F7EAE1F1E0689415901591359168
S11324606591959105907FE27395E118F10A430B0C
S1132470560BC90BD009C0F7E10CF11E431F561FC0
S1132480C91FD01D7EF4703311F48A95E6CFE89409
S1132490015030F0080F0AF40027021708F4202F27
S11324A02395022F7A3328F079E37D932A95E9F76F
S11324B010C07D932A9589F606949795679537956C
S11324C017951794E118F10A430B560BC90BD00961
S11324D098F023957E9173957A3308F070E37C939A
S11324E02013B8F77E9170617D9330F0839571E38A
S11324F07D9370E32A95E1F71124EF90FF900F91FB
S11325001F91CF91DF91992787FD90950895FC0144
S11325100590615070400110D8F7809590958E0F0A
S11325209F1F0895FC016150704001900110D8F77D
S1132530809590958E0F9F1F08950F931F93CF93AF
S1132540DF93009731F46115710519F480E090E090
S113255039C08B01EC016EE070E081E090E014D1B1
S1132560FC01892B99F380E883830115110571F02F
S11325701387028781E8838380910B0490910C0474
S1132580892B21F4F0930C04E0930B042097C9F0F9
S1132590D187C08783818260838380910D04909169
S11325A00E04892B71F4F0930E04E0930D048091D2
S11325B00F0490911004892B21F4F0931004E093FC
S11325C00F04CF01DF91CF911F910F9108950F93C5
S11325D01F93CF93DF93FB01238121FD03C08FEF72
S11325E09FEF28C022FF16C0468157812481358180
S11325F04217530744F4A081B1819D012F5F3F4FDF
S1132600318320838C93268137812F5F3F4F37831B
S1132610268310C0EB01092F182F0084F185E02DCB
S11326201995892BE1F68E819F8101969F838E8374
S1132630812F902FDF91CF911F910F910895CF9308
S1132640DF93CDB7DEB7AE014A5F5F4FFA01619108
S11326507191AF0180910D0490910E04D1DADF9154
S1132660CF91089560910D0470910E04B0CF0F9333
S11326701F93CF93DF93CDB7DEB72E970FB6F894A1
S1132680DEBF0FBECDBF0E891F8986E08C831A83FF
S113269009838FEF9FE79E838D83AE01465E5F4F74
S11326A0688D798DCE010196ABDA2F813885F801DA
S11326B0E20FF31F10822E960FB6F894DEBF0FBE02
S11326C0CDBFDF91CF911F910F910895FA01AA27F1
S11326D0283051F1203181F1E8946F936E7F6E5F61
S11326E07F4F8F4F9F4FAF4FB1E03ED0B4E03CD00F
S11326F0670F781F891F9A1FA11D680F791F8A1FF2
S1132700911DA11D6A0F711D811D911DA11D20D058
S113271009F468943F912AE0269F11243019305D12
S11327203193DEF6CF010895462F4770405D419303
S1132730B3E00FD0C9F7F6CF462F4F70405D4A3350
S113274018F0495D31FD4052419302D0A9F7EACF18
S1132750B4E0A6959795879577956795BA95C9F747
S113276000976105710508959B01AC010A2E06943A
S11327705795479537952795BA95C9F7620F731FF3
S1132780841F951FA01D08950F931F93CF93DF936C
S1132790869F8001879F100D969F100D1124C801FC
S11327A00DD0EC01009721F0A80160E070E033D176
S11327B0CE01DF91CF911F910F910895CF93DF93B5
S11327C08230910510F482E090E0E0911304F091DE
S11327D0140420E030E0C0E0D0E0309711F14081F3
S11327E0518148175907C0F04817590761F482818D
S11327F09381209719F09B838A832BC090931404B0
S11328008093130426C02115310519F0421753078C
S113281018F49A01BE01DF01EF010280F381E02D7B
S1132820DCCF2115310509F1281B390B2430310582
S113283090F412968D919C9113976115710521F076
S1132840FB019383828304C0909314048093130444
S1132850FD01329644C0FD01E20FF31F8193919371
S1132860225031092D933C933AC0209111043091A8
S11328701204232B41F4209102023091030230937D
S113288012042093110420910002309101022115B9
S1132890310541F42DB73EB7409104025091050231
S11328A0241B350BE0911104F0911204E217F30795
S11328B0A0F42E1B3F0B2817390778F0AC014E5FAC
S11328C05F4F2417350748F04E0F5F1F50931204D3
S11328D0409311048193919302C0E0E0F0E0CF01B2
S11328E0DF91CF9108950F931F93CF93DF930097B8
S11328F009F48CC0FC0132971382128200911304F4
S1132900109114040115110581F420813181820F85
S1132910931F20911104309112042817390779F577
S1132920F0931204E093110471C0D80140E050E028
S1132930AE17BF0750F412962D913C911397AD0139
S11329402115310509F1D901F3CF9D01DA01338352
S1132950228360817181860F971F8217930769F420
S1132960EC0128813981260F371F2E5F3F4F3183B9
S113297020838A819B8193838283452B29F4F0935E
S11329801404E093130442C01396FC93EE9312973D
S1132990ED01499159919E01240F351FE217F30768
S11329A071F480819181840F951F029611969C93F6
S11329B08E938281938113969C938E931297E0E079
S11329C0F0E0D80112968D919C911397009719F01D
S11329D0F8018C01F6CF8D919C9198012E5F3F4FA9
S11329E0820F931F20911104309112042817390784
S11329F069F4309729F4109214041092130402C05D
S1132A00138212821093120400931104DF91CF9168
S1132A101F910F910895DC0101C06D934150504006
S10B2A20E0F70895F894FFCFDC
S1132A280000150420008083878A8D9194979B9ECB
S1132A38A1A4A8ABAEB1B5B8BBBEC1C5C8CBCED1F5
S1132A48D4D7DADDE0E1E1E2E3E4E5E6E6E7E8E865
S1132A58E9EAEAEBEBECECECEDEDEDEEEEEEEEEEA6
S1132A68EEEEEEEEEEEEEEEEEEEEEDEDEDECECEC83
S1132A78EBEBEAEAE9E8E8E7E6E6E5E4E3E2E1E1E4
S1132A88E0E1E1E2E3E4E5E6E6E7E8E8E9EAEAEBDF
S1132A98EBECECECEDEDEDEEEEEEEEEEEEEEEEEE56
S1132AA8EEEEEEEEEEEEEDEDEDECECECEBEBEAEA51
S1132AB8E9E8E8E7E6E6E5E4E3E2E1E1E0DDDAD7E0
S1132AC8D4D1CECBC8C5C1BEBBB8B5B1AEABA8A432
S1132AD8A19E9B9794918D8A8783807D7976736F65
S1132AE86C6965625F5C5855524F4B4845423F3BA1
S1132AF83835322F2C292623201F1F1E1D1C1B1A74
S1132B081A19181817161615151414141313131262
S1132B181212121212121212121212121212131387
S1132B281314141415151616171818191A1A1B1C29
S1132B381D1E1F1F201F1F1E1D1C1B1A1A191818C3
S1132B48171616151514141413131312121212123D
S1132B581212121212121212121213131314141440
S1132B6815151616171818191A1A1B1C1D1E1F1FBF
S1132B78202326292C2F3235383B3F4245484B4FDA
S1132B885255585C5F6265696C6F7376797D80F025
S1132B9800780001006B726F203D20006B70692083
S1132BA83D2000726F6C6C203D200070697463686E
S10D2BB8203D2000202000256600C7
S9030000FC
