:1000000009C1000027C1000025C1000023C1000074
:1000100021C100001FC100001DC100001BC1000064
:1000200019C1000017C1000015C1000013C1000074
:1000300011C100000FC100000DC100000BC1000084
:1000400009C1000007C1000005C1000003C1000094
:1000500001C10000FFC00000FDC0000027C6000075
:10006000F9C00000F7C00000F5C00000F3C00000B8
:10007000F1C00000EFC00000EDC00000EBC00000C8
:10008000E9C00000E7C00000E5C00000E3C00000D8
:10009000E1C00000DFC00000DDC00000DBC00000E8
:1000A000D9C00000D7C00000D5C00000D3C00000F8
:1000B000D1C00000CFC00000CDC0000041C600008C
:1000C000C9C00000C7C00000C5C00000C3C0000018
:1000D000C1C00000BFC00000BDC00000BBC0000028
:1000E000B9C00000084AD73B3BCE016E84BCBFFDBF
:1000F000C12F3D6C74319ABD56833DDA3D00C77FF8
:1001000011BED9E4BB4C3E916BAAAABE0000008090
:100110003F006E616E00696E660000407A10F35A0F
:1001200000A0724E18090010A5D4E80000E8764837
:10013000170000E40B54020000CA9A3B000000E1E3
:10014000F505000080969800000040420F00000076
:10015000A08601000000102700000000E803000056
:1001600000006400000000000A0000000000010020
:10017000000000002C76D888DC674F0823DFC1DF41
:10018000AE59E1B1B796E5E3E453C63AE651997644
:1001900096E8E6C28426EB898C9B62ED407C6FFC7E
:1001A000EFBC9C9F40F2BAA56FA5F490055A2AF7C0
:1001B0005C936B6CF9676DC11BFCE0E40D47FEF5C9
:1001C00020E6B500D0ED902E030094357705008031
:1001D000841E080000204E0A000000C80C33333390
:1001E000330F986E12831141EF8D2114893BE65530
:1001F00016CFFEE6DB18D1844B381BF77C1D901D13
:10020000A4BBE424203284725E228100C9F124EC74
:10021000A1E53D2711241FBECFEFD1E2DEBFCDBF48
:1002200000E00CBF13E0A0E0B2E0E0EEF3E200E09B
:100230000BBF02C007900D92AC39B107D9F724E08B
:10024000ACE9B3E001C01D92A932B207E1F770D268
:100250000C94EE11D5CEE1E0F1E0808188608083DE
:100260008081806180838081806280830895E091B5
:100270009C03F0919D03EA5FFD4F808190E0909395
:10028000A9008093A800E0917103F0917203EA5FE6
:10029000FD4F808190E09093AB008093AA00E091A5
:1002A0006F03F0917003EA5FFD4F808190E09093BF
:1002B000AD008093AC006091AB037091AC034091B2
:1002C0009C0350919D03460F571F50939D034093ED
:1002D0009C032091710330917203260F371F3093D6
:1002E00072032093710380916F0390917003860FC6
:1002F000971F9093700380936F03493661E0560710
:100300002CF010929D0310929C0308C0552334F4E6
:1003100048E651E050939D0340939C03293641E009
:1003200034072CF0109272031092710308C033232B
:1003300034F428E631E03093720320937103893658
:1003400061E096072CF01092700310926F0308C0C2
:10035000992334F488E691E09093700380936F03BF
:100360008091A7039091A80390932901809328017D
:100370000895089A0A9A0C9A0E9A3F9A109A129A1D
:10038000149A169A479A08954F925F926F927F92AD
:100390008F929F92AF92BF92CF92DF92EF92FF9295
:1003A0000F931F93CF93DF93CDB7DEB76C970FB644
:1003B000F894DEBF0FBECDBF698B7A8B8B8B9C8B85
:1003C000CA01B901E982FA820B831C83C090B90388
:1003D000D090BA03E090BB03F090BC03A701960154
:1003E0003FD66093B1037093B2038093B3039093AD
:1003F000B40329813A814B815C810E94720A209169
:10040000C1033091C2034091C3035091C40329D664
:100410006D8B7E8B8F8B988F8090D1039090D203C1
:10042000A090D303B090D403A501940169817A818F
:100430008B819C810E94720A6D837E838F83988753
:100440004090C9035090CA036090CB037090CC03D6
:100450008091CD039091CE03A091CF03B091D003B2
:100460008D879E87AF87B88BA30192016D817E81B6
:100470008F819885F5D52D853E854F855889F0D596
:100480002091B5033091B6034091B7035091B80362
:10049000E8D529813A814B815C810E94720AA5ECE2
:1004A000B3E02D913D914D915C91DBD569877A87C1
:1004B0008B879C872D813E814F815885C301B20176
:1004C000CFD52B013C012D813E814F8158856D8513
:1004D0007E858F859889C4D56D877E878F87988B19
:1004E0002091AD033091AE034091AF035091B00322
:1004F00069817A818B819C81F5D7A5019401B1D561
:10050000698F7A8F8B8F9C8F2091BD033091BE03B2
:100510004091BF035091C00369857A858B859C8586
:10052000A0D54B015C019B01AC0169857A858B8567
:100530009C8561D669837A838B839C83A501940112
:100540006D857E858F85988956D66D837E838F8352
:1005500098872D893E894F89588D69897A898B8939
:100560009C897ED5698B7A8B8B8B9C8B9B01AC0194
:1005700069817A818B819C81B5D72D893E894F898C
:10058000588D6FD54B015C016093C1037093C2031A
:100590008093C3039093C40329893A894B895C896A
:1005A0006D817E818F8198859DD7A701960159D550
:1005B0006093B9037093BA038093BB039093BC0319
:1005C00029813A814B815C8169857A858B859C85FF
:1005D00089D79B01AC0169857A858B859C8540D53F
:1005E000E5ECF3E0608371838283938329813A8110
:1005F0004B815C81C301B20175D79B01AC01C30182
:10060000B2012ED56093C9037093CA038093CB03C4
:100610009093CC032D813E814F81588569857A85E1
:100620008B859C855FD79B01AC016D857E858F8511
:10063000988916D56093CD037093CE038093CF0332
:100640009093D0032D813E814F815885C301B20123
:1006500049D79B01AC01698D7A8D8B8D9C8D00D51E
:100660006093D1037093D2038093D3039093D40308
:10067000C501B4016C960FB6F894DEBF0FBECDBFB6
:10068000DF91CF911F910F91FF90EF90DF90CF906E
:10069000BF90AF909F908F907F906F905F904F90A2
:1006A00008958FE692E1A3E8BAE38093B5039093AF
:1006B000B603A093B703B093B80386EA9BE9A4E41A
:1006C000BBE38093AD039093AE03A093AF03B093CD
:1006D000B0038FE892ECA5EFBCE38093BD03909349
:1006E000BE03A093BF03B093C0031092C103109246
:1006F000C2031092C3031092C4031092B903109264
:10070000BA031092BB031092BC03E5ECF3E0108235
:100710001182128213821482158216821782108629
:1007200011861286138614861586168617860895F6
:10073000CF93DF93CDB7DEB768970FB6F894DEBFDF
:100740000FBECDBF10929D0310929C0388E790E0EE
:10075000909372038093710380EF90E09093700305
:1007600080936F038FEF9FEF9093AC038093AB0365
:1007700080ED97E09093A8038093A703F8946BDD36
:10078000F8DD05D38CE090E0B3D360E070E089EA57
:1007900097E00E94720F9093D6038093D50353D2B3
:1007A00059D22ED241D249D280EA9FE090932901BA
:1007B0008093280155D22B013C0167E089E15FD18C
:1007C00060E08AE15CD168E08BE159D160E18CE1C5
:1007D00056D161E08BE653D164DF2FEF43ED80E328
:1007E000215040408040E1F700C000001092C1035A
:1007F0001092C2031092C3031092C4037894198A12
:100800001A8A1B8A1C8A832D3D2CD22C2C2CC82E94
:1008100004C03A2C2B2CD02EC12ECE0105967C0183
:100820008E010D5F1F4F9E012F5F3F4FAE01455F51
:100830005F4FBE01675F7F4F029677D189819A81B2
:1008400084599F4F9A8389838B819C8180529F4FCB
:100850009C838B838D819E818F589D4F9E838D833A
:10086000FFD164197509860997095ED520E034E245
:1008700044E759E4C0D46D8B7E8B8F8B988FF0D179
:100880002B013C0169817A81072E000C880B990BA2
:100890004DD520E030E043E852E4ADD44B015C019B
:1008A0008091730390917403892B21F0109274034B
:1008B000109273036B857C85072E000C880B990BB7
:1008C00035D56D877E878F87988B69857A85072ECA
:1008D000000C880B990B2AD52D853E854F855889AC
:1008E00033D421EE3EE245E652E4FCD56D877E87A7
:1008F0008F87988BED88FE880F89188DA50194014C
:1009000043DDA62EB72E082F192F462F572F682FFD
:10091000792F88E993E084D32FE632E143E85AE364
:100920006A2D7B2D802F912FDDD59B01AC0169892C
:100930007A898B899C8995D3698B7A8B8B8B9C8BDD
:10094000232D322D4D2D5C2D6A2D7B2D802F912F47
:1009500087D32D893E894F89588D4DD420E030E0D2
:1009600040EC5FE3BFD56B017C0126E636E646EC42
:100970005FE36A2D7B2D802F912FB4D529893A8989
:100980004B895C896ED39B01AC01C701B60169D369
:100990006B017C014D855E856F85788985E793E0E5
:1009A0003FD36F8178858DE793E0E4D269857A85BE
:1009B00081E893E0DFD26B857C8585E893E0DAD22D
:1009C0008AE090E00E940B10C701B6017CD49B0125
:1009D000772324F422273327261B370B790146EF90
:1009E0004203B001439F700D11246152704861327F
:1009F0008EE4780738F07093A8036093A70389E822
:100A000093E0B8D2B701FF0C880B990B8FD420E08C
:100A100030E040EC5FE3EBD318167CF46A2D7B2DBD
:100A2000802F912F50D49B01772324F42227332742
:100A3000261B370B2B3531052CF01092AC0310928E
:100A4000AB03E7CE20E030E040EC5FE36A2D7B2D86
:100A5000802F912FCCD388234CF4F89481E090E040
:100A60009093AC038093AB037894D3CEF8948FEF3C
:100A70009FEF9093AC038093AB037894CACECF934F
:100A8000DF93D82FC62F80ED88D18D2FDCD18C2F0E
:100A9000DAD1C9D1DF91CF910895AF92BF92CF92B1
:100AA000DF92FF920F931F93CF93DF93662389F119
:100AB000C52FD42FF62E182F80ED6FD1812FC3D1E3
:100AC00085E38A95F1F7000081ED67D10D2F1C2F8A
:100AD000CC24CA94CF0CD12CEFEFCE1ADE0AC0E0A2
:100AE000D0E0AF2CB12CF1E0AF1AB108AC16BD06C6
:100AF00021F4E4D1F801808303C0C6D1F8018083DA
:100B000021960F5F1F4FCC15DD0581F7CF2D8BD1BF
:100B100001C0C0E08C2FDF91CF911F910F91FF900A
:100B2000DF90CF90BF90AF9008956F927F928F9299
:100B30009F92AF92BF92CF92DF92EF92FF920F936C
:100B40001F93CF93DF93CDB7DEB72E970FB6F894F0
:100B5000DEBF0FBECDBF4C015B016A013901AE01A2
:100B60004F5F5F4F6EE08BE398DF898190E0982FB5
:100B700088272A81822BF401918380838B8190E0E6
:100B8000982F88272C81822BF501918380838D817A
:100B900090E0982F88272E81822BF6019183808305
:100BA000898590E0982F88272A85822BF3019183ED
:100BB00080838B8590E0982F88272C85822BF801E5
:100BC000918380838D8590E0982F88272E85822BB6
:100BD000F701918380832E960FB6F894DEBF0FBE87
:100BE000CDBFDF91CF911F910F91FF90EF90DF90DC
:100BF000CF90BF90AF909F908F907F906F9008950F
:100C0000E1EAF0E0808181608083E0EAF0E08081C9
:100C1000816080838081806880838081806280831E
:100C20008081886080830895E1E2F1E080818160C5
:100C300080838081886080830895E3E7F0E080818D
:100C400082608083089585B5816085BD85B58260A9
:100C500085BD0895EEE6F0E080818160808308958F
:100C60003FB7F8948091A3039091A403A091A503AA
:100C7000B091A60326B5A89B05C02F3F19F0019699
:100C8000A11DB11D3FBFBA2FA92F982F8827820F12
:100C9000911DA11DB11DBC01CD01660F771F881FDD
:100CA000991F660F771F881F991F08951F920F9233
:100CB0000FB60F9211242F933F938F939F93AF936F
:100CC000BF9380919F039091A003A091A103B09145
:100CD000A20330919E0323E0230F2D3720F40196C9
:100CE000A11DB11D05C026E8230F0296A11DB11D4F
:100CF00020939E0380939F039093A003A093A1034E
:100D0000B093A2038091A3039091A403A091A503A3
:100D1000B091A6030196A11DB11D8093A3039093EA
:100D2000A403A093A503B093A603BF91AF919F9195
:100D30008F913F912F910F900FBE0F901F9018959C
:100D40001F920F920FB60F9211240BB60F922F9392
:100D50003F934F935F936F937F938F939F93AF9343
:100D6000BF93EF93FF9383DAFF91EF91BF91AF9120
:100D70009F918F917F916F915F914F913F912F91B3
:100D80000F900BBE0F900FBE0F901F9018951092F2
:100D9000B9008CE08093B800089594EA9093BC0069
:100DA0004FEF50E060E070E0ECEBF0E090819923D1
:100DB00034F04150510961097109C0F704C0452B55
:100DC000462B472B41F19091B900987F983011F054
:100DD000903119F58093BB0084E88093BC008FEFBD
:100DE00090E0A0E0B0E0ECEBF0E0208122232CF0DA
:100DF0000197A109B109C8F704C0892B8A2B8B2B55
:100E000071F09091B900987F983159F081E0903459
:100E100049F480E0089581E0089581E0089581E03B
:100E2000089580E0089584E98093BC0080E090E01C
:100E3000ECEBF0E0208124FF05C00196811521E054
:100E40009207C1F708958093BB0084E88093BC00AB
:100E50008FEF90E0A0E0B0E0ECEBF0E02081222307
:100E60002CF00197A109B109C8F704C0892B8A2B7E
:100E70008B2B41F09091B900987F81E0983219F462
:100E800080E0089581E0089584EC8093BC008FEFAA
:100E900090E0A0E0B0E0ECEBF0E0208122232CF029
:100EA0000197A109B109C8F704C0892B8A2B8B2BA4
:100EB00019F08091BB00089580E0089584E8809344
:100EC000BC008FEF90E0A0E0B0E0ECEBF0E0208120
:100ED00022232CF00197A109B109C8F704C0892B7E
:100EE0008A2B8B2B19F08091BB00089580E0089528
:100EF0009093C5008093C40088E08093C1008EE089
:100F00008093C20008950F931F93CF93DF93CDB7C3
:100F1000DEB72A970FB6F894DEBF0FBECDBF4AE00A
:100F20008E010F5F1F4FB801FC0180819181B7D7FF
:100F30001F930F930E94F80F0F900F902A960FB6F1
:100F4000F894DEBF0FBECDBFDF91CF911F910F91FF
:100F50000895CF93C82F8A3011F48DE0FADFE0ECCA
:100F6000F0E0808185FFFDCFC093C60080E090E077
:100F7000CF910895CF93DF931F921F92CDB7DEB725
:100F80007A8369839F938F930E94F80FCE01019615
:100F9000BADF86E993E09F938F930E94F80F0F903A
:100FA0000F900F900F900F900F90DF91CF910895B9
:100FB0000F931F93CF93DF93CDB7DEB764970FB630
:100FC000F894DEBF0FBECDBFFC018E010F5F1F4F37
:100FD00084E1D8011D928A95E9F783818F938281FC
:100FE0008F9381818F9380818F9389E993E09F9381
:100FF0008F931F930F930E9410101F930F93F8D796
:101000000FB6F894DEBF0FBECDBF64960FB6F8944E
:10101000DEBF0FBECDBFDF91CF911F910F9108951D
:10102000CF93DF9300D01F92CDB7DEB749835A83A9
:101030006B837C839F938F93DBD7CE010196B8DFC0
:1010400086E993E09F938F93D3D70F900F900F90E3
:101050000F900F900F900F900F90DF91CF91089508
:101060005058BB27AA270ED0FCC1EDD130F0F2D1E9
:1010700020F031F49F3F11F41EF4BDC10EF4E09551
:10108000E7FBB3C1E92FFED180F3BA1762077307FC
:101090008407950718F071F49EF516C20EF4E095DA
:1010A0000B2EBA2FA02D0B01B90190010C01CA0122
:1010B000A0011124FF27591B99F0593F50F4503ECD
:1010C00068F11A16F040A22F232F342F4427585FBF
:1010D000F3CF469537952795A795F0405395C9F7D7
:1010E0007EF41F16BA0B620B730B840BBAF091508F
:1010F000A1F0FF0FBB1F661F771F881FC2F70EC02E
:10110000BA0F621F731F841F48F487957795679500
:10111000B795F7959E3F08F0B3CF9395880F08F0E9
:101120009927EE0F9795879508958DD158F080E80F
:1011300091E009F49EEF8ED128F040E851E059F497
:101140005EEF09C058C1C0C1E92FE0789BD168F3B8
:10115000092E052AC1F3261737074807590738F023
:101160000E2E07F8E02569F0E025E0640AC0EF6381
:1011700007F8009407FADB01B9019D01DC01CA01FF
:10118000AD01EF9347D06DD10AD05F91552331F077
:101190002BED3FE049E450FD49EC63CF0895DF9328
:1011A000DD27B92FBF7740E85FE31616170648071B
:1011B0005B0710F4D92F8FD19F938F937F936F93F9
:1011C000F4D1E4EEF0E01AD14CD12F913F914F9140
:1011D0005F9194D1DD2349F09058A2EA2AED3FE0D7
:1011E00049EC5FE3D0785D274DDFDF913AC1D9D07C
:1011F00008F481E008950CD034C12CD140F023D103
:1012000030F021F45F3F19F0F0C051115EC1F3C01E
:1012100039D198F39923C9F35523B1F3951B550B95
:10122000BB27AA2762177307840738F09F5F5F4FB9
:10123000220F331F441FAA1FA9F333D00E2E3AF0FA
:10124000E0E830D091505040E695001CCAF729D014
:10125000FE2F27D0660F771F881FBB1F2617370763
:101260004807AB07B0E809F0BB0B802DBF01FF2793
:1012700093585F4F2AF09E3F510568F0B6C025C1D4
:101280005F3FECF3983EDCF3869577956795B795CD
:10129000F7959F5FC9F7880F911D9695879597F9E8
:1012A0000895E1E0660F771F881FBB1F6217730761
:1012B0008407BA0720F0621B730B840BBA0BEE1F76
:1012C00088F7E095089504D06894B111FEC00895A0
:1012D000E1D088F09F5790F0B92F9927B751A0F02F
:1012E000D1F0660F771F881F991F1AF0BA95C9F7BA
:1012F00012C0B13081F0E8D0B1E00895E5C0672FA9
:10130000782F8827B85F39F0B93FCCF38695779569
:101310006795B395D9F73EF4909580957095619552
:101320007F4F8F4F9F4F0895E89409C097FB3EF47D
:1013300090958095709561957F4F8F4F9F4F992322
:10134000A9F0F92F96E9BB279395F69587957795A0
:101350006795B795F111F8CFFAF4BB0F11F460FF60
:101360001BC06F5F7F4F8F4F9F4F16C0882311F0B8
:1013700096E911C0772321F09EE8872F762F05C0CC
:10138000662371F096E8862F70E060E02AF09A9567
:10139000660F771F881FDAF7880F9695879597F95C
:1013A0000895990F0008550FAA0BE0E8FEEF1616F6
:1013B0001706E807F907C0F012161306E407F50749
:1013C00098F0621B730B840B950B39F40A2661F0BD
:1013D000232B242B252B21F408950A2609F4A14060
:1013E000A6958FEF811D811D089597F99F6780E86D
:1013F00070E060E008959FEF80EC0895DF93CF9355
:101400001F930F93FF92EF92DF927B018C01689400
:1014100005C0DA2EEF0172D0FE01E894A591259166
:10142000359145915591AEF3EF012CDEFE01970108
:10143000A801DA9479F7DF90EF90FF900F911F9158
:10144000CF91DF91089500240A9416161706180606
:101450000906089500240A941216130614060506B8
:101460000895092E0394000C11F4882352F0BB0F49
:1014700040F4BF2B11F460FF04C06F5F7F4F8F4FAC
:101480009F4F089557FD9058440F551F59F05F3FE7
:1014900071F04795880F97FB991F61F09F3F79F096
:1014A00087950895121613061406551FF2CF469518
:1014B000F1DF08C0161617061806991FF1CF86959A
:1014C0007105610508940895E894BB27662777277E
:1014D000CB0197F908959B01AC0160E070E080E8D2
:1014E0009FE389CE0BD0BDCFAEDF28F0B3DF18F07D
:1014F000952309F07ACF7FCF1124E7CFC3DFA0F384
:10150000959FD1F3950F50E0551F629FF001729F98
:10151000BB27F00DB11D639FAA27F00DB11DAA1FB7
:10152000649F6627B00DA11D661F829F2227B00D04
:10153000A11D621F739FB00DA11D621F839FA00D8F
:10154000611D221F749F3327A00D611D231F849FDF
:10155000600D211D822F762F6A2F11249F57504036
:101560008AF0E1F088234AF0EE0FFF1FBB1F661FD1
:10157000771F881F91505040A9F79E3F510570F08A
:1015800034CFA3CF5F3FECF3983EDCF3869577959D
:101590006795B795F795E7959F5FC1F7FE2B880F85
:1015A000911D9695879597F908959B01AC019ACF67
:1015B0002F923F924F925F926F927F928F929F9263
:1015C000AF92BF92CF92DF92EF92FF920F931F9351
:1015D000CF93DF93CDB7DEB760970FB6F894DEBF39
:1015E0000FBECDBF7C011B016A01FC011782168270
:1015F000838181FF2AC39E012F5F3F4F3901F7018D
:101600009381F10193FD859193FF81911F018823BF
:1016100009F417C3853239F493FD859193FF8191C5
:101620001F01853231F4B70190E0A6D4560165015F
:10163000E6CF10E0512C912CFFE1F915D8F08B3258
:1016400079F038F4803279F08332A1F4F92DF06129
:101650002EC08D3261F0803369F4292D21602DC0B8
:10166000392D3260932E892D8460982E2AC0E92D61
:10167000E86015C097FC2DC020ED280F2A3088F4B3
:1016800096FE06C03AE0139F200D1124122F19C0B8
:101690008AE0589E200D1124522EE92DE0629E2EE4
:1016A00010C08E3231F496FCCCC2F92DF0649F2E1E
:1016B00008C08C3621F4292D2068922E02C088366D
:1016C00041F4F10193FD859193FF81911F018111F7
:1016D000B3CF9BEB980F933020F4992D9061805EEF
:1016E00007C09BE9980F933008F059C1992D9F7E50
:1016F00096FF16E09F73992E853619F49064992E03
:1017000008C0863621F4392F3068932E02C011119B
:10171000115097FE07C01C3350F444244394410EEB
:1017200027E00BC0183038F027E017E005C027E0AD
:101730009CE3492E02C0212F412C560184E0A80EC3
:10174000B11CF6016081718182819381042DA30116
:10175000B8D26C01F981FC87F0FF02C0F3FF06C02C
:1017600091FC06C092FE06C000E205C00DE203C077
:101770000BE201C000E08C858C7019F0011143C2AE
:1017800080C297FE10C04C0CFC85F4FF04C08A8117
:10179000813309F44A94141474F528E0241578F57B
:1017A00088E0482E2CC096FC2AC0812F90E08C1532
:1017B0009D059CF03CEFC3163FEFD30674F0892DD6
:1017C0008068982E0AC0E2E0F0E0EC0FFD1FE10F08
:1017D000F11D8081803319F411501111F4CF97FE5F
:1017E0000EC044244394410E812F90E0C816D906C0
:1017F0002CF41C1904C04424439401C010E097FE4B
:1018000006C01C141D0434F4C601019605C085E011
:1018100090E002C081E090E001110196112331F0C7
:10182000212F30E02F5F3F4F820F931F252D30E097
:101830008217930714F4581A01C0512C892D89700E
:1018400041F4552031F0B70180E290E095D35A94ED
:10185000F8CF002321F0B701802F90E08DD393FCC7
:1018600008C0552031F0B70180E390E085D35A9449
:10187000F8CF97FE4AC04601D7FE02C0812C912CBA
:10188000C60188199909F301E80FF91FFE87ED8752
:10189000960124193109388B2F87012F10E01195FB
:1018A000019511093FEF8316930621F4B7018EE2EB
:1018B00090E062D3C814D9044CF08F8598898815BC
:1018C000990524F4ED85FE85818101C080E3F1E076
:1018D0008F1A91082D853E852F5F3F4F3E872D87BC
:1018E0008016910624F0B70190E046D3DBCFC814F0
:1018F000D90441F49A81963320F4953319F43C8548
:1019000034FF81E3B70190E048C08A81813319F048
:101910009C859F7E9C87B70190E02ED3111105C056
:1019200094FC16C085E690E015C0B7018EE290E009
:1019300023D31E5F82E001E0080FF301E80FF11DE1
:101940008081B70190E018D3802F0113F4CFE8CF46
:1019500085E490E0B70110D3D7FC06C0C114D104D0
:1019600041F4EC85E4FF05C0D194C194D1088DE227
:1019700001C08BE2B70190E0FFD280E32AE0C216FB
:10198000D1042CF08F5FFAE0CF1AD108F7CFB7015E
:1019900090E0F2D2B701C601C096EED249C18336BB
:1019A00031F0833779F0833509F052C01FC05601FA
:1019B00032E0A30EB11CF6018081898301E010E0C2
:1019C000630111C05601F2E0AF0EB11CF601C080F8
:1019D000D18096FE03C0612F70E002C06FEF7FEFF1
:1019E000C60152D28C01F92DFF7713C0560122E0B7
:1019F000A20EB11CF601C080D18096FE03C0612FFB
:101A000070E002C06FEF7FEFC60133D28C01F92D79
:101A1000F0689F2EF3FD18C0852D90E00817190778
:101A200098F4B70180E290E0A7D25A94F5CFF6017E
:101A300097FC859197FE81916F01B70190E09CD250
:101A400051105A94015011090115110581F7F0C088
:101A5000843611F0893659F5560197FE09C024E005
:101A6000A20EB11CF60160817181828193810AC04E
:101A7000F2E0AF0EB11CF60160817181072E000CFF
:101A8000880B990BF92DFF769F2E97FF09C0909533
:101A90008095709561957F4F8F4F9F4FF0689F2E77
:101AA0002AE030E0A301EAD2C82EC6183EC0092DB4
:101AB000853721F40F7E2AE030E01DC0097F8F3684
:101AC00091F018F4883559F0BCC0803719F0883788
:101AD00011F0B7C0006104FF09C0046007C094FEA4
:101AE00008C0066006C028E030E005C020E130E014
:101AF00002C020E132E0560107FF09C084E0A80ED1
:101B0000B11CF601608171818281938108C0F2E08D
:101B1000AF0EB11CF6016081718180E090E0A301FD
:101B2000ADD2C82EC6180F77902E96FE0BC0092D89
:101B30000E7FC11650F494FE0AC092FC08C0092D15
:101B40000E7E05C0DC2C092D03C0DC2C01C0D12E7B
:101B500004FF0DC0FE01EC0DF11D8081803311F4F6
:101B6000097E09C002FF06C0D394D39404C0802F1D
:101B7000867809F0D39403FD10C000FF06C01C2D29
:101B8000D51478F4150D1D190CC0D51450F4B701F7
:101B900080E290E0F1D1D394F8CFD51410F45D1821
:101BA00001C0512C04FF0FC0B70180E390E0E4D1E5
:101BB00002FF16C001FD03C088E790E002C088E57F
:101BC00090E0B7010CC0802F867851F001FF02C071
:101BD0008BE201C080E207FD8DE2B70190E0CCD13D
:101BE000C11630F4B70180E390E0C6D11150F8CFB0
:101BF000CA94F301EC0DF11D8081B70190E0BCD1D6
:101C0000C110F6CF15C0F4E0F51550F584E0581A70
:101C100093FE1EC0011125C02C8523FF27C002E1C1
:101C200011E0392D3071932EF8018491811121C07A
:101C3000552009F4FCCCB70180E290E09DD15A9484
:101C4000F7CFF7018681978123C08FEF9FEF20C0E8
:101C5000B70180E290E090D15A945110F9CFDACFD9
:101C6000512CB701802F90E087D1D6CF06E111E04B
:101C7000D8CF91108052B70190E07ED10F5F1F4FF7
:101C8000D3CF23E0251510F483E0C1CF512CC4CF6E
:101C900060960FB6F894DEBF0FBECDBFDF91CF9137
:101CA0001F910F91FF90EF90DF90CF90BF90AF907A
:101CB0009F908F907F906F905F904F903F902F906C
:101CC0000895283008F027E03327DA01990F311DF5
:101CD00087FD916000966105710539F432602E5FD1
:101CE0003D9330E32A95E1F708959F3F30F0803827
:101CF0007105610509F03C5F3C5F3D93913008F050
:101D00008068911DDF93CF931F930F93FF92EF9203
:101D1000192F987F9695E92F96959695E90FFF27AD
:101D2000EC58FE4F99273327EE24FF24A701E70143
:101D300005900894079428F4360FE71EF81E491FF3
:101D4000511D660F771F881F991F0694A1F70590F4
:101D5000079428F4E70EF81E491F561FC11D770F80
:101D6000881F991F661F0694A1F70590079428F411
:101D7000F80E491F561FC71FD11D880F991F661FD8
:101D8000771F0694A1F70590079420F4490F561F7A
:101D9000C71FD81F990F661F771F881F0694A9F7C2
:101DA00084911095177041F0D695C7955795479532
:101DB000F794E7941A95C1F7EAE1F1E06894159079
:101DC000159135916591959105907FE27395E11894
:101DD000F10A430B560BC90BD009C0F7E10CF11EF9
:101DE000431F561FC91FD01D7EF4703311F48A950E
:101DF000E6CFE894015030F0080F0AF400270217EC
:101E000008F4202F2395022F7A3328F079E37D936D
:101E10002A95E9F710C07D932A9589F6069497953F
:101E20006795379517951794E118F10A430B560BF0
:101E3000C90BD00998F023957E9173957A3308F0F9
:101E400070E37C932013B8F77E9170617D9330F03E
:101E5000839571E37D9370E32A95E1F71124EF9068
:101E6000FF900F911F91CF91DF91992787FD90955A
:101E70000895FC010590615070400110D8F78095DD
:101E800090958E0F9F1F0895FC0161507040019046
:101E90000110D8F7809590958E0F9F1F0895BB274E
:101EA0004A3031F4992322F4BDE2909581959F4FF9
:101EB00001C0BB27FB015527AA27880F991FAA1F1E
:101EC000A41710F0A41B83955051B9F7A05DAA3355
:101ED00008F0A95DA193009779F7B111B193119220
:101EE000CB016CC20F931F93CF93DF93009731F414
:101EF0006115710519F480E090E039C08B01EC01A7
:101F00006EE070E081E090E017D1FC01892B99F33D
:101F100080E883830115110571F01387028781E83A
:101F2000838380911F0490912004892B21F4F093E6
:101F30002004E0931F042097C9F0D187C0878381D4
:101F4000826083838091210490912204892B71F413
:101F5000F0932204E09321048091230490912404BF
:101F6000892B21F4F0932404E0932304CF01DF9123
:101F7000CF911F910F9108950F931F93CF93DF93EC
:101F8000FB01238121FD03C08FEF9FEF2CC022FFB7
:101F900016C046815781248135814217530744F486
:101FA000A081B1819D012F5F3F4F318320838C93AE
:101FB000268137812F5F3F4F3783268314C08B01E3
:101FC000EC01FB010084F185E02D1995892BE1F6E8
:101FD000D80116968D919C911797019617969C9310
:101FE0008E931697CE01DF91CF911F910F91089597
:101FF000CF93DF93CDB7DEB7AE014A5F5F4FFA01F3
:1020000061917191AF018091210490912204D0DA05
:10201000DF91CF9108956091210470912204ACCF9B
:102020000F931F93CF93DF93CDB7DEB72E970FB6E5
:10203000F894DEBF0FBECDBF0E891F8986E08C836A
:102040001A8309838FEF9FE79E838D83AE01465EDF
:102050005F4F688D798DCE010196AADAEF81F88500
:10206000E00FF11F10822E960FB6F894DEBF0FBE60
:10207000CDBFDF91CF911F910F910895FA01AA274B
:10208000283051F1203181F1E8946F936E7F6E5FBB
:102090007F4F8F4F9F4FAF4FB1E03ED0B4E03CD069
:1020A000670F781F891F9A1FA11D680F791F8A1F4C
:1020B000911DA11D6A0F711D811D911DA11D20D0B3
:1020C00009F468943F912AE0269F11243019305D6D
:1020D0003193DEF6CF010895462F4770405D41935E
:1020E000B3E00FD0C9F7F6CF462F4F70405D4A33AB
:1020F00018F0495D31FD4052419302D0A9F7EACF73
:10210000B4E0A6959795879577956795BA95C9F7A1
:1021100000976105710508959B01AC010A2E069494
:102120005795479537952795BA95C9F7620F731F4D
:10213000841F951FA01D08950F931F93CF93DF93C6
:10214000869F8001879F100D969F100D1124C80156
:102150000DD0EC01009721F0A80160E070E027D1DC
:10216000CE01DF91CF911F910F9108950F931F938F
:10217000CF93DF938230910510F482E090E0E091FC
:102180002704F091280420E030E0A0E0B0E0309790
:1021900019F1408151810281138148175907C8F014
:1021A0008417950769F4109731F012960C931297E3
:1021B00013961C9327C0009327041093280422C071
:1021C0002115310519F04217530718F49A01BD0182
:1021D000EF01DF01F801DBCF21153105F9F0281BF4
:1021E000390B2430310580F48A819B81611571059A
:1021F00021F0FB019383828304C090932804809391
:102200002704FE01329644C0FE01E20FF31F8193C2
:10221000919322503109398328833AC020912504B3
:1022200030912604232B41F42091020230910302C5
:10223000309326042093250420910002309101025E
:102240002115310541F42DB73EB74091040250915C
:102250000502241B350BE0912504F0912604E217BA
:10226000F307A0F42E1B3F0B2817390778F0AC01B9
:102270004E5F5F4F2417350748F04E0F5F1F509396
:102280002604409325048193919302C0E0E0F0E09E
:10229000CF01DF91CF911F910F910895CF93DF93DD
:1022A000009709F481C0FC01329713821282A09139
:1022B0002704B0912804109781F420813181820F86
:1022C000931F20912504309126042817390751F5D2
:1022D000F0932604E093250467C0ED0120E030E090
:1022E000CE17DF0740F44A815B819E0141155105FD
:1022F000F1F0EA01F5CFD383C28340815181840F8D
:10230000951FC817D90759F488819981840F951FA3
:102310000296918380838A819B8193838283211596
:10232000310529F4F0932804E09327043DC0E90126
:10233000FB83EA8349915991C40FD51FEC17FD0720
:1023400061F480819181840F951F0296E901998340
:102350008883828193819B838A83E0E0F0E01296F8
:102360008D919C911397009719F0FD01DC01F7CF37
:102370008D919C9111979D012E5F3F4F820F931F6E
:1023800020912504309126042817390769F43097E5
:1023900029F4109228041092270402C0138212829A
:1023A000B0932604A0932504DF91CF910895DC011A
:1023B00001C06D9341505040E0F70895DC01FC01ED
:1023C000672F71917723E1F7329704C07C916D9369
:1023D00070836291AE17BF07C8F30895F894FFCFDA
:1023E0000000290420008083878A8D9194979B9E0A
:1023F000A1A4A8ABAEB1B5B8BBBEC1C5C8CBCED148
:10240000D4D7DADDE0E1E1E2E3E4E5E6E6E7E8E8B7
:10241000E9EAEAEBEBECECECEDEDEDEEEEEEEEEEF8
:10242000EEEEEEEEEEEEEEEEEEEEEDEDEDECECECD5
:10243000EBEBEAEAE9E8E8E7E6E6E5E4E3E2E1E136
:10244000E0E1E1E2E3E4E5E6E6E7E8E8E9EAEAEB31
:10245000EBECECECEDEDEDEEEEEEEEEEEEEEEEEEA8
:10246000EEEEEEEEEEEEEDEDEDECECECEBEBEAEAA3
:10247000E9E8E8E7E6E6E5E4E3E2E1E1E0DDDAD732
:10248000D4D1CECBC8C5C1BEBBB8B5B1AEABA8A484
:10249000A19E9B9794918D8A8783807D7976736FB7
:1024A0006C6965625F5C5855524F4B4845423F3BF3
:1024B0003835322F2C292623201F1F1E1D1C1B1AC6
:1024C0001A191818171616151514141413131312B5
:1024D00012121212121212121212121212121313DA
:1024E0001314141415151616171818191A1A1B1C7C
:1024F0001D1E1F1F201F1F1E1D1C1B1A1A19181816
:10250000171616151514141413131312121212128F
:102510001212121212121212121213131314141492
:1025200015151616171818191A1A1B1C1D1E1F1F11
:10253000202326292C2F3235383B3F4245484B4F2C
:102540005255585C5F6265696C6F7376797D80F077
:102550000078000100726F6C6C203D200061783DB6
:102560000061793D00617A3D0070776D5F64656C54
:0C2570006179203D20002020002566003D
:00000001FF
