:1000000071C000008FC000008DC000008BC00000D8
:1000100089C0000087C0000085C0000083C00000C8
:1000200081C000007FC000007DC000007BC00000D8
:1000300079C0000077C0000075C0000073C00000E8
:1000400071C000006FC000006DC000006BC00000F8
:1000500069C0000067C0000065C0000081C00000EA
:1000600061C000005FC000005DC000005BC0000018
:1000700059C0000057C0000055C0000053C0000028
:1000800051C000004FC000004DC000004BC0000038
:1000900049C0000047C0000045C0000043C0000048
:1000A00041C000003FC000003DC000003BC0000058
:1000B00039C0000037C0000035C0000019C1000081
:1000C00031C000002FC000002DC000002BC0000078
:1000D00029C0000027C0000025C0000023C0000088
:1000E00021C0000011241FBECFEFD1E2DEBFCDBF83
:1000F00000E00CBF14E0A0E0B2E0E2E7F4E100E0D1
:100100000BBF02C007900D92AE32B107D9F724E0C1
:10011000AEE2B4E001C01D92A235B207E1F734D1DE
:100120000C94370A6DCFE1E0F1E080818860808334
:100130008081806180838081806280830895CF93F5
:10014000C82F8A3011F48DE0FADFE0ECF0E0808116
:1001500085FFFDCFC093C60080E090E0CF91089569
:100160001F920F920FB60F9211248F939F93AF930C
:10017000BF938091300490913104A0913204B091EA
:1001800033040196A11DB11D809330049093310476
:10019000A0933204B0933304BF91AF919F918F919C
:1001A0000F900FBE0F901F9018953FB7F894809155
:1001B000300490913104A0913204B091330426B5FB
:1001C000A89B05C02F3F19F00196A11DB11D3FBF8F
:1001D000BA2FA92F982F8827820F911DA11DB11D1D
:1001E000BC01CD01660F771F881F991F660F771F0F
:1001F000881F991F0895E0913404F0913504E35E5F
:10020000FD4F808190E09093A9008093A800E09139
:100210000A02F0910B02E35EFD4F808190E0909323
:10022000AB008093AA00E0910802F0910902E35E1E
:10023000FD4F808190E09093AD008093AC00609181
:100240000602709107024091340450913504460F24
:10025000571F509335044093340420910A02309183
:100260000B02260F371F30930B0220930A02809156
:10027000080290910902860F971F909309028093BC
:10028000080260910C0270910D02641775072CF43E
:10029000109235041092340406C0552324F4709350
:1002A000350460933404621773072CF410920B0228
:1002B00010920A0206C0332324F470930B02609359
:1002C0000A02681779072CF41092090210920802AA
:1002D00006C0992324F47093090260930802809168
:1002E0002E0490912F049093290180932801089562
:1002F0001F920F920FB60F9211240BB60F922F93ED
:100300003F934F935F936F937F938F939F93AF939D
:10031000BF93EF93FF936FDFFF91EF91BF91AF9189
:100320009F918F917F916F915F914F913F912F910D
:100330000F900BBE0F900FBE0F901F9018950F934C
:100340001F93CF93DF93CDB7DEB72A970FB6F894FC
:10035000DEBF0FBECDBF4AE08E010F5F1F4FB80159
:10036000FC0180819181CFD31F930F9339D40F90DB
:100370000F902A960FB6F894DEBF0FBECDBFDF9167
:10038000CF911F910F910895CF93DF93CDB7DEB733
:1003900068970FB6F894DEBF0FBECDBFC4DE92D211
:1003A00080E190E040D360E070E08FE990E0CED350
:1003B000909337048093360455D277D27DD266D29B
:1003C0006ED280EA9FE090932901809328011D86D8
:1003D0001E861F86188A198A1A8A1B8A1C8A1D8AF9
:1003E0001E8A1F8A188EAE014B5E5F4FBE016F5E84
:1003F0007F4FCE010D96B8D067E089E16CD160E007
:100400008AE169D168E08BE166D160E18CE163D17A
:1004100061E08BE660D1C9DE78940F2EFEE06F2E8E
:10042000F2E07F2EF02D0F2EF2E1CF2EF2E0DF2E44
:10043000F02D0F2EF5E18F2EF2E09F2EF02D0F2ED6
:10044000F9E1AF2EF2E0BF2EF02DCE0105967C0132
:100450008E010D5F1F4F9E012F5F3F4FAE01455F25
:100460005F4FBE01675F7F4F029691D19EDE9DDE9A
:1004700089819A812D853E85821B930B9A8389837E
:100480008B819C8129893A89821B930B9C838B8366
:100490008D819E812D893E89821B930B9E838D8346
:1004A0007F926F929DD3CE01019649DFDF92CF926A
:1004B00097D39F928F9294D3C80141DFDF92CF925E
:1004C0008FD3BF92AF928CD3C70139DFDF92CF9227
:1004D00087D38AE090E097D30FB6F894DEBF0FBEC3
:1004E000CDBFB3CFCF93C82F80ED90E0F1D18C2F4B
:1004F00090E044D233D281ED90E0EAD17AD2C82F95
:100500002DD28C2FCF910895CF93DF9383E4EADF30
:10051000C82FD0E0DC2FCC2784E4E4DF9E01282B19
:10052000C901DF91CF910895CF93DF9385E4DADF9E
:10053000C82FD0E0DC2FCC2786E4D4DF9E01282B07
:10054000C901DF91CF910895CF93DF9387E4CADF8C
:10055000C82FD0E0DC2FCC2788E4C4DF9E01282BF5
:10056000C901DF91CF910895CF92DF92EF92FF9270
:100570000F931F93CF93DF936C017B018A018DEF63
:1005800093E046D3C4E1D0E0BFDFF6014081518162
:1005900062817381480F591F611D711D4083518312
:1005A00062837383C1DFF70140815181628173816E
:1005B000480F591F611D711D4083518362837383EE
:1005C000C3DFF8014081518162817381480F591F57
:1005D000611D711D40835183628373832197A1F64E
:1005E000F60160817181828193819923ACF49B0132
:1005F000772324F422273327261B370BC90164E114
:1006000070E01CD2CB01770FAA0BBB0BF6018083E5
:100610009183A283B3830AC024E130E040E050E03C
:1006200020D2F6012083318342835383F701608116
:100630007181828193819923ACF49B01772324F407
:1006400022273327261B370BC90164E170E0F6D15E
:10065000CB01770FAA0BBB0BF70180839183A28399
:10066000B3830AC024E130E040E050E0FAD1F70162
:100670002083318342835383F801608171818281B9
:1006800093819923ACF49B01772324F42227332709
:10069000261B370BC90164E170E0D0D1CB01770F85
:1006A000AA0BBB0BF80180839183A283B3830AC09A
:1006B00024E130E040E050E0D4D1F80120833183E0
:1006C00042835383DF91CF911F910F91FF90EF9061
:1006D000DF90CF900895CF93DF93D82FC62F80ED72
:1006E00090E0F6D08D2F90E049D18C2F90E046D14C
:1006F00035D1DF91CF910895AF92BF92CF92DF9223
:10070000FF920F931F93CF93DF936623A1F1C52F21
:10071000D42FF62E182F80ED90E0DAD0812F90E0C4
:100720002DD185E38A95F1F7000081ED90E0D0D0DE
:100730000D2F1C2FCC24CA94CF0CD12CEFEFCE1A46
:10074000DE0AC0E0D0E0AF2CB12CF1E0AF1AB10866
:10075000AC16BD0621F44DD1F801808303C02FD122
:10076000F801808321960F5F1F4FCC15DD0581F7BF
:10077000CF2DF4D001C0C0E08C2FDF91CF911F911D
:100780000F91FF90DF90CF90BF90AF9008956F9240
:100790007F928F929F92AF92BF92CF92DF92EF9211
:1007A000FF920F931F93CF93DF93CDB7DEB72E97B2
:1007B0000FB6F894DEBF0FBECDBF4C015B016A01DE
:1007C0003901AE014F5F5F4F6EE08BE395DF8981AA
:1007D00090E0982F88272A81822BF40191838083CF
:1007E0008B8190E0982F88272C81822BF5019183B3
:1007F00080838D8190E0982F88272E81822BF601AF
:1008000091838083898590E0982F88272A85822B81
:10081000F301918380838B8590E0982F88272C8526
:10082000822BF801918380838D8590E0982F882713
:100830002E85822BF701918380832E960FB6F89434
:10084000DEBF0FBECDBFDF91CF911F910F91FF9003
:10085000EF90DF90CF90BF90AF909F908F907F9060
:100860006F900895E1EAF0E0808181608083E0EAA2
:10087000F0E08081816080838081806880838081D6
:10088000806280838081886080830895E1E2F1E066
:100890008081816080838081886080830895E3E720
:1008A000F0E0808182608083089585B5816085BD98
:1008B00085B5826085BD0895EEE6F0E080818160B7
:1008C000808308951092B9008CE08093B800089559
:1008D00094EA9093BC004FEF50E060E070E0ECEBE6
:1008E000F0E09081992334F0415051096109710978
:1008F000C0F704C0452B462B472B41F19091B9001E
:10090000987F983011F0903119F58093BB0084E8FE
:100910008093BC008FEF90E0A0E0B0E0ECEBF0E063
:10092000208122232CF00197A109B109C8F704C046
:10093000892B8A2B8B2B71F09091B900987F98317D
:1009400059F081E0903449F480E0089581E0089501
:1009500081E0089581E0089580E0089584E980931E
:10096000BC0080E090E0ECEBF0E0208124FF05C0CB
:100970000196811521E09207C1F708958093BB008D
:1009800084E88093BC008FEF90E0A0E0B0E0ECEB57
:10099000F0E0208122232CF00197A109B109C8F7CA
:1009A00004C0892B8A2B8B2B41F09091B900987F42
:1009B00081E0983219F480E0089581E0089584EC94
:1009C0008093BC008FEF90E0A0E0B0E0ECEBF0E0B3
:1009D000208122232CF00197A109B109C8F704C096
:1009E000892B8A2B8B2B19F08091BB00089580E016
:1009F000089584E88093BC008FEF90E0A0E0B0E021
:100A0000ECEBF0E0208122232CF00197A109B10941
:100A1000C8F704C0892B8A2B8B2B19F08091BB005F
:100A2000089580E008959093C5008093C40088E005
:100A30008093C1008EE08093C200089597FB072E3B
:100A400016F4009406D077FD08D027D007FC05D017
:100A50003EF4909581959F4F0895709561957F4FD5
:100A60000895052E97FB16F400940FD057FD05D07E
:100A700028D007FC02D046F408C050954095309528
:100A800021953F4F4F4F5F4F0895909580957095FA
:100A900061957F4F8F4F9F4F0895AA1BBB1B51E15C
:100AA00007C0AA1FBB1FA617B70710F0A61BB70BDE
:100AB000881F991F5A95A9F780959095BC01CD0183
:100AC0000895A1E21A2EAA1BBB1BFD010DC0AA1F8F
:100AD000BB1FEE1FFF1FA217B307E407F50720F0A7
:100AE000A21BB30BE40BF50B661F771F881F991F22
:100AF0001A9469F760957095809590959B01AC016B
:100B0000BD01CF010895BB274A3031F4992322F467
:100B1000BDE2909581959F4F01C0BB27FB015527F2
:100B2000AA27880F991FAA1FA41710F0A41B83954A
:100B30005051B9F7A05DAA3308F0A95DA1930097C1
:100B400079F7B111B1931192CB01E7C30F931F93C2
:100B5000CF93DF93009731F46115710519F480E0AC
:100B600090E039C08B01EC016EE070E081E090E034
:100B70007CD2FC01892B99F380E883830115110550
:100B800071F01387028781E88383809148049091F4
:100B90004904892B21F4F0934904E09348042097F9
:100BA000C9F0D187C08783818260838380914A04A2
:100BB00090914B04892B71F4F0934B04E0934A0419
:100BC00080914C0490914D04892B21F4F0934D04B5
:100BD000E0934C04CF01DF91CF911F910F910895C5
:100BE000CF93DF93CDB7DEB7AE014A5F5F4FFA0117
:100BF00061917191AF0180914A0490914B0438D07A
:100C0000DF91CF91089560914A0470914B0495C390
:100C10000F931F93CF93DF93E0914A04F0914B041D
:100C2000238121FF1BC08C01D0E0C0E0F80181913D
:100C30008F0160914A0470914B04DB011896ED918D
:100C4000FC911997882331F01995892B79F3DFEFFF
:100C5000CFEFECCF8AE01995892B19F08FEF9FEF3A
:100C600002C08D2F9C2FDF91CF911F910F9108957E
:100C70002F923F924F925F926F927F928F929F92AC
:100C8000AF92BF92CF92DF92EF92FF920F931F939A
:100C9000CF93DF93CDB7DEB72B970FB6F894DEBFB7
:100CA0000FBECDBF6C017B018A01FC011782168249
:100CB000838181FFBFC1CE0101963C01F601938182
:100CC000F70193FD859193FF81917F01882309F4BA
:100CD000ADC1853239F493FD859193FF81917F01F8
:100CE000853221F4B60190E028D3E8CF912C212C55
:100CF000312CFFE1F315D8F08B3279F038F48032E3
:100D000079F08332A1F4232D20611DC08D3261F072
:100D1000803369F4232D216016C0832D8260382E24
:100D2000E32DE4603E2E2AC0F32DF8601DC037FC91
:100D30002DC020ED280F2A3040F08E32B9F436FC59
:100D400075C1232D2064322E19C036FE06C08AE0FC
:100D5000989E200D1124922E11C0EAE02E9E200DA7
:100D60001124222EF32DF0623F2E08C08C3621F480
:100D7000832D8068382E02C0883641F4F70193FD38
:100D8000859193FF81917F018111B3CF982F9F7D32
:100D90009554933028F40C5F1F4F9FE399830DC047
:100DA000833631F0833771F0833509F055C020C0A8
:100DB000F801808189830E5F1F4F88248394912CD2
:100DC000530112C02801F2E04F0E511CF801A0801F
:100DD000B18036FE03C0692D70E002C06FEF7FEF77
:100DE000C50190D24C018201F32DFF773F2E15C033
:100DF000280122E0420E511CF801A080B18036FE8D
:100E000003C0692D70E002C06FEF7FEFC50168D2AB
:100E10004C01F32DF0683F2E820133FC19C0822D66
:100E200090E088169906A0F4B60180E290E085D2A1
:100E30002A94F5CFF50137FC859137FE81915F014A
:100E4000B60190E07AD221102A9421E0821A91080A
:100E50008114910479F7E1C0843611F0893639F5AF
:100E6000F80137FE07C060817181828193810C5F38
:100E70001F4F08C060817181072E000C880B990BF1
:100E80000E5F1F4FF32DFF763F2E97FF09C0909501
:100E90008095709561957F4F8F4F9F4FF0683F2EE3
:100EA0002AE030E0A30185D2882E861844C0853719
:100EB00031F4232D2F7EB22E2AE030E025C0932D71
:100EC000997FB92E8F36C1F018F4883579F0AEC00D
:100ED000803719F0883721F0A9C0E92FE061BE2ED4
:100EE000B4FE0DC0FB2DF460BF2E09C034FE0AC055
:100EF000292F2660B22E06C028E030E005C020E190
:100F000030E002C020E132E0F801B7FE07C06081A6
:100F10007181828193810C5F1F4F06C06081718156
:100F200080E090E00E5F1F4FA30143D2882E861809
:100F3000FB2DFF773F2E36FE0DC0232D2E7FA22ED8
:100F4000891458F434FE0BC032FC09C0832D8E7E08
:100F5000A82E05C0B82CA32C03C0B82C01C0B92CF6
:100F6000A4FE0FC0FE01E80DF11D8081803321F445
:100F70009A2D997EA92E09C0A2FE06C0B394B394FF
:100F800004C08A2D867809F0B394A3FC10C0A0FE9B
:100F900006C0B21480F4280C922C9B180DC0B21419
:100FA00058F4B60180E290E0C8D1B394F8CFB214FF
:100FB00018F42B1802C0982C212CA4FE0FC0B601E7
:100FC00080E390E0BAD1A2FE16C0A1FC03C088E77E
:100FD00090E002C088E590E0B6010CC08A2D8678CA
:100FE00051F0A1FE02C08BE201C080E2A7FC8DE2BD
:100FF000B60190E0A2D1891430F4B60180E390E00C
:101000009CD19A94F8CF8A94F301E80DF11D808168
:10101000B60190E092D18110F6CF222009F44ECE95
:10102000B60180E290E089D12A94F7CFF60186815B
:10103000978102C08FEF9FEF2B960FB6F894DEBF1B
:101040000FBECDBFDF91CF911F910F91FF90EF9019
:10105000DF90CF90BF90AF909F908F907F906F90D8
:101060005F904F903F902F9008950F931F93CF93D1
:10107000DF93869F8001879F100D969F100D11248E
:10108000C8010DD0EC01009721F0A80160E070E0EC
:1010900032D1CE01DF91CF911F910F9108950F931F
:1010A0001F93CF93DF938230910510F482E090E09C
:1010B000E0915004F091510420E030E0A0E0B0E075
:1010C000309719F1408151810281138148175907E6
:1010D000C8F08417950769F4109731F012960C93B5
:1010E000129713961C9327C0009350041093510439
:1010F00022C02115310519F04217530718F49A013F
:10110000BD01EF01DF01F801DBCF21153105F9F059
:10111000281B390B2430310580F48A819B816115AD
:10112000710521F0FB019383828304C090935104E5
:1011300080935004FE01329644C0FE01E20FF31F7B
:101140008193919322503109398328833AC02091A9
:101150004E0430914F04232B41F420910202309130
:10116000030230934F0420934E04209100023091EB
:1011700001022115310541F42DB73EB7409104021B
:1011800050910502241B350BE0914E04F0914F0461
:10119000E217F307A0F42E1B3F0B2817390778F04E
:1011A000AC014E5F5F4F2417350748F04E0F5F1FAD
:1011B00050934F0440934E048193919302C0E0E01A
:1011C000F0E0CF01DF91CF911F910F910895CF9360
:1011D000DF93009709F481C0FC01329713821282D9
:1011E000A0915004B0915104109781F42081318175
:1011F000820F931F20914E0430914F042817390716
:1012000051F5F0934F04E0934E0467C0ED0120E0E8
:1012100030E0CE17DF0740F44A815B819E01411523
:101220005105F1F0EA01F5CFD383C28340815181AA
:10123000840F951FC817D90759F488819981840FA5
:10124000951F0296918380838A819B8193838283F9
:101250002115310529F4F0935104E09350043DC069
:10126000E901FB83EA8349915991C40FD51FEC171B
:10127000FD0761F480819181840F951F0296E90139
:1012800099838883828193819B838A83E0E0F0E065
:1012900012968D919C911397009719F0FD01DC0136
:1012A000F7CF8D919C9111979D012E5F3F4F820F3B
:1012B000931F20914E0430914F042817390769F489
:1012C000309729F4109251041092500402C01382F6
:1012D0001282B0934F04A0934E04DF91CF910895F2
:1012E000FC010590615070400110D8F780959095F1
:1012F0008E0F9F1F0895DC0101C06D934150504037
:10130000E0F70895FC016150704001900110D8F79A
:10131000809590958E0F9F1F0895DC01FC01672F2B
:1013200071917723E1F7329704C07C916D937083BC
:101330006291AE17BF07C8F308950F931F93CF9321
:10134000DF93FB01238121FD03C08FEF9FEF2CC0B2
:1013500022FF16C0468157812481358142175307E9
:1013600044F4A081B1819D012F5F3F4F31832083E1
:101370008C93268137812F5F3F4F3783268314C09C
:101380008B01EC01FB010084F185E02D1995892B7F
:10139000E1F6D80116968D919C91179701961796B4
:1013A0009C938E931697CE01DF91CF911F910F9151
:1013B0000895FA01AA27283051F1203181F1E894EB
:1013C0006F936E7F6E5F7F4F8F4F9F4FAF4FB1E038
:1013D0003ED0B4E03CD0670F781F891F9A1FA11D33
:1013E000680F791F8A1F911DA11D6A0F711D811D34
:1013F000911DA11D20D009F468943F912AE0269FF9
:1014000011243019305D3193DEF6CF010895462F57
:101410004770405D4193B3E00FD0C9F7F6CF462F38
:101420004F70405D4A3318F0495D31FD40524193A1
:1014300002D0A9F7EACFB4E0A6959795879577955E
:101440006795BA95C9F700976105710508959B01E5
:10145000AC010A2E06945795479537952795BA956E
:10146000C9F7620F731F841F951FA01D0895F8947C
:02147000FFCFAC
:10147200000052042000FFFF2C019600C101783DBC
:101482002000202000793D20005A3D20003F4041AD
:10149200414243444546464748494A4A4B4C4D4ED1
:1014A2004F4F505152525354555656575859595AF4
:1014B2005B5C5C5D5E5F5F60616162636364656526
:1014C2006667676869696A6A6B6C6C6D6D6E6E6F70
:1014D2006F707071717272737374747575767676DB
:1014E20077777878787979797A7A7A7A7B7B7B7B65
:1014F2007C7C7C7C7C7D7D7D7D7D7D7D7E7E7E7E1B
:101502007E7E7E7E7E7E7E7E7E7E7E7E7E7E7E7DFA
:101512007D7D7D7D7D7D7C7C7C7C7C7B7B7B7B7A09
:101522007A7A7A797979787878777776767675753E
:10153200747473737272717170706F6F6E6E6D6DA1
:101542006C6C6B6A6A696968676766656564636320
:10155200626161605F5F5E5D5C5C5B5A59595857BE
:101562005656555453525251504F4F4E4D4C4B4A72
:101572004A4948474646454443424141403F3E3D31
:101582003D3C3B3A393838373635343433323130F2
:101592002F2F2E2D2C2C2B2A2928282726252524AF
:1015A2002322222120201F1E1D1D1C1B1B1A19195C
:1015B2001817171615151414131212111110100FF3
:1015C2000F0E0E0D0D0C0C0B0B0A0A090908080868
:1015D20007070606060505050404040403030303BE
:1015E20002020202020101010101010100000000E8
:1015F20000000000000000000000000000000001E8
:1016020001010101010102020202020303030304B8
:101612000404040505050606060707080808090963
:101622000A0A0B0B0C0C0D0D0E0E0F0F10101111E0
:10163200121213141415151617171819191A1B1B41
:101642001C1D1D1E1F1F2021222223242525262783
:101652002828292A2B2C2C2D2E2F2F3031323334AF
:10166200343536373838393A3B3C3D3D3E43616C80
:101672006962726174696E67204779726F2E2E2ECD
:101682000043616C6962726174696E6720416363D1
:0E169200656C65726F6D657465722E2E2E008C
:00000001FF
